:020000040000fa
:080000000001040000000000f3
:020000040000fa
:0400080028020000ca
:020000040000fa
:04000c006a02000084
:020000040000fa
:04001000aa02000040
:020000040000fa
:04001400480200009e
:020000040000fa
:040018008a02000058
:020000040000fa
:04001c00e2020000fc
:020000040000fa
:04002000e2020000f8
:020000040000fa
:04002400e2020000f4
:020000040000fa
:04002800e2020000f0
:020000040000fa
:04002c00e2020000ec
:020000040000fa
:04003000e2020000e8
:020000040000fa
:04003400ca020000fc
:020000040000fa
:04003800e2020000e0
:020000040000fa
:04003c00e2020000dc
:020000040000fa
:04004000e2020000d8
:020000040000fa
:04004400e2020000d4
:020000040000fa
:04004800e2020000d0
:020000040000fa
:04004c00e2020000cc
:020000040000fa
:04005000e2020000c8
:020000040000fa
:04005400e2020000c4
:020000040000fa
:04005800e2020000c0
:020000040000fa
:04005c00e2020000bc
:020000040000fa
:04006000e2020000b8
:020000040000fa
:04006400e2020000b4
:020000040000fa
:04006800e2020000b0
:020000040000fa
:04006c00e2020000ac
:020000040000fa
:04007000e2020000a8
:020000040000fa
:04007400e2020000a4
:020000040000fa
:04007800e2020000a0
:020000040000fa
:04007c00e20200009c
:020000040000fa
:04008000e202000098
:020000040000fa
:04008400e202000094
:020000040000fa
:04008800e202000090
:020000040000fa
:04008c00e20200008c
:020000040000fa
:04009000e202000088
:020000040000fa
:04009400e202000084
:020000040000fa
:04009800e202000080
:020000040000fa
:04009c00e20200007c
:020000040000fa
:0400a000e202000078
:020000040000fa
:0400a400e202000074
:020000040000fa
:0400a800e202000070
:020000040000fa
:0400ac00e20200006c
:020000040000fa
:0400b000e202000068
:020000040000fa
:0400b400e202000064
:020000040000fa
:0400b800e202000060
:020000040000fa
:0400bc00e20200005c
:020000040000fa
:0400c000e202000058
:020000040000fa
:0400c400e202000054
:020000040000fa
:0400c800e202000050
:020000040000fa
:0400cc00e20200004c
:020000040000fa
:0400d000e202000048
:020000040000fa
:0400d400e202000044
:020000040000fa
:0400d800e202000040
:020000040000fa
:0400dc00e20200003c
:020000040000fa
:0400e000e202000038
:020000040000fa
:0400e400e202000034
:020000040000fa
:0400e800e202000030
:020000040000fa
:0400ec00e20200002c
:020000040000fa
:0400f000e202000028
:020000040000fa
:0400f400e202000024
:020000040000fa
:0400f800e202000020
:020000040000fa
:0400fc00e20200001c
:020000040000fa
:04010000e202000017
:020000040000fa
:04010400e202000013
:020000040000fa
:04010800e20200000f
:020000040000fa
:04010c00e20200000b
:020000040000fa
:04011000e202000007
:020000040000fa
:04011400e202000003
:020000040000fa
:04011800e2020000ff
:020000040000fa
:04011c00e2020000fb
:020000040000fa
:04012000e2020000f7
:020000040000fa
:04012400e2020000f3
:020000040000fa
:04012800e2020000ef
:020000040000fa
:04012c00e2020000eb
:020000040000fa
:04013000e2020000e7
:020000040000fa
:04013400e2020000e3
:020000040000fa
:04013800e2020000df
:020000040000fa
:04013c00e2020000db
:020000040000fa
:04014000e2020000d7
:020000040000fa
:04014400e2020000d3
:020000040000fa
:04014800e2020000cf
:020000040000fa
:04014c00e2020000cb
:020000040000fa
:04015000e2020000c7
:020000040000fa
:04015400e2020000c3
:020000040000fa
:04015800e2020000bf
:020000040000fa
:04015c00e2020000bb
:020000040000fa
:04016000e2020000b7
:020000040000fa
:04016400e2020000b3
:020000040000fa
:04016800e2020000af
:020000040000fa
:04016c00e2020000ab
:020000040000fa
:04017000e2020000a7
:020000040000fa
:04017400e2020000a3
:020000040000fa
:04017800e20200009f
:020000040000fa
:04017c00e20200009b
:020000040000fa
:04018000e202000097
:020000040000fa
:04018400e202000093
:020000040000fa
:04018800e20200008f
:020000040000fa
:04018c00e20200008b
:020000040000fa
:04019000e202000087
:020000040000fa
:04019400e202000083
:020000040000fa
:04019800e20200007f
:020000040000fa
:04019c00e20200007b
:020000040000fa
:0401a000e202000077
:020000040000fa
:0401a400e202000073
:020000040000fa
:0401a800e20200006f
:020000040000fa
:0401ac00e20200006b
:020000040000fa
:0401b000e202000067
:020000040000fa
:0401b400e202000063
:020000040000fa
:0401b800e20200005f
:020000040000fa
:0401bc00e20200005b
:020000040000fa
:0401c000e202000057
:020000040000fa
:0401c400e202000053
:020000040000fa
:0401c800e20200004f
:020000040000fa
:0401cc00e20200004b
:020000040000fa
:0401d000e202000047
:020000040000fa
:0401d400e202000043
:020000040000fa
:0401d800e20200003f
:020000040000fa
:0401dc00e20200003b
:020000040000fa
:0401e000e202000037
:020000040000fa
:0401e400e202000033
:020000040000fa
:0401e800e20200002f
:020000040000fa
:0401ec00e20200002b
:020000040000fa
:0401f000e202000027
:020000040000fa
:0401f400e202000023
:020000040000fa
:0401f800e20200001f
:020000040000fa
:0401fc00e20200001b
:020000040000fa
:10020000cfa520000e7f24000e0188000000000012
:10021000000020000000e000020032000001200089
:100220002002880014000700e80007000000e0003a
:1002300003003a00a08f22000100200002003700d6
:100240000000200001002000810f7000010032003a
:1002500014000700000020000000e000020032004f
:1002600000000200000000000e2a02000000000052
:100270000040da000000fe004440a90020352000c4
:100280000000e00003003200002020009001880000
:100290004440a800000006008a1f78008b1f7800e9
:1002a00000000600a1028800800478000000eb0036
:1002b0001f003700e284440054a0b4009905ba003e
:1002c000e284440054a0b4009906ba00e2844400d9
:1002d00054a0b4000006eb00476fde00fd07b2003b
:1002e000ae018800636ce10003003a00eaff0700fa
:1002f0000000eb000e003700606ce10008003a00df
:10030000004deb000a05e800020039003420ec0043
:100310000af0a0008b05e900f9ff3e000400370059
:100320006168e100010032000086eb000b0007006d
:1003300019c7ba001905ba000e04e00003003a001c
:100340000a00e000dbff3a0000000600fe07b200f2
:10035000ae0288008a047800f5ff37000cd0a300b5
:10036000e20f4d001c00390089027800354dba00bb
:100370000a05e800020039003420ec000af0a00071
:100380008b05e9000f003200254dba000a05e80090
:10039000020039003420ec000af0a0008b05e900cf
:1003a000080032000c00e0000600320015cdba0053
:1003b0000a05e800020039003420ec000af0a00031
:1003c0008b05e9008984e80054a0b4000b00e0002c
:1003d000e2ff3a00000006009902ba00055d7800cd
:1003e0008b05e900f7ff3200c82ade00055d7800c2
:1003f0008b05e900f3ff32000c00e000f1ff320052
:1004000019ddba00eeff37004224040000000000ae
:10041000a013040000000000ba1304000000000054
:10042000d813040000000000f613040000000000d0
:1004300018140400000000003a140400000000003a
:100440005c140400000000008a1304000000000097
:100450003600f800809fbe00829fbe00849fbe00d1
:10046000869fbe000000fa008020a9000000eb007b
:10047000d81307000080fa004f03be004f02be00f1
:100480004f01be004f00be003600f90000400600dc
:100490003600f800809fbe00829fbe00849fbe0091
:1004a000869fbe000000fa00cf1307008040a9001d
:1004b00010002000c71307000080fa004f03be00a1
:1004c0004f02be004f01be004f00be003600f900d3
:1004d000004006003600f800809fbe00829fbe00ec
:1004e000849fbe00869fbe000000fa008060a900c5
:1004f00020002000b71307000080fa004f03be0061
:100500004f02be004f01be004f00be003600f90092
:10051000004006003600f800809fbe00829fbe00ab
:10052000849fbe00869fbe000000fa008080a90064
:1005300030002000a71307000080fa004f03be0020
:100540004f02be004f01be004f00be003600f90052
:10055000004006003600f800809fbe00829fbe006b
:10056000849fbe00869fbe000000fa008600a9009e
:1005700070002000971307000080fa004f03be00b0
:100580004f02be004f01be004f00be003600f90012
:1005900000400600809fbe000000fa00e04080009e
:1005a000f140800061004000e0804800e0408800a9
:1005b000f14088008860a9000080fa004f00be006a
:1005c000004006000040da000000fe0000000500c8
:1005d0000001be001b0007000470a70003f0a1008b
:1005e00003f8a30013003a006509b10010003200bf
:1005f000090035006928e1000200350001002800eb
:100600000000050000004000818048008502e900ec
:10061000fcff3a0000000600f88f4200050035009c
:100620008100d1000080d3008502e800fcff3a0081
:10063000000006008000eb00000005006011b8001b
:100640007c023700c70ade00f107b200f50fb200e6
:1006500008003200e1cf4200020032000170a00029
:1006600024000500810f700001003200040805001d
:1006700044000500810f700002003a0014000500dc
:100680008502e9000000400081c04800fcff3b00fb
:100690000170a00024000500889fbe008a9fbe0054
:1006a0008c9fbe001b0020000202be000586680071
:1006b00006002800060666004709de00f20fb200b9
:1006c000820032000243e80080003200c729de00c9
:1006d000f30fb2007d0032000343e8007b003200dc
:1006e000f107b2000170a000f507b2000570a0008c
:1006f000c708dd004903de00868070004700dd008a
:10070000c72add004923de00868272004722dd0011
:100710000305510004035000858358000300310095
:1007200000004000818048000a05e9008c1f780025
:100730008a9fbe00040050008580580004024200d9
:1007400085824a0000004000818048000005eb00df
:100750000004be006033b8000406be000d48e1008e
:1007600056003100110009004dccd8000c01b80032
:100770000d02b8008481410060824a0082835300e8
:1007800003045c0084845c0060055d000a00e000f6
:1007900025003a00800578000d40e1004900310055
:1007a0008800780007007800110009004d88d80003
:1007b0000c01b8000d02b8008481410060824a003b
:1007c0006003110083835b0004045c00e0845c0030
:1007d0000900e00021003a004f01be000300e000e4
:1007e0002b003200e3016000070673008c8171006a
:1007f00001003200640070004200de004e5edd0049
:100800000c007000c258de0001e0a0008301070068
:10081000cf017800818071004f06be004f05be00f9
:100820004f04be00000006008c8343000d044c0002
:10083000e0844c0060054d000000e9000a00e00083
:10084000d4ff32008c8343000d044c00e0844c0044
:1008500060054d000000e900ceff37000c034300a7
:100860008d834b0060044c00e0844c000000e900e4
:100870000900e000d8ff32000c0343008d834b00d9
:1008800060044c00e0844c000000e900d2ff370017
:100890004200de004e5edd000c007000c258de003b
:1008a00001e0a000cf0178000300e000daff320091
:1008b00060001000e0801800d7ff3700f0ff2f0025
:1008c000aaff3700f0ff2f00b9ff37000404be0075
:1008d0002f010700870678000004fd008104fd0059
:1008e0002b010700078366000678a300030032008f
:1008f0000960a7000800be002c0037000d78a30097
:10090000020032000800be00280037000778a3006c
:1009100026003a0001f0a10009f0a1000668a3003a
:1009200003003200f1ff2700f0ff2f00baff37006d
:100930000d68a300030032000800be008c80700028
:10094000b5ff37000768a30007003a000648a30078
:1009500003003200f1ff2700f0ff2f00aeff370049
:100960000d48a300030032006000b8008c807000c6
:10097000a9ff37000748a3000400320001f8270050
:10098000000020008c807000a3ff37007601070074
:100990000004fd008104fd000205780072010700db
:1009a0000802be008a01780059ff37000160a000ec
:1009b000120220003241880097ff37000100e0005a
:1009c000120032000500e00010003200889fbe00d7
:1009d0008a9fbe008c9fbe000006eb0001f8a300ba
:1009e0000300320060001000e08018000cf0a0004e
:1009f00005f8a3000300320060021200e0821a0032
:100a00000cf0a2008005eb0041ff37006000b80049
:100a10000200050003836800070028000703630045
:100a2000470ade000480a100c71ade000580a1008d
:100a3000f70f20000720e100420032000728e10004
:100a400040003200889fbe008a9fbe008c1f780045
:100a5000f107b200f307b2000400e00064003200c6
:100a60000170a0000500e000680032000370a000e3
:100a700085054200eb07b1000204b8000302b8008c
:100a80008484440060854a00020ab80084844400db
:100a90000a854a00030ab800040545000400330033
:100aa0000804d0008984d2000a85d2008b05e900b1
:100ab0006158e1003d00350002102000090161008d
:100ac0000308200089816100f70720008783640004
:100ad00008867300c84cde00c853dd0087847400ac
:100ae0004855de000300e000060032008203760075
:100af000040032008904e80060054d000a88a30064
:100b00000c003a00f70f20000758e10044003d00b8
:100b10000a70a100c75ddd000a8575008a007300b8
:100b2000090078004f0678004f05be004f04be0054
:100b3000000006000a05d1008984d3008b05e80077
:100b4000f0ff3700881f7800060478009000070047
:100b5000070278000001fd008101fd008c00070004
:100b600087027800850372000778a3000500320031
:100b70000001fd008101fd009f0007004f04780087
:100b800000000600850372000748a300030032003e
:100b9000f0ff2f00f1ff2700f8ff370000002000d2
:100ba00001f8270088807000f4ff37008801780082
:100bb0004848dd00808171004848de00c850dd00f3
:100bc00001007000c850de00060478000b017800b8
:100bd0001600070088807000d2ff37000500e00093
:100be00005003200170020003a0007009dff370083
:100bf00081037000f9ff3a00860078004f06780004
:100c00004f05be004f04be000000050083037100c5
:100c1000f9ff3200270020002e00070094ff370064
:100c200001f8270086807000f4ff37000100e00023
:100c300026003200610111007810e10023003c0021
:100c40006022b8007010e1000400350080027800d6
:100c5000010078008000eb00700151000200e0000c
:100c60000900340070031100062add00822ade002c
:100c70008603dd00878272000200de00860bdd0045
:100c8000070070008208de0084817100f4ff2700f5
:100c90000482620084817100040028008482620062
:100ca0006102600005f0a6000000060004827100e9
:100cb000070032000000e800e08048000000060065
:100cc0000002be006000b800efff37006000b8000f
:100cd00000000600889fbe000004eb006138e100c0
:100ce00016003a000100e00008003a00c800de00eb
:100cf0004800dd00880020000100e00003003a0009
:100d0000c800de004800dd00680444008184cf0094
:100d1000e9845400060034008908dd00f0831400e3
:100d20008703de00878070000900dd0009044400ad
:100d3000610214004f04be00000006000300e00042
:100d400008003a00c811de004811dd0088002000cc
:100d50000300e00003003a00c811de004811dd0086
:100d6000680444008384cf00e98454000600340002
:100d70008919dd00f08314008713de00878171007c
:100d80000911dd0009044400e1021400e9ff370005
:100d90002700200001f0a70017002000470bde000d
:100da000f60fb200040032000643e8000a003200e9
:100db0004702b3000000060001037800f607b20006
:100dc0000603700002003a000703b30000000600ab
:100dd0008702b3000000060001037800f607b200a6
:100de00006037000020032000770a0000000060039
:100df0000760a000000006000478a3000400320091
:100e00000578a300030032000168a30001003a0046
:100e10000200be000160a000000006008101700019
:100e2000270032008002eb0001f8a300030032002b
:100e300060001000e080180015002000f40720007a
:100e40000202420020003400f70320008703600004
:100e50000604200000036300020820000001610076
:100e60004700de00c909dd0000807100c708de0010
:100e70000600e0000800320087037100060032001f
:100e80001000b0000180b0000188a3000200320011
:100e9000c108de000402e800f107b200f30f2000f1
:100ea0000320e10003003d004722dd0081007200c5
:100eb0002900370001f827000000eb00260037006a
:100ec0006000b80000000600680212007f20e10008
:100ed000020034006000b8001f0037006011b80045
:100ee0007020e100040035008001780001007800e6
:100ef0008000eb00700252000400e00009003400a2
:100f0000f00312000719dd008419de000703dd007d
:100f1000868171000400de00070bdd000600700012
:100f20008408de00f7ff27008383630087037100d6
:100f30000600280003036300070032000700e000fa
:100f400003003a0061016000028173000200320078
:100f50001000b0000180b0000500a60000000600ef
:100f600001f0a000000006004f0ade004709de0085
:100f7000f107b200f20fb2000b003200f207b1002d
:100f80000170a000c708dd00c901de008380700089
:100f90004700dd000400a60000000600600010000d
:100fa000e080180000000600810f700001003a0088
:100fb000000006008182cf000500e00010003e0026
:100fc0008082cf00ee8242007028e10004003900e8
:100fd00007003e00800078000000eb000e003700a4
:100fe000708312008600de000500dd000a00370075
:100ff000708352008600dd000000eb000600370021
:10100000e28252008508dd00708312000603de00d4
:10101000868070000500dd007507b0000501ea005c
:101020000400a6000000060060001000e080180028
:1010300000000600889fbe008a9fbe0000827000ec
:101040000402710004827100260032000004be0018
:101050000200be006011b8006b092000950220005c
:101060000182cf000a0039000541b1000082cf00a3
:10107000070039000541b1000982cf0004003900a2
:101080000541b1000882cf00010039000541b100df
:1010900005425200120032000a003b0082817100ba
:1010a000610164008100d1000080d3008984d300f5
:1010b0000884d3008b05e8000442e800f7ff3a00fb
:1010c000070037000804440089844c0000004800f1
:1010d000818048008b05e9000442e900f9ff3a00ed
:1010e000030007004f05be004f04be0000000600cd
:1010f00081002000618055000b003d000b002000a6
:1011000061fe2f000100e1001d00340082817100aa
:10111000610164008904d1000884d3000000e80064
:10112000faff3a00710020006100640003007000c3
:10113000020060000900320061044400e0844c00b9
:101140000988a500050032008b05e8006808e10069
:1011500002003a008904d1000884d300f20f200075
:101160000258e10005003d00c75ddd00f907b2004f
:101170008980750008007800000006000bf8270041
:081180008b007800000005005f
:020000040000fa
:101188005f5f00000508000000000000000000008c
:101198000000000000fa00000000000000e000006d
:1011a80000e0000000280000fe280000fe280000e3
:1011b80024540000fe54000048c40000c810000079
:1011c800264600006c9200006a0400000a00000035
:1011d80010e00000c0000000003800004482000059
:1011e800000000008244000038000000543800006d
:1011f800fe38000054100000107c000010100000a1
:10120800000000000e0c000000100000101000008c
:101218001010000000000000060600000004000096
:1012280008100000204000007c8a000092a2000004
:101238007c00000042fe0000020000004e92000008
:10124800929200006284000082920000b2cc0000fa
:101258001828000048fe000008e40000a2a20000d0
:10126800a29c00003c520000929200008c82000078
:101278008488000090e000006c92000092920000c8
:101288006c62000092920000947800000000000058
:101298002800000000000000022c000000000000f0
:1012a80000100000284400008228000028280000c0
:1012b8002828000000820000442800001040000098
:1012c800809a0000906000007c820000ba9a0000ba
:1012d800723e000048880000483e0000fe92000070
:1012e800929200006c7c0000828200008244000020
:1012f800fe820000828200007cfe000092920000c4
:1013080092820000fe90000090900000807c000017
:10131800828200008ace0000fe100000101000003b
:10132800fe00000082fe00008200000004020000af
:1013380082fc000080fe00001028000044820000ab
:10134800fe0200000202000002fe00004038000019
:1013580040fe0000fe20000010080000fe7c000097
:1013680082820000827c0000fe90000090900000c5
:10137800607c0000828a0000847a0000fe900000f1
:10138800989400006264000092920000924c000061
:10139800c0800000fe800000c0fc000002020000c7
:1013a80002fc0000f804000002040000f8fc000041
:1013b800021c000002fc0000c628000010280000e3
:1013c800c6c00000201e000020c00000869a000051
:1013d80092b20000c2000000fe820000828200007b
:1013e8004020000010080000040000008282000075
:1013f80082fe000020400000804000002002000023
:10140800020200000202000000c00000e01000001c
:10141800000400002a2a00001c020000fe1400003c
:10142800222200001c1c00002222000022140000be
:101438001c22000022140000fe1c00002a2a0000c2
:101448002a180000001000007e90000040300000c4
:101458004a4a0000523c0000fe1000002020000014
:101468001e00000022be000002000000040200006e
:1014780002bc000000fe000008140000220000006a
:1014880000820000fe020000003e0000201e000056
:10149800201e00003e100000202000001e1c00003e
:1014a80022220000221c00003e1800002424000014
:1014b8001818000024240000183e00003e10000008
:1014c80020200000101200002a2a00002a24000010
:1014d80020200000fc220000243c00000202000042
:1014e800043e00003804000002040000383c0000fc
:1014f800020c0000023c0000221400000814000046
:10150800223200000a0a00000a3c000022260000dd
:101518002a32000022000000106c00008200000047
:1015280000000000fe00000000000000826c0000c7
:101538001000000040800000402000004000000033
:10154800dff700005aff0000ff070000fa7f0000e5
:10155800fff70000bbf7000038ff000000000000a4
:1015680059ff00001f0000005c89000045a1000031
:10157800d0dd0000f45c0000e07f000043d30000f1
:10158800eafb0000bd640000dbff0000a7d80000f4
:10159800ff070000110000005104000021bc0000fa
:1015a80055ad00002003000055ad0000adbd0000a2
:1015b800118800004553000060fc00009999000064
:1015c80000880000afec0000f18d0000f149000038
:1015d800692a0000692a00007a0600001a900000b3
:1015e800b2f80000ff0500004d6b00004d6b0000d5
:1015f8009f1c000004b10000deff0000442400002e
:101608001ff80000fbde0000dfff0000a0fe000066
:1016180024dd00001084000000040000e5af000095
:1016280010840000fef7000056fb0000ebca000023
:1016380010480000feff000031f700003fe70000ff
:101648009eff0000e07f0000d9ff0000dcae000034
:1016580010f40000ffe70000daff00009ad600004f
:10166800729700009ad60000b8fd00000ffd000038
:10167800952500007f860000537400005374000015
:101688003bb60000fcff0000e007000066360000e3
:101698009cff00001ff80000008000007566000035
:1016a80019000000baba00009b9300008e3d0000ac
:1016b8005d7b0000d3070000994e0000b0c0000019
:1016c800ce180000fff700003cff000036ff0000c6
:1016d800f5fe000010000000bcff000000840000c0
:1016e800646c000020fd000020fa00009adb000076
:1016f80055ef0000d39f00007daf000092db000093
:101708007aff0000d7fe000027cc000019fe000079
:101718001bdd00001cb700001080000000f800006e
:1017280071bc00005c430000228a00000efc00002f
:101738002cf500004a2c0000bdff000085a2000027
:1017480018c600007d860000d96a000012740000e7
:1017580012740000dfff0000ef07000016440000cd
:10176800b1d5000010040000fbdd000008fb0000fc
:101778001a4700001dec0000f6f60000ffff00000d
:10178800bef70000e0ff0000669e000000000000b9
:10179800ff0000000080000000000000ff000000c3
:1017a8000000000000000000ff00000000450000ed
:1017b800ff00000000a50000ff00000000d70000a7
:1017c800ff00000000ff0000ff0000002fff0000e6
:1017d800ad00000000ff0000000000007fff0000d7
:1017e80000000000ffbf000000000000ff00000034
:1017f80000000000e22b00008a00000080000000ca
:101808008000000093140000ff0000002001000089
:101818000000000000000000200100000f00000090
:0418280000000000bc
:020000040000fa
:10182c000600fa00000f78001107980022079800b4
:10183c001e007800804078002e009000014878004f
:10184c002e00900011c0b300614898002e0090004b
:10185c009e0090001101be002200980033009800f9
:10186c001e007800e30f50002f003200e30f5000f1
:10187c0005003e00e10f500015003200e10f500052
:10188c001e003e0007003700e60f50003e003200fd
:10189c00e70f500048003200e50f50002e003200d8
:1018ac00570037002e0090009e0090001102be00e1
:1018bc002400980035009800a10290004500980083
:1018cc002e009000013a21001100980050003700c2
:1018dc002e0090009e0090001103be002600980080
:1018ec0037009800a1039000470098002e0090004c
:1018fc00a13b210011009800450037002e009000fc
:10190c009e0090001101be00220098003300980048
:10191c00a1019000430098002e009000813d210011
:10192c00110098003a0037002e0090009e009000a5
:10193c003102be002103be0024009800350098003f
:10194c0046009800570098002e009000613f21003f
:10195c00110098002e0037002e0090009e00900081
:10196c003102be002103be0024009800350098000f
:10197c0046009800570098002e00900081412100ed
:10198c0011009800220037002e0090009e0090005d
:10199c003102be002103be002400980035009800df
:1019ac0046009800570098002e009000a14321009b
:1019bc001100980016003700ae0090001e00900039
:1019cc00e4804000b0187800a0107800e48040005b
:1019dc0064004000b0187800a0107800e48040004b
:1019ec0064004000900878008180e8000080e800e6
:1019fc002e009000c1452100110098000400370012
:101a0c002e009000a1382100110098000000000069
:101a1c000080fa00000006000400fa00204798003d
:101a2c00314798002e4090008080fb003e40900093
:101a3c000000fb00008f4000408c28001040780014
:101a4c000080fb009e0f500003003d00408c2800de
:101a5c0010407800080037001e0078000000e000fd
:101a6c0002003d000040eb0003003700be40900038
:101a7c002e40900000c040000080fa0000000600dc
:101a8c000200fa00004f780011479800408c2800a3
:101a9c00104078009e40780080cf500005003e003a
:101aac00508c2800104078009e40900080cf500051
:101abc00020036000000eb0007003700f1c5b30050
:101acc001e407800ca0a0700f1c5b3001e40900002
:101adc00b20a0700ee0a07000080fa0000000600b8
:101aec000400fa00004f7800114798001207980084
:101afc00408c2800104078009e40780080cf500029
:101b0c000e003e00508c2800104078009e40900043
:101b1c0080cf50000b003e00f1c5b3001e40780092
:101b2c00b30a0700f1c5b3001e4090009b0a0700e2
:101b3c001e009000f00a07000300370000000000b0
:101b4c0001003700000000000080fa0000000600d1
:101b5c000e00fa00004f9800114f9800224f980089
:101b6c00630798000e4890008080fb002e48900080
:101b7c000080fb0080805000408c280010407800d2
:101b8c000080fb00808f500070003c001e489000cd
:101b9c008080fb002e4890000080fb00808050006d
:101bac00508c2800104078000080fb00808f500083
:101bbc0068003c002e4890000004e00001003a0050
:101bcc0010c0b300204f98002e4890008040780041
:101bdc000e48900090ff0700204798002e48900078
:101bec000040ea00804078000e4890008aff070011
:101bfc00304798002e489000804078001e48900096
:101c0c0085ff0700404798002e4890000040ea00ee
:101c1c00804078001e4890007fff070050479800d6
:101c2c00be409000014f7800430037000e489000f2
:101c3c009e4f5000030039000e4890001e4050008b
:101c4c00030037009e4078000e48900000c0500002
:101c5c0060479800de409000114798003100370033
:101c6c009e4890001e40900080cf50000400390028
:101c7c009e4890001e40900000c0500003003700aa
:101c8c009e4090001e48900000c050007047980085
:101c9c007e4090008080fb006e4090000080fb0036
:101cac00808040002e4890000080fb00808f500008
:101cbc00150034007e4090008080fb007e40900038
:101ccc000080fb000088b900000178006e40900095
:101cdc008080fb006e4090000080fb000088b90003
:101cec0000007800000141002e4890008080fb002d
:101cfc002e4890000080fb000088b900000078009e
:101d0c00800f510004003c006e0190009e4090003a
:101d1c001e40780072ff07001e4090000040e80053
:101d2c00104798009e4090004e40900080cf50008d
:101d3c00cbff39001e4fe8002e4090009e407800eb
:101d4c0080cf5000b9ff39000300370000000000bd
:101d5c0001003700000000000080fa0000000600bf
:101d6c000c00fa006047980071479800024f9800e9
:101d7c00530798000040eb00104798000040eb0020
:101d8c00204798000040eb00304798000000eb0023
:101d9c00200798000e4890000004e00001003a0073
:101dac0010c0b300004f98000e4890000040e800af
:101dbc00004f78000040eb00104798000040eb000b
:101dcc00204798000000eb002007980067003700c0
:101ddc001e4090000000fb00000040000000e800e6
:101dec00ae00900000804000200798001e4090003c
:101dfc000040e800104798002e0090000000e00022
:101e0c005a0035004c003700ae4090003147980026
:101e1c0043003700ae4090007e40900080c04000f0
:101e2c003e4190006e409000004041005e019000e9
:101e3c002bff07002e409000fe40900080c0500009
:101e4c003e4190006e409000004041005e019000c9
:101e5c0023ff0700ae4090007e40900080c0400001
:101e6c003e4090006e419000004051005e01900099
:101e7c001bff07002e409000fe40900080c05000d9
:101e8c003e4090006e419000004051005e01900079
:101e9c0013ff0700be4090007e40900080c04000c1
:101eac002e4190006e409000004041005e01900079
:101ebc000bff07003e409000fe40900080c0500099
:101ecc002e4190006e409000004041005e01900059
:101edc0003ff0700be4090007e40900080c0400091
:101eec002e4090006e419000004051005e01900029
:101efc00fbfe07003e409000fe40900080c050006a
:101f0c002e4090006e419000004051005e01900008
:101f1c00f3fe07003e4090000040e8003047980078
:101f2c003e4090009e4f5000baff35002e4090006e
:101f3c000040e80020479800ae4090001e40900002
:101f4c0080cf5000b0ff35009e00fb00e0ff2f005b
:101f5c000088b900000078000000e800ae00900096
:101f6c0000804000200798001e4fe9001e409000a2
:101f7c009e40780080cf500095ff3d000080fa0015
:101f8c00000006000a00fa004047980051479800ec
:101f9c006247980073479800440798007e40900071
:101fac000080fb000000d10000407800ee40900063
:101fbc0000c040006047980064003700ee4090007d
:101fcc00014f78000040eb00104798000000eb0038
:101fdc0010079800560037009e4090005e4090001d
:101fec0080c040001e4178004e40900000404100ef
:101ffc004e019000bafe07001e409000de4090009b
:10200c0080c050001e4178004e40900000404100be
:10201c004e019000b2fe07009e4090005e40900082
:10202c0080c040001e4078004e419000004051009e
:10203c004e019000aafe07001e409000de4090006a
:10204c0080c050001e4078004e419000004051006e
:10205c004e019000a2fe07009e4078005e4090006a
:10206c0080c040001e4190004e4090000040410056
:10207c004e0190009afe07001e407800de40900052
:10208c0080c050001e4190004e4090000040410026
:10209c004e01900092fe07009e4078005e4090003a
:1020ac0080c040001e4090004e4190000040510006
:1020bc004e0190008afe07001e407800de40900022
:1020cc0080c050001e4090004e41900000405100d6
:1020dc004e01900082fe07001e4090000000fb00a5
:1020ec00000040000000e8009e00900000804000ce
:1020fc00100798001e4090000040e8001047980020
:10210c001e0090000000e000090035009e00fb005e
:10211c00e0ff2f000088b900000078000000e80004
:10212c009e00900000804000100798001e4fe900b0
:10213c001e4090009e40780080cf5000a6ff3d00ce
:10214c006e4090000040e900604798007e4090008f
:10215c000080fb000000ea004f00de000040780029
:10216c00fe4090008140e900714798000004e000b7
:10217c0092ff3a000080fa00000006000e00fa0000
:10218c006047980071479800024f9800134f9800d1
:10219c00244f9800650798002e4890000004e0003a
:1021ac0001003a0010c0b300204f98008e489000f8
:1021bc006e40900000c05000304798009e48900040
:1021cc007e40900000c0500040479800ce409000e8
:1021dc003e40900000c0500020479800fe40900008
:1021ec0011479800ee409000014f78002c0037000a
:1021fc009e00fb00408c2800104078000080fb0003
:10220c00808f500017003c001e4090008000fb00a7
:10221c00508c2800104078000080fb00808f50000c
:10222c0010003c002e489000e14f500005003e008d
:10223c009e4090001e4078006e01900028fe070022
:10224c00080037002e4890000080fb000000d100f1
:10225c00004178009e4090001e407800ee019000f6
:10226c00bffe07002e4090000004e0000700350080
:10227c001e4090000040e80010479800ae409000cf
:10228c003e40900000c0500020479800ae409000a7
:10229c004e40900000c04000204798001e4fe800c0
:1022ac009e00fb000e4890000080fb00808f5000c9
:1022bc00cfff35000080fa00000006000800fa008d
:1022cc0020479800314798004247980053479800a0
:1022dc0034079800ce4090002e409000c4080700b0
:1022ec00de4090003e409000ac080700ae409000ed
:1022fc00014f780010003700be4090001147980045
:10230c00050037003e009000fb0807001e409000bf
:10231c000040e800104798001e4090008080fb00b1
:10232c005e4090000080fb000000e800808f5000b1
:10233c00f4ff35001e4fe8009e80fb004e409000dd
:10234c000080fb000000e800808f5000eaff3500a1
:10235c000080fa00000006001000fa00004f980000
:10236c00114f9800224f9800334f9800444f98001b
:10237c00750798004e4890000080fb0001fe2f006e
:10238c0080804000608c2800104078000080fb00aa
:10239c000088b9000000780080007800808c28004c
:1023ac00008f40000000eb00100798003c00370045
:1023bc001e00780090407800614798001e0fe800de
:1023cc00708c2800104078008080fb003e48900004
:1023dc000080fb000088b9000000780020079800fe
:1023ec00270037006e4090000080fb006100600009
:1023fc00004078000004e000180032002e0090002d
:10240c00804078001e48900080c040003e489000fc
:10241c0000c040008041e9001e0090008040780020
:10242c000e48900080c040002e48900000c0400034
:10243c000041e9002e009000804078001e4890007a
:10244c0080c040001e009000004278000e489000b2
:10245c00004042007e02900098ff07006e40900002
:10246c000080fb000000d100604798003e489000bf
:10247c000080fb00ae009000008050002007980008
:10248c002e0090000000e000d6ff3a002e4890008d
:10249c000080fb009e009000008040001007980018
:1024ac00608c2800104078008080fb002e48900043
:1024bc000080fb000088b9000000780080007800e4
:1024cc001e009000808f5000b9ff3e000080fa0083
:1024dc00000006000800fa00004f78001147980031
:1024ec002247980033479800240798003507980036
:1024fc00150037002e00900010407800ae009000c0
:10250c008100e80021079800be029000004278008c
:10251c00be4190002e4190009e4090001e407800dd
:10252c008dff0700608c280010407800ae409000b2
:10253c008180fb000088b900000078000040780022
:10254c001e404000004fe8002e0090001040780024
:10255c000004e000e7ff3a000080fa0000000600eb
:10256c001400fa00889fbe00204f9800314f98004d
:10257c0062079800634f9800744f9800050f9800fd
:10258c002657980000c2b300604798006e48900030
:10259c000004e000020032006e4890000100370099
:1025ac0010c0b300604f98007e4890000004e0001b
:1025bc00020032007e4890000100370010c0b300ca
:1025cc00704f98000040eb00004f78004700370038
:1025dc000e0890001001be00120798002307980007
:1025ec000e08900064004000000f98001e40780018
:1025fc00fe4890008180fb000088b9000000780044
:10260c00804078003e48900000c040007047980021
:10261c000040eb00104798002f0037001e00900080
:10262c00ae00900000007800610060008004eb00b8
:10263c00000478000800be00e00f5000e08f580046
:10264c001c003a006e4090008080fb001e40900001
:10265c000080fb000080500000407800ee489000a5
:10266c008180fb000088b900000078008040780071
:10267c002e48900000c04000004f9800fe40900093
:10268c007e48900000c040008040e9000e49900058
:10269c006e489000004041000040e9006e0290003e
:1026ac008141780000417800fe4090000e48900077
:1026bc0002ff07001e009000ae0090008100d100c8
:1026cc000080d30010079800210798001e4090004e
:1026dc000040e800104798009e4090006e4090002b
:1026ec0080cf5000cdff39001e4fe8002e509000d7
:1026fc009e40780080cf5000b5ff39004f04be00db
:10270c000080fa00000006000200fa00000f7800ba
:10271c001e007800200190001e007800f040900010
:10272c001e00780060409000edfc07000080fa006d
:10273c00000006000200fa00000f78001e0078006e
:10274c00a00190001e007800004990001e00780047
:10275c00f04090001e0078006040900080fd070063
:10276c000080fa00000006000200fa00000f78005a
:10277c001e007800200290001e0078009049900006
:10278c001e007800004990001e007800f040900078
:10279c001e00780060409000fafd07000080fa00ef
:1027ac00000006000200fa00000f78001e007800fe
:1027bc00200290001e007800904990001e007800c6
:1027cc00004990001e007800f04090001e00780038
:1027dc0060409000b9fe07000080fa00000006007f
:1027ec000200fa00000f78001e007800a002900092
:1027fc001e007800004a90001e007800a04990004e
:10280c001e007800104990001e007800f0409000e7
:10281c001e0078006040900058fe07000080fa000f
:10282c00000006000200fa00000f78001e0078007d
:10283c00a00290001e007800204a90001e00780034
:10284c00904990001e007800004990001e0078000e
:10285c00f04090001e00780060409000befe070023
:10286c000080fa00000006000200fa00000f780059
:10287c001e007800a00290001e007800500290000c
:10288c001e007800904990001e00780000499000ce
:10289c001e007800f04090001e0078006040900010
:1028ac000cff07000080fa00000006000200fa008e
:1028bc00000f78001e007800404b90001e0078003e
:1028cc00d00290001e007800104a90001e00780084
:1028dc00804990001e007800200190001e007800b6
:1028ec00f04090001e007800604090001cff070034
:1028fc000080fa00000006000600fa00000f7800c5
:10290c0011079800220798001e007800f13f200064
:10291c00810f500001003600f03f2000b0118800fc
:10292c001e009000f13f2000810f50000100360086
:10293c00f03f2000001288002e009000f13f200094
:10294c00810f500001003600f03f2000501288002b
:10295c000080fa00000006000800fa00000f780062
:10296c00110798002207980033079800f03f2000c9
:10297c009e007800808f500003003e001e007800ff
:10298c008000eb0002003700f03f20000100200027
:10299c003e0190008001eb00028ab900040278002d
:1029ac00009bb90086027800050242000200b800c4
:1029bc0001024200840078000020b0000180b000c9
:1029cc004609dd004a00de0000007100ca08de0086
:1029dc0000007800b01188009e009000f03f2000ad
:1029ec00808f500003003e001e0090008000eb0022
:1029fc0002003700f03f2000010020003e01900053
:102a0c008001eb00028ab90004027800009bb90037
:102a1c0086027800050242000200b8000102420062
:102a2c00840078000020b0000180b0004609dd0071
:102a3c004a00de0000007100ca08de0000007800c9
:102a4c0000128800ae009000f03f2000808f5000f4
:102a5c0003003e002e0090008000eb0002003700c7
:102a6c00f03f2000010020003e0190008001eb00af
:102a7c00028ab90004027800009bb9008602780033
:102a8c00050242000200b8000102420084007800f6
:102a9c000020b0000180b0004609dd004a00de00d5
:102aac0000007100ca08de00000078005012880097
:102abc000080fa00000006000600fa00008fbe003d
:102acc00220798009e007800f00f20000080600024
:102adc00c200dd001e017800f00f20000000610034
:102aec004600de00010170001e00be00c809dd00ba
:102afc004800de0000807100c808de00800078000d
:102b0c00f00f200000806000c201dd001e00be003e
:102b1c00480add004800de0000007200c808de0034
:102b2c0080007800f00f2000008060004600de007e
:102b3c00030270001e00be004008de00800078001a
:102b4c00f00f200000806000c201dd001e00be00fe
:102b5c004008de0080007800f00f2000008060004c
:102b6c004600de0003007000ae0190008400780087
:102b7c0079ff07000080fa00000006000200fa004e
:102b8c00303380000080a00030338800401f2000cc
:102b9c006a090700303380000080a10030338800c0
:102bac00401f200065090700303380000090a00012
:102bbc0030338800401f200060090700303380004c
:102bcc000090a10030338800401f20005b090700f3
:102bdc00303380000080a000303388003033800018
:102bec000090a00030338800401f200053090700dc
:102bfc00303380000080a1003033880030338000f7
:102c0c000090a10030338800401f20004b090700c2
:102c1c000000eb00000f780011003700303380000b
:102c2c000080a00030338800303380000090a0007a
:102c3c003033880040062000400907003033800004
:102c4c000080a10030338800303380000090a10058
:102c5c003033880040062000380907001e0fe800ba
:102c6c001e007800e40f5000ecff34000080fa00e6
:102c7c00000006000000fa000001eb008000eb00f1
:102c8c00f03f20001cff0700803e20002b090700ae
:102c9c000001eb008000eb000020200016ff070075
:102cac00803e2000250907000001eb008000eb00ae
:102cbc000010200010ff0700803e20001f090700b5
:102ccc000001eb00f13f20000000eb000aff0700c1
:102cdc00803e200019090700f23f20008000eb0025
:102cec000000eb0004ff0700803e200013090700e2
:102cfc00022020000120200000202000fefe070002
:102d0c00803e20000d0907000001eb008000eb0065
:102d1c000000eb00f8fe0700401f20000709070029
:102d2c000080fa00000006000000fa00f03f2000ce
:102d3c000041880000418000000178000000200064
:102d4c00f10f20005cff0700803e2000fb0807000d
:102d5c0000418000000178000000280001002000e4
:102d6c0055ff0700803e2000f4080700004180005a
:102d7c0000017800f00f2000010020004eff07003a
:102d8c00803e2000ed080700004180000001780023
:102d9c0000f02f00f10f200047ff0700803e2000bd
:102dac00e60807000041800000017800f0ff2f00ca
:102dbc000100200040ff0700803e2000df080700d4
:102dcc000041800000017800f00f2000f10f20007e
:102ddc0039ff0700803e2000d80807000041800022
:102dec0000017800f0ff2f00f10f200032ff0700e8
:102dfc00803e2000d10807000041800000017800cf
:102e0c0000502a00f10f20002bff0700803e20000d
:102e1c00ca0807000041800000017800000820006b
:102e2c000108200024ff0700803e2000c308070093
:102e3c00004180000001780000f02f00010020000c
:102e4c001dff0700803e2000bc08070000418000e9
:102e5c00000178006000b80017ff0700401f200039
:102e6c00b60807000080fa00000006000000fa0017
:102e7c000041800000017800f0ff2f00f10f2000ce
:102e8c000dff0700f03f200000418800004180004a
:102e9c0000017800f0ff2f00f10f200006ff070063
:102eac00803e2000a508070000302000004188006b
:102ebc000041800000017800f0ff2f00f10f20008e
:102ecc00fdfe0700803e20009c080700002020002b
:102edc00004188000041800000017800f0ff2f00c5
:102eec00f10f2000f4fe0700803e2000930807003d
:102efc000010200000418800004180000001780093
:102f0c00f0ff2f00f10f2000ebfe0700803e2000a9
:102f1c008a080700600620000041880000418000fc
:102f2c0000017800f0ff2f00f10f2000e2fe0700f7
:102f3c00803e200081080700f03f200000418800ff
:102f4c000041800000017800f0ff2f00f10f2000fd
:102f5c00d9fe0700803e200078080700f03f2000d3
:102f6c00004188000041800000017800000820002a
:102f7c0001082000d0fe070000202000004188003e
:102f8c0000418000000178000008200001082000aa
:102f9c00c9fe0700803e200068080700f03f2000b3
:102fac0000418800004180000001780000082000ea
:102fbc0001082000c0fe0700803e20005f080700cb
:102fcc0000418000000178006000b800bafe0700e4
:102fdc00401f2000590807000080fa00000006007e
:102fec000000fa0000102000004188000041800021
:102ffc000001780000002000f10f2000aefe070059
:10300c00c05d20004d0807000001eb008000eb00c4
:10301c00f03f200038fe0700c05d20004708070085
:10302c00004180000001780000002000f10f20001a
:10303c00a1fe0700c05d200040080700f03f200003
:10304c000041880000418000000178000000200051
:10305c00f10f200098fe0700c05d20003708070024
:10306c000001eb008000eb000000eb0022fe0700eb
:10307c00401f2000310807000080fa000000060005
:10308c000800fa00f03f2000004188000041800059
:10309c0000017800f0ff2f000100200086fe0700e1
:1030ac000000eb00000f78000b0037009e0078004a
:1030bc00014188000041800000017800f0ff2f00e2
:1030cc00010020007cfe0700400120001b080700c7
:1030dc00010220001e8f4000f03f20009e0078006f
:1030ec00808f5000f1ff3600f03f20001007980051
:1030fc000c0037001e009000004188000041800049
:10310c0000017800f0ff2f00010020006afe07008c
:10311c0040012000090807001e0090000002b100c9
:10312c00100798001e0090000000e000f1ff3d0029
:10313c00f03f200000418800004180000001780031
:10314c0000502a00f10f20005bfe07000000eb008e
:10315c00200798000c003700ae0090000141880059
:10316c00004180000001780000502a00f10f20007f
:10317c0051fe070040012000f00707002e009000d0
:10318c000002b00020079800ae009000f03f200035
:10319c00808f5000f0ff3600f03f20003007980081
:1031ac000c0037003e009000004188000041800078
:1031bc000001780000502a00f10f20003efe0700ad
:1031cc0040012000dd0707003e0090000002b10026
:1031dc00300798003e0090000000e000f1ff3d0039
:1031ec00f03f200000418800004180000001780081
:1031fc006000b80030fe0700c0122000cf070700a7
:10320c000080fa00000006000400fa00f03f2000e5
:10321c00004188000000eb00000f780050003700e0
:10322c000000eb0010079800480037001e007800e3
:10323c00e20f50001e003200e20f500005003c006f
:10324c000000e0000a003200e10f50000f003200d5
:10325c0039003700e40f500026003200e40f500014
:10326c001a003500e50f50002900320032003700fb
:10327c0000418000800178000001eb009e0090006e
:10328c00f03f2000b4fd07002b0037000141800007
:10329c00f23f20001e0090000000510081017800d8
:1032ac000001eb00f13f2000abfd070022003700ce
:1032bc0000418000800178001e019000f13f200049
:1032cc000000eb00a4fd07001b003700014180004b
:1032dc00f23f20001e009000000051008101780098
:1032ec00f23f2000800078000000eb009afd070000
:1032fc00110037000041800080017800f23f20006f
:10330c008000eb001e00900093fd07000a003700c0
:10331c0001418000f23f20001e009000000051008f
:10332c0081017800000178008000eb00f03f200064
:10333c0089fd070000000000400120007f07070006
:10334c001e0090000004b000100798009e00900032
:10335c00f03f2000808f5000b4ff36001e0fe800b5
:10336c001e007800e50f5000adff340000418000d6
:10337c00800178000001eb008000eb000000eb0006
:10338c0075fd0700401f20006c0707000080fa0045
:10339c00000006000000fa00f03f20000041880009
:1033ac0000418000800178000001eb008000eb0000
:1033bc000000eb0068fd0700401f20005f070700be
:1033cc000041800080017800f23f2000f13f200096
:1033dc00f03f200060fd0700401f2000570707004a
:1033ec000041800000017800f0ff2f00f10f200059
:1033fc00b1fd0700803821000041880000418000a9
:10340c0000017800f0ff2f00f10f2000aafd07004b
:10341c00401f200049070700f03f200000418800b2
:10342c0000418000800178000001eb008000eb007f
:10343c000000eb0048fd0700401f20003f0707007d
:10344c000080fa00000006000000fa00f03f2000a7
:10345c000041880000418000000178000000280035
:10346c00f10f200094fd0700803e20003307070079
:10347c000041800000017800f00f200001082000be
:10348c008dfd0700803e20002c07070000418000c6
:10349c000001780000f82f000100200086fd0700d5
:1034ac00803e2000250707000041800000017800c5
:1034bc0000082000f10f20007ffd0700803e200057
:1034cc001e070700004180000001780000f02f006b
:1034dc000108200078fd0700803e20001707070038
:1034ec000041800000017800000424000104200049
:1034fc0071fd0700803e200010070700004180008e
:10350c000001780000042c00010c20006afd07006b
:10351c00803e200009070700004180000001780070
:10352c006000b80064fd0700401f2000030707007f
:10353c000080fa00000006003800fa00f03f20007e
:10354c0000418800e400470062bd28001900090012
:10355c00b2187800d0c0b300204798000040eb00b0
:10356c00004f7800150037000040eb001047980022
:10357c000d003700024180001e4090000080fb00cf
:10358c004200dd00e4004700008040001000be0057
:10359c0049fd0700c0122000e80607001e409000fd
:1035ac000040e800104798009e4090002e4090008c
:1035bc0080cf5000efff39001e4fe8001e4078000e
:1035cc00e14f5000e8ff3600004180000001780018
:1035dc006000b80038fd0700401f2000d706070028
:1035ec000080fa00000006000000fa000020200015
:1035fc00004188000041800000017800000020009c
:10360c00f10f20002cfd070000322000cb06070034
:10361c00004180000001780000002800010020001b
:10362c0025fd070000322000c40607000041800081
:10363c0000017800f00f2000010020001efd0700a3
:10364c0000322000bd060700004180000001780018
:10365c0000f02f00f10f200017fd070000322000b2
:10366c00b6060700001020000041880000418000d1
:10367c000001780000f02f00f10f20000efd070074
:10368c0000322000ad060700f03f2000004188000a
:10369c00004180000001780000f02f00f10f2000a5
:1036ac0005fd070000322000a40607000041800041
:1036bc00000178006000b800fffc0700f03f20001c
:1036cc0000418800401f20009c0607000080fa0083
:1036dc00000006000000fa00103380000080a100fa
:1036ec0010338800303380000080a1003033880014
:1036fc00103380000090a10010338800303380001c
:10370c000090a100303388006206a9006226a9004f
:10371c008ae6a900713f800000f82f00008060004d
:10372c00d000b300703f8800713f8000f00f28007c
:10373c008080600000e0200001007000703f880075
:10374c00513f8000f00f28008080600000f02000c6
:10375c0001007000503f8800f03f2000a01188004d
:10376c00f03f2000f0118800f03f2000401288004c
:10377c0090118000f001b3009011880032e2a90092
:10378c008111800000c021000100700080118800b0
:10379c008111800080ff2f00008060006000b3006a
:1037ac008011880032c2a800e0118000f001b30043
:1037bc00e01188003ce2a900d111800000c021007a
:1037cc0001007000d0118800d111800080ff2f0003
:1037dc00008060006000b300d01188003cc2a800db
:1037ec0030128000f001b3003012880046e2a900cc
:1037fc002112800000c021000100700020128800fe
:10380c002112800080ff2f00008060006000b30058
:10381c002012880046c2a8003622ef004022ef009a
:10382c004a22ef00f03f200000418800d3fc070043
:10383c00803e2000410607000efd0700803e200060
:10384c003e06070038fd0700803e20003b060700bf
:10385c0086fd0700803e200038060700e0fd0700cb
:10386c00803e20003506070005fe0700803e200044
:10387c003206070064fe0700803e20002f0607007a
:10388c00c4fe0700803e20002c060700eefe070059
:10389c00803e20002906070027ff0700803e2000fd
:1038ac002606070050ff0700803e20002306070075
:1038bc0080bb200021060700dcff37000200fa0065
:1038cc0021338000008020000080600000f0a70001
:1038dc000000ea000000e9004f00de00004f780015
:1038ec0012c8bf009e40780080cf500013003200f9
:1038fc00890607000001be00a0408000b140800096
:10390c00000151008181590080012000010020003c
:10391c00800f5100818f59000b0036001e4178003a
:10392c00218120008248780012c8bf000004e0000a
:10393c000500320010c0b300040037007606070003
:10394c00a0408800b14088000040eb000080fa00e5
:10395c00000006000200fa00213380000000210064
:10396c000080600000f0a7000000ea000000e90001
:10397c004f00de00004f78000cc8bf009e4078005e
:10398c0080cf500013003200630607000001be0018
:10399c0070408000814080000001510081815900fd
:1039ac008001200001002000800f5100818f590000
:1039bc000b0036001e417800c18020008248780040
:1039cc000cc8bf000004e0000500320010c0b300ba
:1039dc0004003700500607007040880081408800c2
:1039ec000040eb000080fa00000006000200fa0024
:1039fc0021338000008020000080600000f0a700d0
:103a0c000000ea000000e9004f00de00004f7800e3
:103a1c0006c8bf009e40780080cf500014003200d2
:103a2c003d0607000001be00404080005140800070
:103a3c00000151008181590080012000010020000b
:103a4c00800f5100818f59000c0036001e41780008
:103a5c00618020008248780006c8bf000004a200e4
:103a6c000004e0000500320010c0b3000400370071
:103a7c002906070040408800514088000040eb00b8
:103a8c000080fa00000006000200fa0021338000da
:103a9c00000021000080600000f0a7000000ea0098
:103aac000000e9004f00de00004f780000c8bf00a6
:103abc009e40780080cf500014003200160607009c
:103acc000001be0010408000214080000001510028
:103adc00818159008001200001002000800f5100dd
:103aec00818f59000c0036001e41780001802000a7
:103afc008248780000c8bf000004a2000004e00067
:103b0c000500320010c0b3000400370002060700a5
:103b1c0010408800214088000040eb000080fa0033
:103b2c00000006000600fa00000f7800110798004c
:103b3c00220798001e007800f13f2000810f5000f2
:103b4c0001003600f03f2000b01188001e009000ec
:103b5c00f13f2000810f500001003600f03f2000a3
:103b6c00001288002e009000f13f2000810f5000c1
:103b7c0001003600f03f2000501288000080fa004f
:103b8c00000006000800fa00000f780011079800ea
:103b9c002207980033079800f03f20009e00780021
:103bac00808f500003003e001e0078008000eb0068
:103bbc0002003700f03f2000010020003e01900081
:103bcc008001eb00028ab90004027800009bb90066
:103bdc0086027800050242000200b8000102420091
:103bec00840078000020b0000180b0004609dd00a0
:103bfc004a00de0000007100ca08de0000007800f8
:103c0c00b01188009e009000f03f2000808f500083
:103c1c0003003e001e0090008000eb000200370005
:103c2c00f03f2000010020003e0190008001eb00dd
:103c3c00028ab90004027800009bb9008602780061
:103c4c00050242000200b800010242008400780024
:103c5c000020b0000180b0004609dd004a00de0003
:103c6c0000007100ca08de00000078000012880015
:103c7c00ae009000f03f2000808f500003003e000b
:103c8c002e0090008000eb0002003700f03f200077
:103c9c00010020003e0190008001eb00028ab90077
:103cac0004027800009bb9008602780005024200ed
:103cbc000200b80001024200840078000020b0002d
:103ccc000180b0004609dd004a00de0000007100f2
:103cdc00ca08de0000007800501288000080fa004c
:103cec00000006000600fa00008fbe0022079800b4
:103cfc009e007800f00f200000806000c200dd0004
:103d0c001e017800f00f2000000061004600de006c
:103d1c00010170001e00be00c809dd004800de0075
:103d2c0000807100c808de0080007800f00f2000d1
:103d3c0000806000c201dd001e00be00480add00ec
:103d4c004800de0000007200c808de008000780029
:103d5c00f00f2000008060004600de0003027000bf
:103d6c001e00be004008de0080007800f00f20002e
:103d7c0000806000c201dd001e00be004008de00b5
:103d8c0080007800f00f2000008060004600de000c
:103d9c0003007000ae0190008400780079ff0700ea
:103dac000080fa00000006000000fa0080a4200049
:103dbc000080fa00000006000800fa00faff070075
:103dcc00000f78001e007800104078000004e0001e
:103ddc0067003a00880507005405070080c0b3004f
:103dec00204798000000eb00200798000000eb0033
:103dfc00300798000e80e800830307001033800022
:103e0c0000b0a000103388001033800000c0a00068
:103e1c0010338800103380000080a100103388001c
:103e2c00303380000080a1003033880010338000d4
:103e3c000090a10010338800303380000090a10066
:103e4c00303388006206a9006226a9008ae6a90020
:103e5c00713f800000f82f0000806000d000b3009c
:103e6c00703f8800713f8000f00f28008080600058
:103e7c0000e0200001007000703f8800513f80007e
:103e8c00f00f28008080600000f02000010070001e
:103e9c00503f8800f03f2000a0118800f03f200028
:103eac00f0118800f03f2000401288009011800033
:103ebc00f001b3009011880032e2a900811180005a
:103ecc0000c0210001007000801188008111800069
:103edc0080ff2f00008060006000b300801188001c
:103eec0032c2a800e0118000f001b300e01188009c
:103efc003ce2a900d111800000c02100010070003b
:103f0c00d0118800d111800080ff2f00008060004c
:103f1c006000b300d01188003cc2a80030128000b1
:103f2c00f001b3003012880046e2a9002112800093
:103f3c0000c02100010070002012880021128000b6
:103f4c0080ff2f00008060006000b300201288000a
:103f5c0046c2a8003622ef004022ef004a22ef00b2
:103f6c001e00780011c0b300014878000100370032
:103f7c00000000000080fa00000006000400fa00b7
:103f8c00000f7800110798001e0078004048900040
:103f9c000004e000090032001e0078004040900050
:103fac000080fb009e007800630040000000400091
:103fbc00008040009e009000010878000080fa000c
:103fcc00000006000600fa00100798002107980070
:103fdc001e009000404890000004a2000004e00085
:103fec000d0032001e009000404090000080fb004d
:103ffc009e0090006300400000004000610f7800bc
:10400c002e0090009e0f500003003a001e009000fe
:10401c0011c0b300414898000080fa00000006006f
:10402c000400fa00000f7800110798001e007800b9
:10403c00404890000004e000020032001e00900096
:10404c00070037001e007800404090000080fb0005
:10405c009e00780063004000000040006100780082
:10406c000080fa00000006000200fa00000f780041
:10407c001e007800404090000080fb008000e800ab
:10408c003000200000017800110009008200d800e7
:10409c008000fd00804078001e00780041409800b0
:1040ac001e0078008040eb00414898000080fa0028
:1040bc00000006000600fa00889fbe00200798004a
:1040cc0031030700008fbe002e00900050009000be
:1040dc008000eb0056f107001e01be004af20700fb
:1040ec0038f10700800478002e009000400090000a
:1040fc008000eb004ef107001e01be0042f20700eb
:10410c0030f10700000478002e0090003000900081
:10411c008000eb0046f107001e01be003af20700da
:10412c0028f1070000007800090178008800780069
:10413c007cfe07004f04be000080fa000000060061
:10414c000600fa002007980002030700000f780011
:10415c0000fe07000004e000050032009e0078001d
:10416c002e00900085ff07002e009000beff070078
:10417c009e0078002e00900092ff07009e007800b1
:10418c002e009000a6ff0700100798009e007800f4
:10419c002e00900079ff07002e0090004040900008
:1041ac000080fb00c200dd00a0bc280000804000a5
:1041bc001000be001e019000cafe07000080fa002d
:1041cc00000006000200fa00f7fe0700000f78005e
:1041dc002133800000802000008060000000e0009f
:1041ec0005003a00303380000080a0003033880096
:1041fc003033800004003700303380000080a10091
:10420c0030338800303380002133800000002100df
:10421c00008060000000e00005003a0030338000b0
:10422c000090a00030338800303380000400370049
:10423c00303380000090a100303388003033800090
:10424c009efd07000004e000100032001e00780004
:10425c0010009000e10f500004003a00bd0207006e
:10426c00800078001e00780044ff07001e007800d4
:10427c001000900000f0a7000000ea000000e90028
:10428c004f00de009e007800900098001e00780021
:10429c00100090000000e00003003a001e007800bf
:1042ac0084ff0700020037001e007800a4ff0700ff
:1042bc000080fa00000006000200fa00000f7800ef
:1042cc00c00520009e007800808f50000400320052
:1042dc00d00520009e007800808f500009003a0025
:1042ec00c00520009e007800808f500002003a002c
:1042fc0010c0b3000100370020c0b30018e8b700ad
:10430c00010037001868ef000080fa00000006007a
:10431c000200fa00004f78001147980009010700cd
:10432c000004a2000004e000020032000080eb0058
:10433c000c0037001e407800d0020700004f7800b8
:10434c001e409000cd02070010479800b7020700ee
:10435c001e80fb00c800dd001e4090000080fb00aa
:10436c00010070000080fa00000006000200fa0054
:10437c0020c3b300004f780012c0b3008e00780049
:10438c00000a20006600070000c2b300004f78004e
:10439c0012c0b3008e007800100a200060000700e5
:1043ac000080fa00000006000000fa000041eb005b
:1043bc008000eb00c0052000590007008f26a900e3
:1043cc008e66a8000080fa00000006000000fa00cb
:1043dc000041eb008000eb00d005200050000700ee
:1043ec008f26a9008e66a8000080fa000000060047
:1043fc000800fa0000017800310798003e00900098
:10440c004800de00004f78003e00900010479800f6
:10441c001e80fb004300de0000407800204798001f
:10442c001e80fb00670060004300dd0080407800c8
:10443c001e4090000080fb004500de00004078002c
:10444c0000c07000304798001e4090007f40600014
:10445c00404798000e80e800820078009048780071
:10446c008100e8000000e800904878008100e80036
:10447c000000e800904878008100e8000000e800a7
:10448c00020078000080fa00000006000600fa0026
:10449c002047980031479800424798002e409000e2
:1044ac007f406000204798003e409000f043b200ef
:1044bc00304798004e4090007f4060004047980085
:1044cc002e4090000080fb004300dd00804078000f
:1044dc003e4090000080fb004300de00004078006e
:1044ec0000c07000004f78003e4090000080fb0040
:1044fc004500dd00804078004e40900000c0700008
:10450c00104798001e80fb00c800dd001e40900084
:10451c000080fb00010070000080fa000000060023
:10452c000600fa00000f7800110798004247980027
:10453c00840007000004a2000004e00014003a000c
:10454c008f26a9008e66a9001e0078000040780016
:10455c004a0207004e4090000004e00007003200c1
:10456c008e66a8004e4090000080fb008000780012
:10457c001e009000670207008e66a9008f26a80017
:10458c002a0207001e0078004bff070001003700cd
:10459c00000000000080fa00000006000400fa0091
:1045ac0020479800314798002e409000f1c5b30089
:1045bc00814f500001003600f0c5b300004f780069
:1045cc003e409000f1c5b300814f50000100360011
:1045dc00f0c5b3001047980022c0b3008e007800dd
:1045ec0050072000ceff07000080fa0000000600f4
:1045fc000400fa0020479800314798002e409000a4
:10460c00f1c5b300814f500001003600f0c5b30076
:10461c00204798003e409000f1c5b300814f5000f8
:10462c0001003600f0c5b300304798002e409000d2
:10463c0070404000004f78003e40900070404000b9
:10464c001047980022c0b3008e0078005001200063
:10465c00b3ff07000080fa00000006000200fa0019
:10466c00004f78001e4078000004e0000200320089
:10467c00e00a200001003700f00a20000041eb00a6
:10468c008000eb00a6ff07000080fa000000060087
:10469c000000fa0018c8bf00e24f500001003200c1
:1046ac004aff070018c8bf00e24f5000020032005a
:1046bc000080eb000300370080c0eb0000c0eb0073
:1046cc0013ff07000080fa00000006000400fa0047
:1046dc00004f780011479800224798002e41900017
:1046ec009e4090001e40780068ff07000200070003
:1046fc000080fa00000006000200fa00000f7800ab
:10470c0018c8bf00e14f50000100320026ff07001f
:10471c0018c8bf00e14f500007003a001e00780097
:10472c00804078001e0078004800de0000407800d1
:10473c00f7fe070001003700000000000080fa00bf
:10474c00000006000000fa00bc0107000080fa001f
:10475c00000006000000fa0063a6a90077a6a900d5
:10476c0077e6a9008a26a9008a66a9008b06a9000b
:10477c008b26a9008f06a90067a6a8008e26a90083
:10478c00100020006d02070067a6a9002000200081
:10479c007b02070067a6a8008f06a8001000200067
:1047ac00660207000040eb00acff0700800c200005
:1047bc0062020700f1c5b3000040eb008cff07005c
:1047cc00f1c5b3000040eb0074ff0700e7fe0700e3
:1047dc000080fa00000006000200fa0001c6b300d7
:1047ec000040eb0082ff070001c6b3000040eb0065
:1047fc006aff07000040eb00004f78000d00370007
:10480c000040eb001047980005003700d0408000b6
:10481c00b9ff07001e4090000040e80010479800c8
:10482c009e409000f0c5b30080cf5000f7ff3600db
:10483c001e4fe800f0c5b3009e40780080cf5000ba
:10484c00efff36000080fa00000006000200fa00bc
:10485c00000f78009e007800d1408800deff070032
:10486c000080fa00000006000000fa00d040800032
:10487c000080fa00000006000200fa00000f780029
:10488c000080fa00000006000200fa000040eb0075
:10489c00004f78000d0037001e80fb00c400dd00c7
:1048ac0060832000008040008040eb0001487800cd
:1048bc001e80fb00c400dd00a082200000804000b0
:1048cc0021442200010878001e4fe8001e407800a9
:1048dc00ff4f5000f0ff36000080fa000000060089
:1048ec000400fa0020479800ae409000014f780079
:1048fc000e0037001e80fb009e80fb008100e8004c
:10490c004401dd0080822000000041004409dd00ec
:10491c0081822000810041000700090031187800d5
:10492c000001b1000101b1001e4fe8001e407800eb
:10493c00fe4f5000efff360060a220008040eb00dd
:10494c00014878000080fa00000006000200fa001e
:10495c00004f78001e40780001c2b300814f500018
:10496c000100360000c2b300004f78001e80fb002f
:10497c00c400dd0080822000008040000080fa002e
:10498c00000006000a00fa00404798003107980022
:10499c00420798004e409000ff4f50000100360037
:1049ac00f0c1b30040479800f0c1b300004f78004d
:1049bc000e0037001e80fb009e80fb008100e9008a
:1049cc004401dd0080822000000041004409dd002c
:1049dc008182200081004100070009003118780015
:1049ec000001b1000101b1001e4fe9004e409000e2
:1049fc009e40780080cf5000030036001e407800a7
:104a0c000004e000ebff3a004e4090000080fb00f9
:104a1c00c400dd0080822000008040001007980058
:104a2c001e019000ce0090003e0090007cf3070029
:104a3c000080fa00000006000200fa00004f780027
:104a4c001e80fb004400dd008080e8008082200096
:104a5c0000804000900078001e80fb004401dd00c7
:104a6c008082200000004100010001000080fa005b
:104a7c00000006000200fa00004f78009e4078000b
:104a8c000040eb00090007000080fa00000006005f
:104a9c000200fa00004f780001c2b3001e407800fb
:104aac00020007000080fa00000006000400fa0073
:104abc0020479800314798003e40900001c2b30057
:104acc00814f50000100360000c2b30030479800ff
:104adc00ae409000014f7800140037001e80fb00a0
:104aec004400dd00ee004000808220000080400089
:104afc00104078000004e0000b0032001e80fb0028
:104b0c004400dd008080e8008082200000804000ae
:104b1c00900078001e80fb004401dd0080822000a4
:104b2c0000004100010001001e4fe8003e409000d3
:104b3c009e40780080cf5000e8ff39000080fa00da
:104b4c00000006000800fa00404798003107980062
:104b5c004e4090007dff0700000f78001e0078008b
:104b6c00a0009000110798001e007800be00900075
:104b7c00210098001e007800900090001e00780024
:104b8c00010001001e0078009e009000210098009a
:104b9c000080fa00000006000400fa0010079800dc
:104bac000040eb00004f78000c0037001e80fb002b
:104bbc004400dd00ee0040008082200000804000b8
:104bcc00104078000004e000030032009e009000ca
:104bdc001e407800dbff07001e4fe8001e407800e7
:104bec00ff4f5000f1ff36000080fa000000060075
:104bfc000000fa0001c2b3000040eb00abff07005d
:104c0c000080fa00000006000200fa00000f780095
:104c1c001e0078001001be00b2528800c3528800fa
:104c2c00a0019000d352880047e7a90060a520009e
:104c3c0010407800ef4f500012003e0060a520009d
:104c4c00104078000080fb00110020000008dd00ff
:104c5c0080007800b033800001007000b033880011
:104c6c0060a52000104078000080fb00110020009f
:104c7c000008dd0080007800f03380000100700037
:104c8c00f0338800613a8000f0f12f000080600062
:104c9c00603a880060a52000104078007f406000da
:104cac000080fb007f006000623a800001fe2f0054
:104cbc008100610001007000603a8800313a800088
:104ccc00f0f02f00808060000007200001007000d1
:104cdc00303a88004647a900d0528000e10f5000be
:104cec0006003a00313a8000f0cf2f0000806000bf
:104cfc000090a000303a880004003700313a800060
:104d0c00f0cf2f0000806000303a8800c052800045
:104d1c000000e00002003a004747a90001003700fc
:104d2c004747a8004827ef004be7a900513a8000fd
:104d3c00f00f2e000080600000c0a000503a8800e8
:104d4c0020c0b3004ae7b70047e7a8000080fa008c
:104d5c00000006000000fa004627a800a000200072
:104d6c00070107004627a90000000000303a800028
:104d7c00610060000000e000fcff32009038800011
:104d8c000080fa00000006000200fa00f1ff0700a4
:104d9c00000f7800c05280000000e00011003a00c3
:104dac00d0528000e10f500007003a001e0078003e
:104dbc008000eb001eee070002002c00f3472400dd
:104dcc0032ee0700170037001e0078008000eb0061
:104ddc0017ee070002002c00f34724002bee07000f
:104dec0010003700d0528000e10f500007003a004d
:104dfc001e0078008000eb000dee070002002f0073
:104e0c00f357240021ee0700060037001e0078003f
:104e1c008000eb0006ee070002002f00f357240081
:104e2c001aee07000080fa00000006000000fa00ed
:104e3c00f5e3a9000080fa00000006000000fa006b
:104e4c00a11f800000002800008060000000e0002e
:104e5c0007003a0000122000a01f88000424ef0075
:104e6c0077e6a900f5e3a80010c0b30001003700f5
:104e7c000040eb000080fa00000006000200fa007f
:104e8c00004f78001e80fb0000208800000000000e
:104e9c00e01f8000610060000000e000fcff3200b9
:104eac0000208000004078000080fa00000006001e
:104ebc000600fa0010079800210798009e00900049
:104ecc00010f7800060037001e00780010407800b3
:104edc00eaff07009e007800804878001e0fe8006b
:104eec002e00900000f0a7000000ea000000ea008d
:104efc004f00de0000407800ae0090008100e90019
:104f0c00210798000004e000efff3a000080fa004f
:104f1c00000006000600fa00100798002107980010
:104f2c009e009000010f7800040037001e007800ee
:104f3c00104078001e0fe800d0ff07002e009000f4
:104f4c0000f0a7000000ea000000ea004f00de00bd
:104f5c0000407800ae0090008100e9002107980025
:104f6c000004e000f1ff3a000080fa0000000600a7
:104f7c000600fa0010079800210798009e00900088
:104f8c00010f7800050037000040eb00bbff070065
:104f9c009e007800804878001e0fe8002e009000dc
:104fac0000f0a7000000ea000000ea004f00de005d
:104fbc0000407800ae0090008100e90021079800c5
:104fcc000004e000f0ff3a000080fa000000060048
:104fdc000200fa00004f78001e80fb0000208800c1
:104fec000080fa00000006000000fa00002080009b
:104ffc00004078000080fa00000006000000fa0073
:10500c007104800000402000008060000000e0007f
:10501c0006003200104180000000e0000200320067
:10502c0010418000000001008f40a9000080fa00b0
:10503c00000006000200fa00000f78009e007800c5
:10504c00114188000080fa00000006000000fa0000
:10505c006626ef007a26ef008e26ef0070f9250009
:10506c0010338800f0ff2300b0338800500f20006d
:10507c00503488007426ef008826ef009c26ef0041
:10508c007226ef008626ef009a26ef006826ef00c6
:10509c007c26ef009026ef00700020005033880033
:1050ac00c0202100f033880050002000903488008c
:1050bc0001088000f00b20000081600060042000db
:1050cc007105200003102000804978008149780088
:1050dc0082497800113f800000f82f0000806000aa
:1050ec007000b300103f8800113f8000f00f2800c3
:1050fc000080600000b0a000103f8800c13d80001f
:10510c0000fc2f0000806000d000b300c03d880080
:10511c0000088000000178000260a00060042000fc
:10512c007105200003102000804978008149780027
:10513c00824978000080fa00000006000200fa00a4
:10514c00000f78000300370000fa20000100200057
:10515c008f0007001e00780000f0a7000000ea0096
:10516c000000ea004f00de00004078001e0fe9004e
:10517c000004e000f4ff3a000080fa000000060092
:10518c000200fa00000f780005003700000820002c
:10519c00010020007e00070001fe2f001e8f400042
:1051ac001e007800ff0f5000f8ff3e000300370090
:1051bc004000200001002000750007001e00780050
:1051cc0000f0a7000000ea000000ea004f00de003b
:1051dc00004078001e0fe9000004e000f4ff3a00e4
:0851ec000080fa00000006003b
:020000040000fa
:1051f400560a00000600000080000000200800009d
:105204000200000082000000ff03000018080000f4
:1052140004000000800000002808000000020000d4
:10522400800000002208000002000000800000004e
:10523400280a00002000000080000000240800006c
:105244000200000082000000ffff00001c080000b4
:105254000400000080000000480a00000e00000066
:1052640082000000000000000000000000000000b8
:105274000000000001000000000800001800000009
:1052840080000000260800000200000080000000ea
:045294000000000016
:020000040000fa
:105298000000fa0000002300100888000621ef0033
:1052a8006821ef006a21ef000821ef00007020005c
:1052b800500888000c21ef000e21ef007821ef0044
:1052c8007a21ef007c21ef007e21ef008021ef00a2
:1052d8008221ef008421ef008621ef000001eb001e
:1052e80080072000a10920001310200080497800c1
:1052f80081497800824978000001eb0060042000b1
:105308007105200003102000804978008149780049
:10531800824978000080fa00000006000000fa00c8
:10532800e0408000f14080000080fa0000000600a4
:105338000000fa0095e1a90095a1a90094c1a9006f
:10534800a10c80000003200001007000a00c880060
:105358009421a900f0012000900c88009021ef0012
:1053680041058000f0ff28000080600000c0a00018
:10537800400588008860a9009860a80083e0a8001c
:10538800000000000000000095e1a8000080fa007d
:04539800000006000b
:020000040000fa
:10539c00f03fb1000180b10006003500ee030900ba
:1053ac0000000000403fb1000180b100fbff3d0058
:1053bc001000b000203fb000020035000080090052
:0853cc000000000000000600d3
:020000040000fa
:1053d4000200fa00000f78009e0078002141880046
:1053e400ffff37000000fa0080a220008007780049
:1053f40000a42000000188000080fa0000000600dc
:105404000000fa0013ff0700a2ff0700d3fc070007
:105414000080fa00000006000000fa0068fa0700a5
:085424006afb0700feff3700e0
:020000040000fa
:020000040005f5
:045e0000ffffff00a1
:020000040000fa
:020000040005f5
:045e2000ffffff0081
:020000040000fa
:020000040005f5
:045e300078ffff00f8
:020000040000fa
:020000040005f5
:045e38004bffff001d
:020000040000fa
:020000040005f5
:045e40009fffff00c1
:020000040000fa
:020000040005f5
:045e4800ffffff0059
:020000040000fa
:020000040005f5
:045e5000deffff0072
:020000040000fa
:020000040005f5
:045e5800ffffff0049
:00000001FF
