:020000040000fa
:080000000001040000000000f3
:020000040000fa
:0400080028020000ca
:020000040000fa
:04000c006a02000084
:020000040000fa
:04001000aa02000040
:020000040000fa
:04001400480200009e
:020000040000fa
:040018008a02000058
:020000040000fa
:04001c00fa020000e4
:020000040000fa
:04002000fa020000e0
:020000040000fa
:04002400fa020000dc
:020000040000fa
:04002800fa020000d8
:020000040000fa
:04002c00fa020000d4
:020000040000fa
:04003000fa020000d0
:020000040000fa
:04003400ca020000fc
:020000040000fa
:04003800fa020000c8
:020000040000fa
:04003c00fa020000c4
:020000040000fa
:04004000fa020000c0
:020000040000fa
:04004400e2020000d4
:020000040000fa
:04004800fa020000b8
:020000040000fa
:04004c00fa020000b4
:020000040000fa
:04005000fa020000b0
:020000040000fa
:04005400fa020000ac
:020000040000fa
:04005800fa020000a8
:020000040000fa
:04005c00fa020000a4
:020000040000fa
:04006000fa020000a0
:020000040000fa
:04006400fa0200009c
:020000040000fa
:04006800fa02000098
:020000040000fa
:04006c00fa02000094
:020000040000fa
:04007000fa02000090
:020000040000fa
:04007400fa0200008c
:020000040000fa
:04007800fa02000088
:020000040000fa
:04007c00fa02000084
:020000040000fa
:04008000fa02000080
:020000040000fa
:04008400fa0200007c
:020000040000fa
:04008800fa02000078
:020000040000fa
:04008c00fa02000074
:020000040000fa
:04009000fa02000070
:020000040000fa
:04009400fa0200006c
:020000040000fa
:04009800fa02000068
:020000040000fa
:04009c00fa02000064
:020000040000fa
:0400a000fa02000060
:020000040000fa
:0400a400fa0200005c
:020000040000fa
:0400a800fa02000058
:020000040000fa
:0400ac00fa02000054
:020000040000fa
:0400b000fa02000050
:020000040000fa
:0400b400fa0200004c
:020000040000fa
:0400b800fa02000048
:020000040000fa
:0400bc00fa02000044
:020000040000fa
:0400c000fa02000040
:020000040000fa
:0400c400fa0200003c
:020000040000fa
:0400c800fa02000038
:020000040000fa
:0400cc00fa02000034
:020000040000fa
:0400d000fa02000030
:020000040000fa
:0400d400fa0200002c
:020000040000fa
:0400d800fa02000028
:020000040000fa
:0400dc00fa02000024
:020000040000fa
:0400e000fa02000020
:020000040000fa
:0400e400fa0200001c
:020000040000fa
:0400e800fa02000018
:020000040000fa
:0400ec00fa02000014
:020000040000fa
:0400f000fa02000010
:020000040000fa
:0400f400fa0200000c
:020000040000fa
:0400f800fa02000008
:020000040000fa
:0400fc00fa02000004
:020000040000fa
:04010000fa020000ff
:020000040000fa
:04010400fa020000fb
:020000040000fa
:04010800fa020000f7
:020000040000fa
:04010c00fa020000f3
:020000040000fa
:04011000fa020000ef
:020000040000fa
:04011400fa020000eb
:020000040000fa
:04011800fa020000e7
:020000040000fa
:04011c00fa020000e3
:020000040000fa
:04012000fa020000df
:020000040000fa
:04012400fa020000db
:020000040000fa
:04012800fa020000d7
:020000040000fa
:04012c00fa020000d3
:020000040000fa
:04013000fa020000cf
:020000040000fa
:04013400fa020000cb
:020000040000fa
:04013800fa020000c7
:020000040000fa
:04013c00fa020000c3
:020000040000fa
:04014000fa020000bf
:020000040000fa
:04014400fa020000bb
:020000040000fa
:04014800fa020000b7
:020000040000fa
:04014c00fa020000b3
:020000040000fa
:04015000fa020000af
:020000040000fa
:04015400fa020000ab
:020000040000fa
:04015800fa020000a7
:020000040000fa
:04015c00fa020000a3
:020000040000fa
:04016000fa0200009f
:020000040000fa
:04016400fa0200009b
:020000040000fa
:04016800fa02000097
:020000040000fa
:04016c00fa02000093
:020000040000fa
:04017000fa0200008f
:020000040000fa
:04017400fa0200008b
:020000040000fa
:04017800fa02000087
:020000040000fa
:04017c00fa02000083
:020000040000fa
:04018000fa0200007f
:020000040000fa
:04018400fa0200007b
:020000040000fa
:04018800fa02000077
:020000040000fa
:04018c00fa02000073
:020000040000fa
:04019000fa0200006f
:020000040000fa
:04019400fa0200006b
:020000040000fa
:04019800fa02000067
:020000040000fa
:04019c00fa02000063
:020000040000fa
:0401a000fa0200005f
:020000040000fa
:0401a400fa0200005b
:020000040000fa
:0401a800fa02000057
:020000040000fa
:0401ac00fa02000053
:020000040000fa
:0401b000fa0200004f
:020000040000fa
:0401b400fa0200004b
:020000040000fa
:0401b800fa02000047
:020000040000fa
:0401bc00fa02000043
:020000040000fa
:0401c000fa0200003f
:020000040000fa
:0401c400fa0200003b
:020000040000fa
:0401c800fa02000037
:020000040000fa
:0401cc00fa02000033
:020000040000fa
:0401d000fa0200002f
:020000040000fa
:0401d400fa0200002b
:020000040000fa
:0401d800fa02000027
:020000040000fa
:0401dc00fa02000023
:020000040000fa
:0401e000fa0200001f
:020000040000fa
:0401e400fa0200001b
:020000040000fa
:0401e800fa02000017
:020000040000fa
:0401ec00fa02000013
:020000040000fa
:0401f000fa0200000f
:020000040000fa
:0401f400fa0200000b
:020000040000fa
:0401f800fa02000007
:020000040000fa
:0401fc00fa02000003
:020000040000fa
:10020000afb220000e7f24000e0188000000000025
:10021000000020000000e000020032000001200089
:100220002002880014000700f40007000000e0002e
:1002300003003a008004250001002000020037007e
:100240000000200001002000810f7000010032003a
:1002500014000700000020000000e000020032004f
:1002600000000200000000007c56020000000000b8
:100270000040da000000fe004440a900604e20006b
:100280000000e00003003200002020009001880000
:100290004440a800000006008a1f78008b1f7800e9
:1002a00000000600a1028800800478000000eb0036
:1002b0001f003700e284440054a0b4009905ba003e
:1002c000e284440054a0b4009906ba00e2844400d9
:1002d00054a0b4000006eb00476fde00fd07b2003b
:1002e000ae018800636ce10003003a00eaff0700fa
:1002f0000000eb000e003700606ce10008003a00df
:10030000004deb000a05e800020039003420ec0043
:100310000af0a0008b05e900f9ff3e000400370059
:100320006168e100010032000086eb000b0007006d
:1003300019c7ba001905ba000e04e00003003a001c
:100340000a00e000dbff3a0000000600fe07b200f2
:10035000ae0288008a047800f5ff37000cd0a300b5
:10036000e20f4d001c00390089027800354dba00bb
:100370000a05e800020039003420ec000af0a00071
:100380008b05e9000f003200254dba000a05e80090
:10039000020039003420ec000af0a0008b05e900cf
:1003a000080032000c00e0000600320015cdba0053
:1003b0000a05e800020039003420ec000af0a00031
:1003c0008b05e9008984e80054a0b4000b00e0002c
:1003d000e2ff3a00000006009902ba00055d7800cd
:1003e0008b05e900f7ff3200c82ade00055d7800c2
:1003f0008b05e900f3ff32000c00e000f1ff320052
:1004000019ddba00eeff3700884504000000000047
:1004100022210400000000003c2104000000000034
:100420005a210400000000007821040000000000b0
:100430009a21040000000000bc210400000000001c
:10044000de210400000000000c2104000000000078
:100450003600f800809fbe00829fbe00849fbe00d1
:10046000869fbe000000fa008020a9000000eb007b
:10047000f72907000080fa004f03be004f02be00bc
:100480004f01be004f00be003600f90000400600dc
:100490003600f800809fbe00829fbe00849fbe0091
:1004a000869fbe000000fa00f02907008040a900e6
:1004b00010002000e62907000080fa004f03be006c
:1004c0004f02be004f01be004f00be003600f900d3
:1004d000004006003600f800809fbe00829fbe00ec
:1004e000849fbe00869fbe000000fa008060a900c5
:1004f00020002000d62907000080fa004f03be002c
:100500004f02be004f01be004f00be003600f90092
:10051000004006003600f800809fbe00829fbe00ab
:10052000849fbe00869fbe000000fa008080a90064
:1005300030002000c62907000080fa004f03be00eb
:100540004f02be004f01be004f00be003600f90052
:10055000004006003600f800809fbe00829fbe006b
:10056000849fbe00869fbe000000fa008600a9009e
:1005700070002000b62907000080fa004f03be007b
:100580004f02be004f01be004f00be003600f90012
:1005900000400600809fbe000000fa00c0408000be
:1005a000d140800061004000e0804800c0408800e9
:1005b000d14088008860a9000080fa004f00be008a
:1005c00000400600809fbe000000fa00e04080006e
:1005d000f140800061004000e0804800e040880079
:1005e000f140880088e0a9000080fa004f00be00ba
:1005f000004006000040da000000fe000000050098
:100600006011b800920137006022b8000602200095
:100610000000d0008180d2000482d2008582d20006
:100620000000a0000202520083825a000300310041
:100630000202420083824a000000a1000603e90092
:10064000f3ff3a0000000600efff07000400be00c1
:1006500000000600889fbe008a9fbe008c9fbe00df
:100660001b0020000202be0005866800060028006c
:10067000060666004709de00f20fb2008200320073
:100680000243e80080003200c729de00f30fb20009
:100690007d0032000343e8007b003200f107b20026
:1006a0000170a000f507b2000570a000c708dd00ca
:1006b0004903de00868070004700dd00c72add00a8
:1006c0004923de00868272004722dd0003055100c7
:1006d00004035000858358000300310000004000ef
:1006e000818048000a05e9008c1f78008a9fbe00bf
:1006f00004005000858058000402420085824a00b0
:1007000000004000818048000005eb000004be00ae
:100710006033b8000406be000d48e1005600310009
:10072000110009004dccd8000c01b8000d02b80032
:100730008481410060824a008283530003045c008c
:1007400084845c0060055d000a00e00025003a003a
:10075000800578000d40e1004900310088007800f4
:1007600007007800110009004d88d8000c01b8007e
:100770000d02b8008481410060824a0060031100cc
:1007800083835b0004045c00e0845c000900e000fb
:1007900021003a004f01be000300e0002b003200b0
:1007a000e3016000070673008c81710001003200d4
:1007b000640070004200de004e5edd000c00700040
:1007c000c258de0001e0a0009b000700cf017800c6
:1007d000818071004f06be004f05be004f04be0071
:1007e000000006008c8343000d044c00e0844c00a4
:1007f00060054d000000e9000a00e000d4ff32006f
:100800008c8343000d044c00e0844c0060054d00d7
:100810000000e900ceff37000c0343008d834b003e
:1008200060044c00e0844c000000e9000900e00096
:10083000d8ff32000c0343008d834b0060044c0052
:10084000e0844c000000e900d2ff37004200de00e7
:100850004e5edd000c007000c258de0001e0a0001a
:10086000cf0178000300e000daff320060001000e2
:10087000e0801800d7ff3700f0ff2f00aaff3700f5
:10088000f0ff2f00b9ff37000404be00500007003e
:10089000870678000004fd008104fd004c0007007d
:1008a000078366000678a300030032000960a700f2
:1008b0000800be002c0037000d78a30002003200b3
:1008c0000800be00280037000778a30026003a0081
:1008d00001f0a10009f0a1000668a30003003200a6
:1008e000f1ff2700f0ff2f00baff37000d68a300cb
:1008f000030032000800be008c807000b5ff370096
:100900000768a30007003a000648a300030032006e
:10091000f1ff2700f0ff2f00aeff37000d48a300c6
:10092000030032006000b8008c807000a9ff37001f
:100930000748a3000400320001f82700000020004f
:100940008c807000a3ff37008e0007000004fd00bc
:100950008104fd00020578008a0007000802be003d
:100960008a01780059ff37000160a00012022000c0
:100970009242880097ff37000100e0001200320029
:100980000500e00010003200889fbe008a9fbe0074
:100990008c9fbe000006eb0001f8a30003003200ac
:1009a00060001000e08018000cf0a00005f8a30023
:1009b0000300320060021200e0821a000cf0a20074
:1009c0008005eb0041ff37006000b8000200050021
:1009d0002700200001f0a70017002000470bde00d1
:1009e000f60fb200040032000643e8000a003200ad
:1009f0004702b3000000060001037800f607b200ca
:100a00000603700002003a000703b300000006006e
:100a10008702b3000000060001037800f607b20069
:100a200006037000020032000770a00000000600fc
:100a30000760a0000000060081017000270032005e
:100a40008002eb0001f8a3000300320060001000f8
:100a5000e080180015002000f40720000202420088
:100a600020003400f7032000870360000604200004
:100a70000003630002082000000161004700de005f
:100a8000c909dd0000807100c708de000600e00033
:100a90000800320087037100060032001000b00029
:100aa0000180b0000188a30002003200c108de000e
:100ab0000402e800f107b200f30f20000320e10078
:100ac00003003d004722dd0081007200290037004d
:100ad00001f827000000eb00260037006000b80096
:100ae00000000600680212007f20e10002003400ce
:100af0006000b8001f0037006011b8007020e100ee
:100b00000400350080017800010078008000eb00cf
:100b1000700252000400e00009003400f0031200eb
:100b20000719dd008419de000703dd0086817100ee
:100b30000400de00070bdd00060070008408de0004
:100b4000f7ff2700838363008703710006002800f6
:100b500003036300070032000700e00003003a00cf
:100b60006101600002817300020032001000b000d9
:100b70000180b0000500a6000000060001f0a00002
:100b8000000006004f0ade004709de00f107b20050
:100b9000f20fb2000b003200f207b1000170a000aa
:100ba000c708dd00c901de00838070004700dd005a
:100bb0000400a6000000060060001000e08018009d
:100bc00000000600810f700001003a0000000600de
:100bd0008182cf000500e00010003e008082cf003f
:100be000ee8242007028e1000400390007003e0058
:100bf000800078000000eb000e00370070831200c8
:100c00008600de000500dd000a0037007083520018
:100c10008600dd000000eb0006003700e282520093
:100c20008508dd00708312000603de0086807000f8
:100c30000500dd007507b0000501ea000400a6000c
:100c40000000060060001000e080180000000600b0
:100c5000889fbe008a9fbe0000827000040271005f
:100c600004827100260032000004be000200be00b3
:100c70006011b8006b092000950220000182cf00ae
:100c80000a0039000541b1000082cf000700390099
:100c90000541b1000982cf00040039000541b100cf
:100ca0000882cf00010039000541b1000542520021
:100cb000120032000a003b00828171006101640071
:100cc0008100d1000080d3008984d3000884d30040
:100cd0008b05e8000442e800f7ff3a000700370000
:100ce0000804440089844c000000480081804800ca
:100cf0008b05e9000442e900f9ff3a000300070010
:100d00004f05be004f04be00000006008100200019
:100d1000618055000b003d000b00200061fe2f009c
:100d20000100e1001d003400828171006101640056
:100d30008904d1000884d3000000e800faff3a00db
:100d40007100200061006400030070000200600078
:100d50000900320061044400e0844c000988a500c9
:100d6000050032008b05e8006808e10002003a0047
:100d70008904d1000884d300f20f20000258e1005a
:100d800005003d00c75ddd00f907b20089807500f0
:100d900008007800000006000bf827008b007800a0
:100da000000005000000fa0068815700cfb89700e6
:100db000460207000080fa00000006006a000700f3
:100dc000c2000700730107009b010700f400070041
:100dd0009602070041023700889fbe008a9fbe002e
:100de000800478000200e0005b00320001407800df
:100df000814c780082814400f1f99f00e20f51009c
:100e00005500360091449800a1449800e1f99f00f4
:100e1000d1f99f00e60f51004f003600b144980011
:100e2000c1f99f00e80f51004b0036000905ea00a8
:100e3000630565000a8444000a055100c1ff2f00c4
:100e4000010565000080fb008000eb00121020000f
:100e50001310200082050700008cbe000a01440028
:100e600060b99f0071b99f00e80f55003a00360045
:100e70002004980031049800400498005104980020
:100e800020b99f0031b99f0040b99f0051b99f0020
:100e9000f80f550030003600600498007104980087
:100ea000000c9800110c9800200c9800310c980050
:100eb000400c9800510c980020b19f0031b19f0068
:100ec00040b19f0051b19f0060b19f0071b19f0080
:100ed00000b99f0011b99f006401640078014100ce
:100ee00002044400020555006011b8000203be0070
:100ef0000002be000403be006022b80000007200c1
:100f0000818072000201730083817300100037003a
:100f1000009cbe000294be0040049800510498005a
:100f20006204980073049800000c9800110c98005b
:100f3000220c9800330c9800400c9800510c98003b
:100f4000620c9800730c98000a02b1000802b0000d
:100f5000ff0f5500eeff3e00090078004f05be0070
:100f60004f04be0000000600ec874700889fbe00cb
:100f70008a9fbe008c9fbe008e1f780000067800fe
:100f80000104780018079000280590009806780062
:100f9000cdb79f00b80590003202be002203be000c
:100fa0000400be000601be004f18de006011b8004c
:100fb0008000eb00d0b79f00e1b79f00f2b79f0021
:100fc00083bf9f00800478000900e0000600320023
:100fd0006000b8006011b80004025000858258001b
:100fe00006035900878359000e00e0000200350017
:100ff0000d10a100cdb79f000900e00005003a00e8
:101000004fb097000028a30002003a000038a30068
:10101000020032008a00e900010037008a007800ef
:10102000f8815700a2002000080078008600070021
:101030000900e00003003a00cfb097000128a300a8
:10104000080032000000e90000814500b1c2b30091
:101050000900e00001003200d1c2b300014978006c
:10106000050037000138a300030032000000e9004a
:1010700001c2b30081757800480190000201e900c7
:1010800000015100808045004fb297008a0178002e
:101090000c007800300207009c0090000188a3003b
:1010a0000400320098009000810f500001003d00c4
:1010b000010078004f0778004f06be004f05be00c4
:1010c0004f04be00cf00b100000006000200fa008d
:1010d000889fbe008a9fbe008005780001047800ca
:1010e0000200780018019000280590009800780010
:1010f000b1bf9f00b80490000200e000020035007c
:101100000110a100b1bf9f00ea81570082002000ba
:101110008a0078003002be002003be00080078007c
:10112000490007003fb99700f0006100030032005a
:101130000000e90001c3b300817478003fb9970053
:10114000e8006100030032000000e90001c2b300c2
:1011500081747800480190000201e900000151000b
:10116000808044003fba97008a0178000b00780025
:10117000f90107009b0090000188a30004003200e1
:1011800098009000810f500001003d0001007800a0
:101190004f05be004f04be000080fa0000000600ac
:1011a000ea874700889fbe008a9fbe008e1f780096
:1011b00000047800030078007287570084e226005c
:1011c00055c72600049fbe00c3962200030f780077
:1011d0006c875700004feb0011059000a1049000b0
:1011e000910578000200e00002003200020778005a
:1011f00001003700728757000000e00002003a004b
:101200000e007800ea0307000a00e0000300350042
:101210008a0f5000010036000a0078000b027800a7
:1012200089017800000178008e00780008007800bd
:10123000c90107004f0778004f05be004f04be00ec
:10124000af00b10000000600f4874700889fbe0091
:101250008a9fbe008c9fbe008e1f78000605be00d0
:101260000404be0081bf9f0082b79f00f3b79f00b8
:10127000b0009000e1b79f001301780092b79f0083
:1012800090069000400090000000e9000006780001
:101290000d00e00001003d001d0020008040eb003b
:1012a000efb19700817178001e0020001f00370009
:1012b0000c06e9000fb09700cf80de006109b9008d
:1012c000a0b79f00b1b79f00c2b79f00d3b79f00e0
:1012d0000203be000002be000800be000a01be00fc
:1012e00005050700000778000e4078000043b000b5
:1012f000efb0970080707e008d06e9000fb997006f
:101300000201e90082bf9f002fb29700bfb2970091
:101310004fb39700dfb397000800be000a01be007c
:10132000ee0407000205be000004be000c00e00051
:101330000d003400e00f5400e08f5c00e00f5d0012
:10134000e08f5d00daff3a000d00e000d8ff3c00be
:101350008fb997000300e000030034001fb097002e
:101360000018a300d2ff3a000e00e00002003a008d
:10137000ffb097001140a1000c0078004f077800e3
:101380004f06be004f05be004f04be004f01b10026
:10139000000006000200fa00889fbe008a9fbe007f
:1013a0000005780001047800020078001801900020
:1013b000a804900098007800b1bf9f00b805900085
:1013c0000200e000020035000110a100b1bf9f0043
:1013d000ea815700a2002000890078003002be0098
:1013e0002003be000800780097ff07004801900026
:1013f0000201e90000015100808045003fba9700da
:10140000890178000a007800530107009a009000d3
:101410000188a3000400320098009000810f500062
:1014200001003d00010078004f05be004f04be00e2
:101430000080fa0000000600fa874700889fbe007f
:101440008a9fbe008c9fbe008e1f780080047800ab
:1014500001047800820578001801900028059000aa
:1014600018077800b80090000200e0000200350084
:101470000e10a1000100370012002000700067006c
:10148000e0b79f00090032003b02be002b03be0004
:10149000e00f5200e08f5a00e00f5b00e08f5b002e
:1014a000020032008a86e900010037008a067800cf
:1014b000e8026700f5b79f00010032008d06e900e1
:1014c0003b02be002b03be00e4af9f00f5af9f00c0
:1014d00086b79f0097b79f00480690000c06e9006a
:1014e0000040eb0080707e00efb297007fb2970063
:1014f0008903780081047800d8af9f000204780047
:101500008bbf9f008a057800034578002a003700ca
:101510000c06e9006fab97006f006300e90f500005
:1015200002003c000003b000010037007005b0006d
:101530000a03fb001604b100f90f53000c003e0033
:10154000000378000650a0001606b100f90f530002
:1015500007003e00b4b79f00a5b79f00c7b79f0024
:1015600032030700cfb39700afb297003fb29700a6
:1015700080747e000804e9008d06e9006fa89700da
:10158000ffa897000fb197009fb197004600200079
:101590008301d1000281d3008180d3000080d30079
:1015a0000603e900faff3a00e0af9f00f1af9f00a9
:1015b00082b79f0093b79f00e10f56000f003400e1
:1015c0006fa89700ffa897000fb197009fb19700f1
:1015d000e00f5000e08f5800e00f5900e08f5900f5
:1015e000cbff3a000800e000c9ff3c000d00e0001e
:1015f000020034000e18a300c5ff3a0089007800ed
:10160000f4b79f00870478005fac97008a417800a8
:101610000b0578008fbd97000500e0001000320038
:101620003b02be002b03be00e4af9f00f5af9f005e
:1016300086b79f0097b79f00e00f5200e08f5a00d7
:10164000e00f5b00e08f5b00050032000c06e90054
:1016500083707e000c06e90000c3b30080707e003a
:10166000ffb297000500e000030032000c06e9001d
:1016700000c2b30080707e00480190000201e900c2
:101680000c0151008c8040000e0278008a01780025
:1016900009007800b0000700990090000188a300bd
:1016a0000400320098009000810f500001003d00be
:1016b000010078004f0778004f06be004f05be00be
:1016c0004f04be00af01b1000000060082017800a7
:1016d00001017800f1ff2700db02370084082000b9
:1016e000848f50001d0032000d003c0014082000c3
:1016f000848f50002700320002003c0004082000c4
:101700000400370024082000848f50003400320089
:1017100044082000848f500043003a003600370010
:10172000040a2000848f50002700320004003c008f
:1017300004092000848f50003b003a002800370045
:10174000020c2000828f50002f003200020f200078
:10175000828f500034003a002b0037009380e9005c
:101760000200e00005003200810978001102fb0050
:10177000cfa2de00612bb900280037008109780074
:10178000114278000482fb008002eb006033b80055
:101790002200370013027800e40052000200e0004b
:1017a00005003200810978001102be004fabde0057
:1017b0008603780019003700810978001102be0005
:1017c0006033b800150037009380e9008109780084
:1017d00011027800cfa2de00612bb9000f003700a4
:1017e00093027800e8805200810978003102be003f
:1017f0002103be00090037009380e9000200e000e9
:1018000002003200f1ff37009380e900810978007f
:10181000110278008002eb006033b8000498be002b
:101820000690be00100005000000050044082000de
:10183000848f50002500320008003c00140820006e
:10184000848f50001400320024082000848f500040
:1018500024003200040820000c0037000409200096
:10186000848f50001f00320004003c0084082000d8
:10187000848f500024003a000e003700040a200034
:10188000848f500011003200040c2000848f50001f
:101890001d003a000d0037009380e90081097800af
:1018a0009100780001087800cf91de008288be00a8
:1018b000140037009380e9008109780091007800d6
:1018c00001087800824878000e0037009380e90014
:1018d000810978009100780001087800820878007a
:1018e000080037009380e9008109780091007800b2
:1018f000010878006112b900612bb9008498be001c
:101900008690be001000050000000500889fbe0004
:10191000000478004800900082047800808f540012
:10192000010036008004780009017800580090001a
:101930001802070058009000090040005004980069
:10194000c800900089845000490498000048eb00ca
:101950004f04be0000000600f2874700889fbe00cb
:101960008a9fbe008c9fbe008e1f78008004780086
:1019700001057800020478008305780061076200a1
:1019800002003a008b0f540008003900080178006b
:101990008a00780009007800dcff07008b0f5400f4
:1019a00002003900880578001e00370008865500bf
:1019b0000c017800f00f56000100360002012000f3
:1019c000010220007e80570003fd07008c0678008e
:1019d0000500370002012000fe8057000900780052
:1019e000caff0700f0865600ef8f5600f9ff3e0051
:1019f0004461de0000ff2f000091b90002014600a3
:101a0000fe80570009007800c0ff07000e00e000cc
:101a100004003a00080178008a0078000900780084
:101a2000baff07000b0078004f0778004f06be0092
:101a30004f05be004f04be002f01b100000006009c
:101a4000000005000000050000000500000178000e
:101a50000040eb008080fb008180400003ad20004f
:101a600063c278000404e00003003a0010ad2000d7
:101a700060c078000000060092017800934f520089
:101a800004003a0010ad200060c078000309e800af
:101a9000010037000040e800ea4f5000edff36003b
:101aa00000000600f6874700889fbe008a9fbe00a0
:101ab0008c9fbe008e1f780000057800010478001e
:101ac00083057800040678000000eb00c0b79f0093
:101ad0008080eb00d1b79f00e0b79f00f2b79f0076
:101ae0000008200080bf9f00980078000100780067
:101af0008004eb00010037008904e80030417800e1
:101b00000204e0000300320053c2b300834f5100cf
:101b1000f9ff3a000900e0000400320009017800f2
:101b20000a00780079ff0700188c44001807780035
:101b300050c2b3009e4f10003f013a000e07e8006c
:101b40000e0c780010003700cfb097000100a00005
:101b50000b003700cfb097000110a000080037003d
:101b6000cfb097000120a00005003700cfb097004c
:101b70000130a00002003700cfb097000140a00064
:101b8000c1b79f00000ce800180078009040780072
:101b9000b2c2b30082cf5000f1ff320007003c0018
:101ba00002c2b30082cf5000f0ff320032c2b30055
:101bb00082cf500007003a00efff3700d2c2b300d7
:101bc00082cf5000e0ff320002c3b30082cf50004a
:101bd000e0ff3200a2c2b30082cf50000d003a00f5
:101be000000ce8001c80e900000e7800100078006e
:101bf000e0b79f000000e0000f003d00cfb097006d
:101c00000100a200c1b79f000000ea00e0b79f00fa
:101c10000900370039010700e0b79f0001003700d5
:101c2000000ce800180078009000fb000103b100f0
:101c3000e98f5000faff36004fb097000008a3006c
:101c4000020032000010a100c0b79f001800780009
:101c5000e1c2b30090cf100016003a008000eb0004
:101c6000d1b79f000000e800000c7800a1c2b300cb
:101c700090cf100006003a00000ce8001c80e9003c
:101c8000000e780010007800d0b79f0009003700e0
:101c90001a010700d0b79f0001003700000ce800d0
:101ca000180078009000fb000103b100e98f50009c
:101cb000faff36000800780064ff070080467800cd
:101cc000180078001000fb00510107009106200069
:101cd000810f50003800320012003c004106200005
:101ce000810f5000340032000a003c001106200031
:101cf000810f50002000320031062000810f50007b
:101d0000a000320051022000810f5000bc003a00b8
:101d1000b400370071062000810f5000b8003c006d
:101d20008800370001072000810f50005c0032005e
:101d300007003c00e1062000810f50007a003200cd
:101d4000f1062000810f5000ad003a003900370045
:101d500051072000810f500027003200810720002a
:101d6000810f50004200320031072000810f5000e7
:101d7000a3003a008f0037008d80fb000c01780033
:101d800000fe2f000f004000540107000000e0009b
:101d9000a800320018007800000ce800904178009c
:101da00002fe2f000f014100f88057000a00780062
:101db00024ff07000e0037008d80fb008c017800a7
:101dc0001200200000fe2f000f00400043fe07001d
:101dd0000000e00097003200180ce80002fe2f001f
:101de0000f014100f88057000a0078005efc0700f0
:101df00080844400900037008d80fb008c017800c7
:101e00000001eb0000fe2f000f00400033fe070032
:101e10000000e00087003200180ce80002fe2f00ee
:101e20000f014100f88057000a00780059fd0700b3
:101e3000efff37008d80fb008c0178000001eb0084
:101e400000fe2f000f00400024fe07000000e0000d
:101e500078003200180ce80002fe2f000f0141004c
:101e6000f88057000a00780098fc0700e0ff370070
:101e70008d80fb008c0178000001eb0000fe2f003c
:101e80000f00400015fe07000000e000690032006e
:101e900018007800000ce800904178001c00370022
:101ea0008c0178000001eb00010f200000fe2f00e4
:101eb0000f00400009fe07000000e0005d00320056
:101ec000180ce8000fb097009fb097002fb1970053
:101ed000bfb19700e00f5000e08f5800e00f5900ad
:101ee000e08f590009003a00cfb597006fb4970012
:101ef00080ac2000ae0007000b027800880178005b
:101f00000001780081ac20004700370083c7b30090
:101f100002fe2f000f014100f88057000a007800f0
:101f200045fd0700b2ff37000b8144008d80fb00a8
:101f30008c01780000fe2f000f0040003bfe0700e0
:101f40003c0037008d80fb000c01780000fe2f0064
:101f50000f004000e10007000000e0003500320003
:101f600018007800000ce8009041780002fe2f0075
:101f70000f014100f88057000a007800b1fe070009
:101f80009bff370000c8b30080cf560029003a00fd
:101f9000180ce8001c80e900000e78001040780062
:101fa000e0df9f0013002000e2fd2f000f01410041
:101fb0000800370000c8b30080cf56001d003a006b
:101fc000180ce8001c80e900000e78008001eb008e
:101fd00010017800f88057000a00780070fc0700b4
:101fe00083ff370000c8b30080cf560011003a00cd
:101ff000180ce8004fb29700efb1970008003700c7
:102000000e0c78000000eb00c0b79f00e0b79f0007
:102010000080eb00d0b79f000002eb008401780045
:1020200012002000e1ac20000a0078004afe070000
:102030006fff3700180ce800090078004f077800a0
:102040004f06be004f05be004f04be006f01b10039
:10205000000006008200fa00889fbe008a1f7800f8
:102060000005780082047800c13f9f000004eb0067
:10207000100037000902780088017800a2f72f00cd
:102080000f01410081f72f008f8040000a00780087
:1020900084fe070008004000880f500004003d0047
:1020a000b0042000405988000084eb000400370091
:1020b000000478004f3897001004e000edff3a006c
:1020c000080078004f0578004f04be000080fa0039
:1020d00000000600800078001000200002022000ae
:1020e000828f500004003200e9805000e48f5000dd
:1020f000010036000000eb0000000600889fbe00d3
:102100008a1f7800000578000a0478009844780057
:102110000805e8000900fb00eeff07000000e000f2
:10212000f9ff3a00b0c2b30080cf5400050032007e
:10213000d0c2b3008000eb0080cf540005003a000d
:10214000020037008000eb00010037001100200082
:102150000804e8000000eb00030037006a02b90041
:10216000020052000003b0003801fb0003fd2f0005
:1021700082814100e98f5100f8ff36000100e00044
:1021800001003a000000ea004f0578004f04be004d
:10219000000006008001780002003700b159780085
:1021a0000201e9000200e000fcff3a000000060026
:1021b00080007800040037003104e00002003a009b
:1021c0000000510000000600010178000108a30092
:1021d000f9ff3a008101780031017800f4ef2f0017
:1021e000020242000281ea000201620004082800a3
:1021f00004016100f7ff32008300780001017800dc
:102200003104e000fdff3a0000005100000006002c
:10221000f1fb2f0080804000f98f500001003e004c
:102220000050a00000000600f9ff3700f1f92f0070
:1022300080804000f98f500001003e00f005b200a0
:1022400000000600f9ff3700f28747008e1f780074
:1022500002027800030178000000e0000200320072
:102260000007780001003700728757008002eb00fa
:102270000100e000010032008102e9007080570097
:10228000060009000018eb000080eb0080bf9f00f3
:102290002310200093bf9f00aebf9f00b1bf9f00df
:1022a000c5bf9f000100e00003003d00b104200015
:1022b0004159880006003700004feb00eebf9f0039
:1022c000debf9f0084007800708057002200070066
:1022d0004f0778002f01b10000000600881f78002a
:1022e0000004780000082000808f5000170035009f
:1022f00010082000808f50000b00340030082000b0
:10230000808f500011003a009200780068805000e1
:10231000000978003002be002003be00049cbe000d
:102320000694be00070037009202780064805200d5
:10233000000978001000be0015000700009cbe00d8
:102340000294be0010002000010037000000eb00e6
:102350004f047800000006000200fa00881f780091
:1023600000047800e2bf9f006481570008007800f5
:1023700038ff0700980090000148a30001003200d8
:102380000080eb004f0478000080fa000000060097
:10239000810378001d0007000001be006000b80046
:1023a0000478a30013003a006220e10015003e000b
:1023b0000d0039008301d1000281d3008180d30058
:1023c0008301d1000281d3008180d3008301d10039
:1023d0000281d3008180d3000538b000c42add001b
:1023e000f300b2008381720007f0a70003f0a000a1
:1023f0000000060083ff2700020020006110b900e2
:10240000f9ff370003ff2700f7ff3700c70ade0098
:10241000f107b200f50fb20008003200e1cf420030
:10242000020032000170a00024000500810f70003e
:10243000010032000408050044000500810f70000f
:1024400002003a00140005008502e9000000400087
:1024500081c04800fcff3b000170a0002400050083
:10246000020ab900001bb9000200b8008100420056
:102470008100430000000600889fbe008a9fbe00c6
:1024800030044200b0844a0030054b0090854b0078
:102490006000b1000898be000a90be000440e10050
:1024a00005c8e10006d0e10007d8e10002003100d4
:1024b000680040001008e8004f05be004f04be0051
:1024c00000000600889fbe008a9fbe003004be0048
:1024d0002005be000418540005985c0006185d0035
:1024e00007985d00110020000440e10005c8e100ec
:1024f00006d0e10007d8e100010039008000eb00c0
:10250000108810004f05be004f04be0000000600fa
:102510001200fa00889fbe008a9fbe008c9fbe00fa
:10252000e0b79f00f1b79f0082bf9f0093bf9f005d
:102530000605be000404be000000eb00d0b79f00fb
:10254000c0b79f00b0b79f00a0b79f0090b79f0093
:10255000000678005fb19700cfb09700820141007c
:102560003fb097000200e00004003d003700070084
:102570007e805700c0ff07000300370033000700cc
:102580007e805700cfff0700dfb697000d00e00008
:102590000c0035006fb29700ffb297000fbb970099
:1025a0009fbb970010002000010020006011b800c0
:1025b0000002720081827200020373008383730041
:1025c0001b0007000c06e80001042000810f5600e4
:1025d000e0ff3a000d00e00004003d000802be00ec
:1025e0000a03be007e805700a3ff07005fa8970084
:1025f0000000e00005003a001fb29700afb297005c
:102600003fb39700cfb39700090007006fb0970062
:10261000ffb097000fb997009fb997004f06be0013
:102620004f05be004f04be000080fa000000060007
:102630000100070000000600a4b79f00b5b79f0087
:10264000c6b79f00d7b79f00000006004f09de0005
:1026500082817100b3b79f004f01de00818040008e
:1026600082807000a1b79f008fb097004f09de00f5
:10267000000040000200700090b79f007fa8970004
:102680004f01de00818040008280700081b79f0092
:102690000d0007004f3ade0000004000040070000b
:1026a000f0af9f00080007000402420085824a0044
:1026b00006034b0087834b00dfff07000802be00c4
:1026c0000a03be00000006002fb29700bfb29700b9
:1026d0004fb39700dfb3970000000600881f780013
:1026e00018002000881f780089ff07008f87e90005
:1026f0004f04780000000600801feb0084ff0700f5
:102700008f87e90000000600889fbe008a9fbe00f8
:10271000e00f5000e08f5800e00f5900e08f5900a3
:102720000c003d006044b8006055b8000000540043
:1027300081805c0002015d0083815d001800200043
:102740001500070008003d00180007000004eb001a
:10275000050037000004eb000f00070002003d00f9
:102760001200070018002000dcff07000800e0004e
:10277000060032006022b8006033b800000052004a
:1027800081805a0002015b0083815b004f05be001f
:102790004f04be0000000600e00f5200e08f5a0018
:1027a000e00f5b00e08f5b00000006006044b800b3
:1027b0006055b8000402540085825c0006035d0089
:1027c00087835d0000000600889fbe008a9fbe00d0
:1027d0008c1f7800e00f5000e08f5800e00f590088
:1027e000e08f59000d003d006044b8006055b8000e
:1027f0000000540081805c0002015d0083815d0067
:102800001c0020000820e10009a8e1000ab0e10056
:102810000bb8e1000d003d00080037000006eb009a
:10282000e00f5200e08f5a00e00f5b00e08f5b008a
:1028300006003d006044b8006055b8000402540032
:1028400085825c0006035d0087835d00aaff0700a8
:102850000c00e000060032006022b8006033b800cf
:102860000000520081805a0002015b0083815b00fe
:102870004f0678004f05be004f04be000000060062
:020000040000fa
:102880005f5f00000508000000000000000000007d
:102890000000000000fa00000000000000e000005e
:1028a00000e0000000280000fe280000fe280000d4
:1028b00024540000fe54000048c40000c81000006a
:1028c000264600006c9200006a0400000a00000026
:1028d00010e00000c000000000380000448200004a
:1028e000000000008244000038000000543800005e
:1028f000fe38000054100000107c00001010000092
:10290000000000000e0c000000100000101000007d
:102910001010000000000000060600000004000087
:1029200008100000204000007c8a000092a20000f5
:102930007c00000042fe0000020000004e920000f9
:10294000929200006284000082920000b2cc0000eb
:102950001828000048fe000008e40000a2a20000c1
:10296000a29c00003c520000929200008c82000069
:102970008488000090e000006c92000092920000b9
:102980006c62000092920000947800000000000049
:102990002800000000000000022c000000000000e1
:1029a00000100000284400008228000028280000b1
:1029b0002828000000820000442800001040000089
:1029c000809a0000906000007c820000ba9a0000ab
:1029d000723e000048880000483e0000fe92000061
:1029e000929200006c7c0000828200008244000011
:1029f000fe820000828200007cfe000092920000b5
:102a000092820000fe90000090900000807c000008
:102a1000828200008ace0000fe100000101000002c
:102a2000fe00000082fe00008200000004020000a0
:102a300082fc000080fe000010280000448200009c
:102a4000fe0200000202000002fe0000403800000a
:102a500040fe0000fe20000010080000fe7c000088
:102a600082820000827c0000fe90000090900000b6
:102a7000607c0000828a0000847a0000fe900000e2
:102a8000989400006264000092920000924c000052
:102a9000c0800000fe800000c0fc000002020000b8
:102aa00002fc0000f804000002040000f8fc000032
:102ab000021c000002fc0000c628000010280000d4
:102ac000c6c00000201e000020c00000869a000042
:102ad00092b20000c2000000fe820000828200006c
:102ae0004020000010080000040000008282000066
:102af00082fe000020400000804000002002000014
:102b0000020200000202000000c00000e01000000d
:102b1000000400002a2a00001c020000fe1400002d
:102b2000222200001c1c00002222000022140000af
:102b30001c22000022140000fe1c00002a2a0000b3
:102b40002a180000001000007e90000040300000b5
:102b50004a4a0000523c0000fe1000002020000005
:102b60001e00000022be000002000000040200005f
:102b700002bc000000fe000008140000220000005b
:102b800000820000fe020000003e0000201e000047
:102b9000201e00003e100000202000001e1c00002f
:102ba00022220000221c00003e1800002424000005
:102bb0001818000024240000183e00003e100000f9
:102bc00020200000101200002a2a00002a24000001
:102bd00020200000fc220000243c00000202000033
:102be000043e00003804000002040000383c0000ed
:102bf000020c0000023c0000221400000814000037
:102c0000223200000a0a00000a3c000022260000ce
:102c10002a32000022000000106c00008200000038
:102c200000000000fe00000000000000826c0000b8
:102c30001000000040800000402000004000000024
:102c40002f1b0000311b0000331b0000351c00004f
:102c5000371d0000391e00003b1f00003c20000013
:102c60003e2200003f2300004025000041270000d5
:102c700042290000432b0000432d0000432f000099
:102c8000433100004233000041350000403700006e
:102c90003f3900003e3b00003c3c00003b3e000052
:102ca000393f00003740000035410000334200004a
:102cb000314300002f4300002d4300002b42000051
:102cc0002941000027400000253f0000233e00006e
:102cd000223c0000203b00001f3900001e3700008e
:102ce0001d3500001c3300001b3100001b2f0000ad
:102cf0001b2d00001c2b00001d2900001e270000ba
:102d00001f250000202300002222000023200000b5
:102d1000251f0000271e0000291d00002b1c00009d
:102d20002d1b00000000000000000000000000005b
:102d30002f0f0000320f0000351000003811000086
:102d40003b1200003e140000411600004418000031
:102d5000471b0000491d00004b2000004d230000d0
:102d60004e2600004f2900004f2c00004f2f00007e
:102d70004f3200004e3500004d3800004b3b000044
:102d8000493e000047410000444400004147000024
:102d90003e4900003b4b0000384d0000354e00001e
:102da000324f00002f4f00002c4f0000294e000032
:102db000264d0000234b0000204900001d47000065
:102dc0001a44000018410000163e0000143b0000a9
:102dd0001238000011350000103200000f2f0000e3
:102de0000f2c000010290000112600001223000003
:102df00014200000161d0000181b00001a18000007
:102e00001d160000201400002312000026110000ef
:102e1000291000002c0f000000000000000000003e
:102e20002f090000330a0000370c00003b0f0000a0
:102e30003f12000043160000461a0000491e000021
:102e40004c2200004e270000502b0000522f0000a3
:102e5000503300004e3700004c3c00004940000059
:102e600046440000434800003f4c00003b4f000038
:102e700037520000335400002f5500002b5400003f
:102e800027520000234f00001f4c00001b48000089
:102e90001844000015400000123c000010370000ec
:102ea0000e3300000c2f00000e2b00001027000036
:102eb00012220000151e0000181a00001b16000048
:102ec0001f120000230f0000270c00002b0a000037
:102ed0002f090000330a0000370c00003b0f0000f0
:102ee0003f12000043160000461a0000491e000071
:102ef0004c2200004e270000502b0000522f0000f3
:102f000000000000000000000000000000000000c1
:102f100025300000326400002f2500003032000010
:102f20006400000044690000737000006c610000e0
:102f3000792000004d6f000064650000005400001f
:102f4000696d000065200000466f0000726d000092
:102f500061740000005300006574000020540000fc
:102f6000696d0000650000005365000074200000da
:102f700044610000746500000053000065740000a7
:102f8000204100006c610000726d000000410000f3
:102f90006c610000726d0000204f00006e2f000079
:102fa0004f66000066000000506f00006d6f00006b
:102fb000646f0000726f0000000000009297000034
:102fc000010000009f97000002000000ab97000086
:102fd00003000000b497000004000000bd9700004b
:102fe00005000000c797000006000000d49700000d
:102ff0000700000044690000676900007461000078
:103000006c000000416e0000616c00006f67000002
:1030100000420000696e000061720000790000004b
:1030200031320000204800006f750000720000007f
:1030300032340000204800006f750000720000006c
:1030400025300000326400003a25000030320000d4
:10305000643a00002530000032640000004d00009a
:10306000454e00005500000053450000542000006c
:10307000544900004d45000000250000303200009a
:103080006400000044690000737000006c6100007f
:10309000792000004d6f00006465000000540000be
:1030a000696d000065200000466f0000726d000031
:1030b00061740000004f000066660000004f0000d1
:1030c0006e000000416c0000617200006d000000a5
:1030d000436f00006d6900006e6700002053000020
:1030e0006f6f00006e00000000000000ff00000095
:1030f00000450000ff00000000a50000ff000000e8
:1031000000d70000ff00000000ff0000ff000000eb
:103110002fff0000ad00000000ff000000000000d5
:103120007fff000000000000ffbf00000000000063
:10313000ff00000000000000e22b00008a000000f9
:10314000800000008000000093140000ff000000d9
:10315000574f0000524b0000004200005245000053
:10316000414b0000004c00004f4e00004720000083
:1031700042520000454100004b0000005245000053
:103180004144000059000000253000003264000076
:103190003a25000030320000640000005041000079
:1031a000555300004544000000000000152e0000ab
:1031b000474e0000111b0000252f0000383400008e
:1031c0003231000000000000ff070000ff07000090
:1031d00020fd000020fd00001ff800001ff8000087
:1031e0004d000000530000004800000025300000a2
:1031f00032640000003a0000002500003032000078
:10320000642f0000253000003264000000500000f0
:103210004d000000414d00000000000020010000b2
:103220000000000000000000200100000f0000006e
:10323000000000001f1c00001f1e00001f1e0000d9
:0c3240001f1f00001e1f00001e1f0000ca
:020000040000fa
:10324c000600fa00000f780011079800220798007a
:10325c001e007800804078002e0090000148780015
:10326c002e00900011c0b300614898002e00900011
:10327c009e0090001101be002200980033009800bf
:10328c001e007800e30f50002f003200e30f5000b7
:10329c0005003e00e10f500015003200e10f500018
:1032ac001e003e0007003700e60f50003e003200c3
:1032bc00e70f500048003200e50f50002e0032009e
:1032cc00570037002e0090009e0090001102be00a7
:1032dc002400980035009800a10290004500980049
:1032ec002e0090002112220011009800500037008f
:1032fc002e0090009e0090001103be002600980046
:10330c0037009800a1039000470098002e00900011
:10331c00c113220011009800450037002e009000c8
:10332c009e0090001101be0022009800330098000e
:10333c00a1019000430098002e009000a1152200de
:10334c00110098003a0037002e0090009e0090006b
:10335c003102be002103be00240098003500980005
:10336c0046009800570098002e009000811722000c
:10337c00110098002e0037002e0090009e00900047
:10338c003102be002103be002400980035009800d5
:10339c0046009800570098002e009000a1192200ba
:1033ac0011009800220037002e0090009e00900023
:1033bc003102be002103be002400980035009800a5
:1033cc0046009800570098002e009000c11b220068
:1033dc001100980016003700ae0090001e009000ff
:1033ec00e4804000b0187800a0107800e480400021
:1033fc0064004000b0187800a0107800e480400011
:10340c0064004000900878008180e8000080e800ab
:10341c002e009000e11d22001100980004003700de
:10342c002e009000c1102200110098000000000036
:10343c000080fa00000006000400fa002047980003
:10344c00314798002e4090008080fb003e40900059
:10345c000000fb00008f4000004429001040780061
:10346c000080fb009e0f500003003d00004429002b
:10347c0010407800080037001e0078000000e000c3
:10348c0002003d000040eb0003003700be409000fe
:10349c002e40900000c040000080fa0000000600a2
:1034ac000200fa00004f78001147980000442900f0
:1034bc00104078009e40780080cf500005003e0000
:1034cc0010442900104078009e40900080cf50009e
:1034dc00020036000000eb0007003700f1c5b30016
:1034ec001e407800e30f0700f1c5b3001e409000aa
:1034fc00cb0f0700071007000080fa000000060041
:10350c000400fa00004f7800114798001207980049
:10351c0000442900104078009e40780080cf500075
:10352c000e003e0010442900104078009e40900090
:10353c0080cf50000b003e00f1c5b3001e40780058
:10354c00cc0f0700f1c5b3001e409000b40f07006c
:10355c001e00900009100700030037000000000057
:10356c0001003700000000000080fa000000060097
:10357c000e00fa00004f9800114f9800224f98004f
:10358c00630798000e4890008080fb002e48900046
:10359c000080fb008080500000442900104078001f
:1035ac000080fb00808f500070003c001e48900093
:1035bc008080fb002e4890000080fb008080500033
:1035cc0010442900104078000080fb00808f5000d0
:1035dc0068003c002e4890000004e00001003a0016
:1035ec0010c0b300204f98002e4890008040780007
:1035fc000e48900090ff0700204798002e4890003e
:10360c000040ea00804078000e4890008aff0700d6
:10361c00304798002e489000804078001e4890005b
:10362c0085ff0700404798002e4890000040ea00b4
:10363c00804078001e4890007fff0700504798009c
:10364c00be409000014f7800430037000e489000b8
:10365c009e4f5000030039000e4890001e40500051
:10366c00030037009e4078000e48900000c05000c8
:10367c0060479800de4090001147980031003700f9
:10368c009e4890001e40900080cf500004003900ee
:10369c009e4890001e40900000c050000300370070
:1036ac009e4090001e48900000c05000704798004b
:1036bc007e4090008080fb006e4090000080fb00fc
:1036cc00808040002e4890000080fb00808f5000ce
:1036dc00150034007e4090008080fb007e409000fe
:1036ec000080fb000088b900000178006e4090005b
:1036fc008080fb006e4090000080fb000088b900c9
:10370c0000007800000141002e4890008080fb00f2
:10371c002e4890000080fb000088b9000000780063
:10372c00800f510004003c006e0190009e40900000
:10373c001e40780072ff07001e4090000040e80019
:10374c00104798009e4090004e40900080cf500053
:10375c00cbff39001e4fe8002e4090009e407800b1
:10376c0080cf5000b9ff3900030037000000000083
:10377c0001003700000000000080fa000000060085
:10378c000c00fa006047980071479800024f9800af
:10379c00530798000040eb00104798000040eb00e6
:1037ac00204798000040eb00304798000000eb00e9
:1037bc00200798000e4890000004e00001003a0039
:1037cc0010c0b300004f98000e4890000040e80075
:1037dc00004f78000040eb00104798000040eb00d1
:1037ec00204798000000eb00200798006700370086
:1037fc001e4090000000fb00000040000000e800ac
:10380c00ae00900000804000200798001e40900001
:10381c000040e800104798002e0090000000e000e7
:10382c005a0035004c003700ae40900031479800ec
:10383c0043003700ae4090007e40900080c04000b6
:10384c003e4190006e409000004041005e019000af
:10385c002bff07002e409000fe40900080c05000cf
:10386c003e4190006e409000004041005e0190008f
:10387c0023ff0700ae4090007e40900080c04000c7
:10388c003e4090006e419000004051005e0190005f
:10389c001bff07002e409000fe40900080c050009f
:1038ac003e4090006e419000004051005e0190003f
:1038bc0013ff0700be4090007e40900080c0400087
:1038cc002e4190006e409000004041005e0190003f
:1038dc000bff07003e409000fe40900080c050005f
:1038ec002e4190006e409000004041005e0190001f
:1038fc0003ff0700be4090007e40900080c0400057
:10390c002e4090006e419000004051005e019000ee
:10391c00fbfe07003e409000fe40900080c050002f
:10392c002e4090006e419000004051005e019000ce
:10393c00f3fe07003e4090000040e800304798003e
:10394c003e4090009e4f5000baff35002e40900034
:10395c000040e80020479800ae4090001e409000c8
:10396c0080cf5000b0ff35009e00fb00e0ff2f0021
:10397c000088b900000078000000e800ae0090005c
:10398c0000804000200798001e4fe9001e40900068
:10399c009e40780080cf500095ff3d000080fa00db
:1039ac00000006000a00fa004047980051479800b2
:1039bc006247980073479800440798007e40900037
:1039cc000080fb000000d10000407800ee40900029
:1039dc0000c040006047980064003700ee40900043
:1039ec00014f78000040eb00104798000000eb00fe
:1039fc0010079800560037009e4090005e409000e3
:103a0c0080c040001e4178004e40900000404100b4
:103a1c004e019000bafe07001e409000de40900060
:103a2c0080c050001e4178004e4090000040410084
:103a3c004e019000b2fe07009e4090005e40900048
:103a4c0080c040001e4078004e4190000040510064
:103a5c004e019000aafe07001e409000de40900030
:103a6c0080c050001e4078004e4190000040510034
:103a7c004e019000a2fe07009e4078005e40900030
:103a8c0080c040001e4190004e409000004041001c
:103a9c004e0190009afe07001e407800de40900018
:103aac0080c050001e4190004e40900000404100ec
:103abc004e01900092fe07009e4078005e40900000
:103acc0080c040001e4090004e41900000405100cc
:103adc004e0190008afe07001e407800de409000e8
:103aec0080c050001e4090004e419000004051009c
:103afc004e01900082fe07001e4090000000fb006b
:103b0c00000040000000e8009e0090000080400093
:103b1c00100798001e4090000040e80010479800e5
:103b2c001e0090000000e000090035009e00fb0024
:103b3c00e0ff2f000088b900000078000000e800ca
:103b4c009e00900000804000100798001e4fe90076
:103b5c001e4090009e40780080cf5000a6ff3d0094
:103b6c006e4090000040e900604798007e40900055
:103b7c000080fb000000ea004f00de0000407800ef
:103b8c00fe4090008140e900714798000004e0007d
:103b9c0092ff3a000080fa00000006001200fa00c2
:103bac00204f9800314f9800424f9800534f980087
:103bbc00644f9800050f98000044290010407800cd
:103bcc00ae48900080cf500003003900004429001b
:103bdc0090407800214f9800104429001040780044
:103bec00be48900080cf50000300390010442900db
:103bfc0090407800314f9800004429001040780024
:103c0c00ce48900080cf50000300390000442900ba
:103c1c0090407800414f98001044290010407800e3
:103c2c00de48900080cf500003003900104429007a
:103c3c0090407800514f98004e4890008080fb00d7
:103c4c002e4890000080fb00008050001007980068
:103c5c001e009000cf80de001e0090008080680067
:103c6c001e0090004f00de000080400010079800fe
:103c7c005e4890008080fb003e4890000080fb0076
:103c8c0000805000200798002e009000cf80de00ae
:103c9c002e009000808068002e0090004f00de0007
:103cac000080400020079800ae4890004e489000dd
:103cbc0080cf50000200310010c0b300010037006b
:103ccc0000c0eb0060479800be4890005e48900032
:103cdc0080cf50000200310010c0b300010037004b
:103cec0000c0eb00704798009e0090002e009000e2
:103cfc00008f500001003700000000006e4890005b
:103d0c00e14f500005003e000e099000be489000a7
:103d1c002e489000fafd0700050037008e09900030
:103d2c006e499000be4890002e48900010fe07008f
:103d3c00ae4890004e48900080cf500004003a00ee
:103d4c00be4890005e48900080cf500019003200b1
:103d5c001e00780000004000400798002e009000e4
:103d6c008000ea004e009000808f500006003d005d
:103d7c002e0090001e0f10006e409000ae48900078
:103d8c0000c04000204f9800ce0090001e00900014
:103d9c00808f5000d8ff3d001e0090001e0f400089
:103dac007e409000be48900000c04000304f98000c
:103dbc00d2ff3700000000000080fa00000006006f
:103dcc000800fa00204798003147980042479800b5
:103ddc005347980034079800ce4090002e40900036
:103dec00a40d0700de4090003e4090008c0d0700b3
:103dfc00ae409000014f780010003700be4090009c
:103e0c0011479800050037003e009000db0d0700bd
:103e1c001e4090000040e800104798001e409000a3
:103e2c008080fb005e4090000080fb000000e800fa
:103e3c00808f5000f4ff35001e4fe8009e80fb0081
:103e4c004e4090000080fb000000e800808f500086
:103e5c00eaff35000080fa00000006001000fa00ae
:103e6c00004f9800114f9800224f9800334f980044
:103e7c00444f9800750798004e4890000080fb0056
:103e8c0001fe2f0080804000204429001040780063
:103e9c000080fb000088b9000000780080007800ea
:103eac0040442900008f40000000eb0010079800f0
:103ebc003c0037001e007800904078006147980065
:103ecc001e0fe80030442900104078008080fb0071
:103edc003e4890000080fb000088b900000078008c
:103eec0020079800270037006e4090000080fb00f0
:103efc0061006000004078000004e000180032000f
:103f0c002e009000804078001e48900080c0400039
:103f1c003e48900000c040008041e9001e00900027
:103f2c00804078000e48900080c040002e489000e1
:103f3c0000c040000041e9002e0090008040780055
:103f4c001e48900080c040001e0090000042780087
:103f5c000e489000004042007e02900098ff07003f
:103f6c006e4090000080fb000000d100604798007c
:103f7c003e4890000080fb00ae0090000080500096
:103f8c00200798002e0090000000e000d6ff3a00b9
:103f9c002e4890000080fb009e00900000804000a6
:103fac001007980020442900104078008080fb0006
:103fbc002e4890000080fb000088b90000007800bb
:103fcc00800078001e009000808f5000b9ff3e00ea
:103fdc000080fa00000006000800fa00004f78008c
:103fec0011479800224798003347980024079800ff
:103ffc0035079800150037002e009000104078000f
:10400c00ae0090008100e80021079800be029000ed
:10401c0000427800be4190002e4190009e409000de
:10402c001e4078008dff07002044290010407800c6
:10403c00ae4090008180fb000088b9000000780041
:10404c00004078001e404000004fe8002e00900019
:10405c00104078000004e000e7ff3a000080fa000e
:10406c00000006001400fa00889fbe00204f980044
:10407c00314f980062079800634f9800744f980076
:10408c00050f98002657980000c2b30060479800af
:10409c006e4890000004e000020032006e48900070
:1040ac000100370010c0b300604f98007e489000ac
:1040bc000004e000020032007e489000010037004e
:1040cc0010c0b300704f98000040eb00004f780018
:1040dc00470037000e0890001001be001207980030
:1040ec00230798000e08900064004000000f980011
:1040fc001e407800fe4890008180fb000088b900cb
:10410c0000007800804078003e48900000c04000dd
:10411c00704798000040eb00104798002f003700c4
:10412c001e009000ae00900000007800610060005e
:10413c008004eb00000478000800be00e00f500083
:10414c00e08f58001c003a006e4090008080fb000d
:10415c001e4090000080fb00008050000040780062
:10416c00ee4890008180fb000088b90000007800c8
:10417c00804078002e48900000c04000004f98000e
:10418c00fe4090007e48900000c040008040e90056
:10419c000e4990006e489000004041000040e9003c
:1041ac006e0290008141780000417800fe40900042
:1041bc000e48900002ff07001e009000ae00900019
:1041cc008100d1000080d3001007980021079800cf
:1041dc001e4090000040e800104798009e40900060
:1041ec006e40900080cf5000cdff39001e4fe8008c
:1041fc002e5090009e40780080cf5000b5ff3900c3
:10420c004f04be000080fa00000006000200fa0015
:10421c00000f78001e007800200190001e0078002e
:10422c00f04090001e00780060409000b4fc070045
:10423c000080fa00000006000200fa00000f78006f
:10424c001e007800a00190001e007800004990002c
:10425c001e007800f04090001e0078006040900036
:10426c0047fd07000080fa00000006000200fa007b
:10427c00000f78001e007800200290001e007800cd
:10428c00904990001e007800004990001e007800b4
:10429c00f04090001e00780060409000c1fd0700c7
:1042ac000080fa00000006000200fa00000f7800ff
:1042bc001e007800200290001e00780090499000ab
:1042cc001e007800004990001e007800f04090001d
:1042dc001e00780060409000b9fe07000080fa00d4
:1042ec00000006000200fa00000f78001e007800a3
:1042fc00a00290001e007800004a90001e0078007a
:10430c00a04990001e007800104990001e00780013
:10431c00f04090001e007800604090001ffe0700e7
:10432c000080fa00000006000200fa00000f78007e
:10433c001e007800a00290001e007800204a900019
:10434c001e007800904990001e00780000499000f3
:10435c001e007800f04090001e0078006040900035
:10436c00befe07000080fa00000006000200fa0002
:10437c00000f78001e007800a00290001e0078004c
:10438c00500290001e007800904990001e007800aa
:10439c00004990001e007800f04090001e0078004c
:1043ac00604090000cff07000080fa00000006003f
:1043bc000200fa00000f78001e007800404b9000bd
:1043cc001e007800d00290001e007800104a900069
:1043dc001e007800804990001e007800200190009b
:1043ec001e007800f04090001e00780060409000a5
:1043fc001cff07000080fa00000006000600fa000f
:10440c00000f780011079800220798001e00780012
:10441c00f13f2000810f500001003600f03f2000da
:10442c00b01188001e009000f13f2000810f500059
:10443c0001003600f03f2000001288002e00900092
:10444c00f13f2000810f500001003600f03f2000aa
:10445c00501288000080fa00000006000800fa00e4
:10446c00000f780011079800220798003307980076
:10447c00f03f20009e007800808f500003003e002b
:10448c001e0078008000eb0002003700f03f200097
:10449c00010020003e0190008001eb00028ab9006f
:1044ac0004027800009bb9008602780005024200e5
:1044bc000200b80001024200840078000020b00025
:1044cc000180b0004609dd004a00de0000007100ea
:1044dc00ca08de0000007800b01188009e00900031
:1044ec00f03f2000808f500003003e001e00900023
:1044fc008000eb0002003700f03f2000010020009c
:10450c003e0190008001eb00028ab90004027800a1
:10451c00009bb90086027800050242000200b80038
:10452c0001024200840078000020b0000180b0003d
:10453c004609dd004a00de0000007100ca08de00fa
:10454c000000780000128800ae009000f03f2000c0
:10455c00808f500003003e002e0090008000eb0086
:10456c0002003700f03f2000010020003e019000c7
:10457c008001eb00028ab90004027800009bb900ac
:10458c0086027800050242000200b80001024200d7
:10459c00840078000020b0000180b0004609dd00e6
:1045ac004a00de0000007100ca08de00000078003e
:1045bc00501288000080fa00000006000600fa0085
:1045cc00008fbe00220798009e007800f00f20009c
:1045dc0000806000c200dd001e017800f00f20009a
:1045ec00000061004600de00010170001e00be00ec
:1045fc00c809dd004800de0000807100c808de003c
:10460c0080007800f00f200000806000c201dd0007
:10461c001e00be00480add004800de0000007200eb
:10462c00c808de0080007800f00f200000806000d9
:10463c004600de00030270001e00be004008de00d3
:10464c0080007800f00f200000806000c201dd00c7
:10465c001e00be004008de0080007800f00f200035
:10466c00008060004600de0003007000ae01900088
:10467c008400780079ff07000080fa000000060033
:10468c000200fa00303380000080a0003033880034
:10469c00401f2000d6180700303380000080a10096
:1046ac0030338800401f2000d118070030338000c1
:1046bc000090a00030338800401f2000cc18070069
:1046cc00303380000090a10030338800401f200060
:1046dc00c7180700303380000080a00030338800fa
:1046ec00303380000090a00030338800401f200041
:1046fc00bf180700303380000080a10030338800e1
:10470c00303380000090a10030338800401f20001f
:10471c00b71807000000eb00000f780011003700fd
:10472c00303380000080a0003033880030338000ac
:10473c000090a0003033880040062000ac18070021
:10474c00303380000080a10030338800303380008b
:10475c000090a1003033880040062000a418070008
:10476c001e0fe8001e007800e40f5000ecff340030
:10477c000080fa00000006000000fa000001eb00c7
:10478c008000eb00f03f20001cff0700803e200063
:10479c00971807000001eb008000eb0000202000c0
:1047ac0016ff0700803e2000911807000001eb0067
:1047bc008000eb000010200010ff0700803e20005e
:1047cc008b1807000001eb00f13f20000000eb000c
:1047dc000aff0700803e200085180700f23f2000ea
:1047ec008000eb000000eb0004ff0700803e20007f
:1047fc007f1807000220200001202000002020004c
:10480c00fefe0700803e2000791807000001eb0037
:10481c008000eb000000eb00f8fe0700401f2000ba
:10482c00731807000080fa00000006000000fa0070
:10483c00f03f2000f0418800f0418000000178003a
:10484c0000002000f10f20005cff0700803e2000dc
:10485c0067180700f0418000000178000000280074
:10486c000100200055ff0700803e20006018070063
:10487c00f041800000017800f00f200001002000c2
:10488c004eff0700803e200059180700f0418000c1
:10489c000001780000f02f00f10f200047ff070007
:1048ac00803e200052180700f04180000001780083
:1048bc00f0ff2f000100200040ff0700803e200089
:1048cc004b180700f041800000017800f00f200029
:1048dc00f10f200039ff0700803e2000441807002c
:1048ec00f041800000017800f0ff2f00f10f200054
:1048fc0032ff0700803e20003d180700f041800089
:10490c000001780000502a00f10f20002bff070057
:10491c00803e200036180700f0418000000178002e
:10492c00000820000108200024ff0700803e200022
:10493c002f180700f04180000001780000f02f00d4
:10494c00010020001dff0700803e200028180700f2
:10495c00f0418000000178006000b80017ff0700ec
:10496c00401f2000221807000080fa0000000600fb
:10497c000000fa00f041800000017800f0ff2f00e9
:10498c00f10f20000dff0700f03f2000f0418800e0
:10499c00f041800000017800f0ff2f00f10f2000a3
:1049ac0006ff0700803e2000111807000030200091
:1049bc00f0418800f041800000017800f0ff2f00ea
:1049cc00f10f2000fdfe0700803e200008180700b4
:1049dc0000202000f0418800f041800000017800a8
:1049ec00f0ff2f00f10f2000f4fe0700803e2000a6
:1049fc00ff17070000102000f0418800f0418000f4
:104a0c0000017800f0ff2f00f10f2000ebfe0700f3
:104a1c00803e2000f617070060062000f041880059
:104a2c00f041800000017800f0ff2f00f10f200012
:104a3c00e2fe0700803e2000ed170700f03f20004b
:104a4c00f0418800f041800000017800f0ff2f0059
:104a5c00f10f2000d9fe0700803e2000e41707006c
:104a6c00f03f2000f0418800f04180000001780008
:104a7c000008200001082000d0fe070000202000c4
:104a8c00f0418800f041800000017800000820000f
:104a9c0001082000c9fe0700803e2000d417070043
:104aac00f03f2000f0418800f041800000017800c8
:104abc000008200001082000c0fe0700803e2000f6
:104acc00cb170700f0418000000178006000b800af
:104adc00bafe0700401f2000c51707000080fa002f
:104aec00000006000000fa0000102000f0418800d1
:104afc00f04180000001780000002000f10f200040
:104b0c00aefe0700c05d2000b91707000001eb00e6
:104b1c008000eb00f03f200038fe0700c05d200055
:104b2c00b3170700f041800000017800000020005e
:104b3c00f10f2000a1fe0700c05d2000ac1707009c
:104b4c00f03f2000f0418800f04180000001780027
:104b5c0000002000f10f200098fe0700c05d20002f
:104b6c00a31707000001eb008000eb000000eb0036
:104b7c0022fe0700401f20009d1707000080fa004e
:104b8c00000006000800fa00f03f2000f041880009
:104b9c00f041800000017800f0ff2f0001002000a0
:104bac0086fe07000000eb00000f78000b003700ba
:104bbc009e007800f1418800f041800000017800ef
:104bcc00f0ff2f00010020007cfe070040012000b8
:104bdc0087170700010220001e8f4000f03f2000c5
:104bec009e007800808f5000f1ff3600f03f2000cf
:104bfc00100798000c0037001e009000f041880050
:104c0c00f041800000017800f0ff2f00010020002f
:104c1c006afe070040012000751707001e00900077
:104c2c000002b100100798001e0090000000e00088
:104c3c00f1ff3d00f03f2000f0418800f041800082
:104c4c000001780000502a00f10f20005bfe0700e5
:104c5c000000eb00200798000c003700ae0090001d
:104c6c00f1418800f04180000001780000502a00da
:104c7c00f10f200051fe0700400120005c170700d7
:104c8c002e0090000002b00020079800ae009000ab
:104c9c00f03f2000808f5000f0ff3600f03f2000e6
:104cac00300798000c0037003e009000f04188005f
:104cbc00f04180000001780000502a00f10f200024
:104ccc003efe070040012000491707003e009000ff
:104cdc000002b100300798003e0090000000e00098
:104cec00f1ff3d00f03f2000f0418800f0418000d2
:104cfc00000178006000b80030fe0700c0122000f0
:104d0c003b1707000080fa00000006000400fa00c0
:104d1c00f03f2000f04188000000eb00000f78000d
:104d2c00500037000000eb001007980048003700d7
:104d3c001e007800e20f50001e003200e20f5000ff
:104d4c0005003c000000e0000a003200e10f5000ba
:104d5c000f00320039003700e40f500026003200fb
:104d6c00e40f50001a003500e50f50002900320006
:104d7c0032003700f0418000800178000001eb0028
:104d8c009e009000f03f2000b4fd07002b00370080
:104d9c00f1418000f23f20001e0090000000510005
:104dac00810178000001eb00f13f2000abfd070012
:104dbc0022003700f0418000800178001e01900035
:104dcc00f13f20000000eb00a4fd07001b003700a2
:104ddc00f1418000f23f20001e00900000005100c5
:104dec0081017800f23f2000800078000000eb0089
:104dfc009afd070011003700f04180008001780017
:104e0c00f23f20008000eb001e00900093fd070095
:104e1c000a003700f1418000f23f20001e00900094
:104e2c000000510081017800000178008000eb0047
:104e3c00f03f200089fd0700000000004001200029
:104e4c00eb1607001e0090000004b000100798003d
:104e5c009e009000f03f2000808f5000b4ff360081
:104e6c001e0fe8001e007800e50f5000adff340067
:104e7c00f0418000800178000001eb008000eb0025
:104e8c000000eb0075fd0700401f2000d81607003e
:104e9c000080fa00000006000000fa00f03f20003d
:104eac00f0418800f0418000800178000001eb00a7
:104ebc008000eb000000eb0068fd0700401f2000a5
:104ecc00cb160700f041800080017800f23f2000f3
:104edc00f13f2000f03f200060fd0700401f200044
:104eec00c3160700f041800000017800f0ff2f008e
:104efc00f10f2000b1fd070080382100f04188003f
:104f0c00f041800000017800f0ff2f00f10f20002d
:104f1c00aafd0700401f2000b5160700f03f200037
:104f2c00f0418800f0418000800178000001eb0026
:104f3c008000eb000000eb0048fd0700401f200044
:104f4c00ab1607000080fa00000006000000fa0013
:104f5c00f03f2000f0418800f04180000001780013
:104f6c0000002800f10f200094fd0700803e200077
:104f7c009f160700f041800000017800f00f200020
:104f8c00010820008dfd0700803e200098160700c8
:104f9c00f04180000001780000f82f000100200093
:104fac0086fd0700803e200091160700f04180002e
:104fbc000001780000082000f10f20007ffd0700a1
:104fcc00803e20008a160700f04180000001780026
:104fdc0000f02f000108200078fd0700803e200023
:104fec0083160700f04180000001780000042400c3
:104ffc000104200071fd0700803e20007c16070094
:10500c00f04180000001780000042c00010c20000d
:10501c006afd0700803e200075160700f0418000f5
:10502c00000178006000b80064fd0700401f2000fc
:10503c006f1607000080fa00000006003800fa0026
:10504c00f03f2000f0418800e4004700428729002f
:10505c0019000900b2187800d0c0b300204798009e
:10506c000040eb00004f7800150037000040eb00cb
:10507c00104798000d003700f24180001e40900050
:10508c000080fb004200dd00e4004700008040008f
:10509c001000be0049fd0700c01220005416070086
:1050ac001e4090000040e800104798009e40900081
:1050bc002e40900080cf5000efff39001e4fe800cb
:1050cc001e407800e14f5000e8ff3600f0418000b0
:1050dc00000178006000b80038fd0700401f200078
:1050ec00431607000080fa00000006000000fa00da
:1050fc0000202000f0418800f04180000001780081
:10510c0000002000f10f20002cfd070000322000d1
:10511c0037160700f04180000001780000002800dd
:10512c000100200025fd070000322000301607008a
:10513c00f041800000017800f00f200001002000f9
:10514c001efd07000032200029160700f0418000e8
:10515c000001780000f02f00f10f200017fd070070
:10516c00003220002216070000102000f0418800b9
:10517c00f04180000001780000f02f00f10f2000ba
:10518c000efd07000032200019160700f03f20002a
:10519c00f0418800f04180000001780000f02f0001
:1051ac00f10f200005fd070000322000101607004b
:1051bc00f0418000000178006000b800fffc07009f
:1051cc00f03f2000f0418800401f20000816070027
:1051dc000080fa00000006000000fa001033800086
:1051ec000080a10010338800303380000080a100c3
:1051fc0030338800103380000090a10010338800f9
:10520c00303380000090a100303388006206a90082
:10521c006226a9008ae6a900713f800000f82f00e1
:10522c0000806000d000b300703f8800713f8000a8
:10523c00f00f28008080600000e02000010070006a
:10524c00703f8800513f8000f00f28008080600084
:10525c0000f0200001007000503f8800f03f20005b
:10526c00a0118800f03f2000f0118800f03f2000d2
:10527c004012880090118000f001b300901188005a
:10528c0032e2a9008111800000c0210001007000f1
:10529c00801188008111800080ff2f000080600049
:1052ac006000b3008011880032c2a800e0118000b9
:1052bc00f001b300e01188003ce2a900d11180009c
:1052cc0000c0210001007000d0118800d1118000b5
:1052dc0080ff2f00008060006000b300d0118800b8
:1052ec003cc2a80030128000f001b30030128800dc
:1052fc0046e2a9002112800000c0210001007000cc
:10530c00201288002112800080ff2f000080600096
:10531c006000b3002012880046c2a8003622ef00bd
:10532c004022ef004a22ef00f03f2000f0418800bd
:10533c00d3fc0700803e2000ad1507000efd0700d2
:10534c00803e2000aa15070038fd0700803e200093
:10535c00a715070086fd0700803e2000a415070056
:10536c00e0fd0700803e2000a115070005fe0700a8
:10537c00803e20009e15070064fe0700803e200042
:10538c009b150700c4fe0700803e200098150700ff
:10539c00eefe0700803e20009515070027ff070052
:1053ac00803e20009215070050ff0700803e200031
:1053bc008f15070080bb20008d150700dcff370020
:1053cc000c00fa0025150700000f78001e0078006d
:1053dc00a0409000e0b020001040780080cf50003a
:1053ec0038003200e0b02000104078008081fb00d3
:1053fc00d0b02000104078000081fb00c0b020002d
:10540c00104078008080fb000e80e800831f78003d
:10541c00821f7800811f780001822900811f78008b
:10542c005dee0700e88757000e80e8008002eb0075
:10543c000002780013c0b30012c0b30021c0b30047
:10544c0080c2b300e4fa07001e00780020409000f0
:10545c008081fb001e007800104090000081fb0052
:10546c001e007800104078008080fb000e80e80061
:10547c00831f7800821f7800811f78000182290029
:10548c00811f780044ee0700e88757000e80e80083
:10549c00f5be27000002780013c0b30012c0b300a1
:1054ac0021c0b30080c2b300cbfa07001e00780005
:1054bc009000780061588800e1b0200020419000f5
:1054cc00824878000080fa00000006000a00fa000a
:1054dc004047980031079800024f98000e48900002
:1054ec000004e00002003200f07f200001003700d1
:1054fc000000eb00000f78000e4890000004e00064
:10550c00020032000000eb0001003700f0be270063
:10551c00100798004e409000ea4040004e4090002a
:10552c0000c0e9001e02780081417800d2c5b300aa
:10553c008040780020c0b30021fa07003e009000a4
:10554c009e0290000002780013c0b30012c0b3009a
:10555c00ce409000f0c0b3009ffa07000080fa0024
:10556c00000006000800fa00bc1407002007980091
:10557c000002eb00f3c5b300f2c5b300c1c0b30029
:10558c000040eb000efa0700f0822900f5812f0095
:10559c000002780013c0b30012c0b300f1c0b30016
:1055ac00e0c1b3008cfa07000040eb00004f78001c
:1055bc002e009000405090000004e00003003200e8
:1055cc002e00900040509000004fe9002e009000fb
:1055dc0040509000e54f50000200360040c0b30030
:1055ec00004f7800e0c1b300104798000040eb007a
:1055fc00204798001f0037009e80fb002e40900033
:10560c000080fb00808040002e00900040509000f5
:10561c000080fb000080680000f0a7000000ea009a
:10562c000000e9004f00de00604798009e80fb0000
:10563c002e4090000080fb0000804000c200dd0086
