:020000040000fa
:080000000001040000000000f3
:020000040000fa
:040008004a040000a6
:020000040000fa
:04000c008c04000060
:020000040000fa
:04001000cc0400001c
:020000040000fa
:040014006a0400007a
:020000040000fa
:04001800ac04000034
:020000040000fa
:04001c001c050000bf
:020000040000fa
:040020001c050000bb
:020000040000fa
:040024001c050000b7
:020000040000fa
:040028001c050000b3
:020000040000fa
:04002c001c050000af
:020000040000fa
:040030001c050000ab
:020000040000fa
:04003400ec040000d8
:020000040000fa
:040038001c050000a3
:020000040000fa
:04003c001c0500009f
:020000040000fa
:040040001c0500009b
:020000040000fa
:0400440004050000af
:020000040000fa
:040048001c05000093
:020000040000fa
:04004c001c0500008f
:020000040000fa
:040050001c0500008b
:020000040000fa
:040054001c05000087
:020000040000fa
:040058001c05000083
:020000040000fa
:04005c001c0500007f
:020000040000fa
:040060001c0500007b
:020000040000fa
:040064001c05000077
:020000040000fa
:040068001c05000073
:020000040000fa
:04006c006c02000022
:020000040000fa
:040070001c0500006b
:020000040000fa
:040074001c05000067
:020000040000fa
:040078001c05000063
:020000040000fa
:04007c001c0500005f
:020000040000fa
:040080001c0500005b
:020000040000fa
:040084001c05000057
:020000040000fa
:040088001c05000053
:020000040000fa
:04008c001c0500004f
:020000040000fa
:040090001c0500004b
:020000040000fa
:040094001c05000047
:020000040000fa
:040098001c05000043
:020000040000fa
:04009c001c0500003f
:020000040000fa
:0400a0001c0500003b
:020000040000fa
:0400a4001c05000037
:020000040000fa
:0400a8001c05000033
:020000040000fa
:0400ac001c0500002f
:020000040000fa
:0400b0001c0500002b
:020000040000fa
:0400b4001c05000027
:020000040000fa
:0400b8001c05000023
:020000040000fa
:0400bc001c0500001f
:020000040000fa
:0400c0001c0500001b
:020000040000fa
:0400c4001c05000017
:020000040000fa
:0400c8001c05000013
:020000040000fa
:0400cc001c0500000f
:020000040000fa
:0400d0001c0500000b
:020000040000fa
:0400d4001c05000007
:020000040000fa
:0400d8001c05000003
:020000040000fa
:0400dc001c050000ff
:020000040000fa
:0400e0001c050000fb
:020000040000fa
:0400e4001c050000f7
:020000040000fa
:0400e8001c050000f3
:020000040000fa
:0400ec001c050000ef
:020000040000fa
:0400f0001c050000eb
:020000040000fa
:0400f4001c050000e7
:020000040000fa
:0400f8001c050000e3
:020000040000fa
:0400fc001c050000df
:020000040000fa
:040100001c050000da
:020000040000fa
:040104001c050000d6
:020000040000fa
:040108001c050000d2
:020000040000fa
:04010c001c050000ce
:020000040000fa
:040110001c050000ca
:020000040000fa
:040114001c050000c6
:020000040000fa
:040118001c050000c2
:020000040000fa
:04011c001c050000be
:020000040000fa
:040120001c050000ba
:020000040000fa
:040124001c050000b6
:020000040000fa
:040128001c050000b2
:020000040000fa
:04012c001c050000ae
:020000040000fa
:040130001c050000aa
:020000040000fa
:040134001c050000a6
:020000040000fa
:040138001c050000a2
:020000040000fa
:04013c001c0500009e
:020000040000fa
:040140001c0500009a
:020000040000fa
:040144001c05000096
:020000040000fa
:040148001c05000092
:020000040000fa
:04014c001c0500008e
:020000040000fa
:040150001c0500008a
:020000040000fa
:040154001c05000086
:020000040000fa
:040158001c05000082
:020000040000fa
:04015c001c0500007e
:020000040000fa
:040160001c0500007a
:020000040000fa
:040164001c05000076
:020000040000fa
:040168001c05000072
:020000040000fa
:04016c001c0500006e
:020000040000fa
:040170001c0500006a
:020000040000fa
:040174001c05000066
:020000040000fa
:040178001c05000062
:020000040000fa
:04017c001c0500005e
:020000040000fa
:040180001c0500005a
:020000040000fa
:040184001c05000056
:020000040000fa
:040188001c05000052
:020000040000fa
:04018c001c0500004e
:020000040000fa
:040190001c0500004a
:020000040000fa
:040194001c05000046
:020000040000fa
:040198001c05000042
:020000040000fa
:04019c001c0500003e
:020000040000fa
:0401a0001c0500003a
:020000040000fa
:0401a4001c05000036
:020000040000fa
:0401a8001c05000032
:020000040000fa
:0401ac001c0500002e
:020000040000fa
:0401b0001c0500002a
:020000040000fa
:0401b4001c05000026
:020000040000fa
:0401b8001c05000022
:020000040000fa
:0401bc001c0500001e
:020000040000fa
:0401c0001c0500001a
:020000040000fa
:0401c4001c05000016
:020000040000fa
:0401c8001c05000012
:020000040000fa
:0401cc001c0500000e
:020000040000fa
:0401d0001c0500000a
:020000040000fa
:0401d4001c05000006
:020000040000fa
:0401d8001c05000002
:020000040000fa
:0401dc001c050000fe
:020000040000fa
:0401e0001c050000fa
:020000040000fa
:0401e4001c050000f6
:020000040000fa
:0401e8001c050000f2
:020000040000fa
:0401ec001c050000ee
:020000040000fa
:0401f0001c050000ea
:020000040000fa
:0401f4001c050000e6
:020000040000fa
:0401f8001c050000e2
:020000040000fa
:0401fc001c050000de
:020000040000fa
:10020000cfc020000e7f24000e01880000000000f7
:10021000000020000000e000020032000001200089
:100220002002880014000700050207000000e0001b
:1002300003003a00e03327000100200002003700ed
:100240000000200001002000810f7000010032003a
:1002500014000700000020000000e000020032004f
:1002600000000200000000007e7f0200000000008d
:100270000040da000000fe004440a900e0852000b4
:100280000000e00003003200002020009001880000
:100290004440a800000006008a1f78008b1f7800e9
:1002a00000000600a1028800800478000000eb0036
:1002b0001f003700e284440054a0b4009905ba003e
:1002c000e284440054a0b4009906ba00e2844400d9
:1002d00054a0b4000006eb00476fde00fd07b2003b
:1002e000ae018800636ce10003003a00eaff0700fa
:1002f0000000eb000e003700606ce10008003a00df
:10030000004deb000a05e800020039003420ec0043
:100310000af0a0008b05e900f9ff3e000400370059
:100320006168e100010032000086eb000b0007006d
:1003300019c7ba001905ba000e04e00003003a001c
:100340000a00e000dbff3a0000000600fe07b200f2
:10035000ae0288008a047800f5ff37000cd0a300b5
:10036000e20f4d001c00390089027800354dba00bb
:100370000a05e800020039003420ec000af0a00071
:100380008b05e9000f003200254dba000a05e80090
:10039000020039003420ec000af0a0008b05e900cf
:1003a000080032000c00e0000600320015cdba0053
:1003b0000a05e800020039003420ec000af0a00031
:1003c0008b05e9008984e80054a0b4000b00e0002c
:1003d000e2ff3a00000006009902ba00055d7800cd
:1003e0008b05e900f7ff3200c82ade00055d7800c2
:1003f0008b05e900f3ff32000c00e000f1ff320052
:1004000019ddba00eeff37004c6c0400000000005c
:1004100082320400000000009c3204000000000052
:10042000ba32040000000000d832040000000000ce
:10043000fa320400000000001c3304000000000039
:100440003e330400000000006c3204000000000095
:10045000c668040000000000ce6804000000000030
:10046000dc68040000000000e868040000000000f0
:10047000f6680400000000000269040000000000ab
:1004800010690400000000001a6904000000000068
:100490002e690400000000007269040000000000e2
:1004a00084690400000000004e22040000000000e7
:1004b000f222040000000000564404000000000086
:1004c00080440400000000009c4404000000000080
:1004d000bc440400000000003600f800809fbe000d
:1004e000829fbe00849fbe00869fbe000000fa006f
:1004f0008a20a900f12480000040200000806000d4
:100500000000e0000f0032009f44a9002828ef00ff
:10051000704180000000e00008003200704180005f
:10052000200090000000e0000400320070418000d4
:10053000200090008000eb00010878002e28ef00da
:10054000cd003700f124800000082000008060000a
:100550000000e0000f0032009ee4a9002828ef0010
:10056000704180000000e00008003200704180000f
:10057000200090000000e000040032007041800084
:10058000200090008000eb00010878002e28ef008a
:10059000b900370040418000e40f5000a90032004c
:1005a000e40f500009003e00e10f5000330032001c
:1005b000e10f50000e003900e20f5000330032000e
:1005c000e30f500047003200a1003700e60f500053
:1005d00084003200e60f500070003900e70f500031
:1005e00098003200e80f5000820032009800370077
:1005f000005f8000620060000000e0009d003a00a3
:10060000f05e800070418800f05e8000104078004d
:100610002ae8b700f05e800010009000604188007a
:10062000f05e800066004000f05e8800f15e8000b1
:10063000c0bd2000808f500002003a0060bd200045
:10064000f05e8800005f80000000a100005f88006d
:10065000f15e8000e05e8000808f500003003a0071
:10066000005f80000010a000005f88009a04a800ce
:1006700020002000404188007f0037009a24a80015
:1006800020002000404188007b003700604180004e
:1006900010007800804188006041800020009000b8
:1006a00090418800604180002040900034e8b7000d
:1006b00080418000b024880080418000610060009b
:1006c000004078000004e0000300320050002000e9
:1006d0004041880068003700300020004041880019
:1006e00065003700f12480000000280000806000d1
:1006f0000000e0000900320010be20001040780029
:100700008040e80010be2000014878009fe4a90066
:1007100050002000212f07005700370034c8bf00c9
:100720008080fb008100e900cf08de008140780076
:100730000040e90034e8b7000104e0001000320096
:100740006041800066004000604188002ac8bf0008
:100750000040e9002ae8b7002ac8bf000004e00012
:1007600003003a00200020000c2f07004200370051
:100770009a24a80020002000404188003e00370055
:1007800090418000904078008180fb00b124880077
:100790000000e8009041880037003700f124800015
:1007a00000002800008060000000e0000900320026
:1007b00010be2000104078008040e80010be2000ed
:1007c0000148780040002000f42e07009fe4a900b3
:1007d000290037009a64a80080002000404188006a
:1007e0002500370080002000404188009a64a8005e
:1007f0002100370090418000a124800081407800d2
:10080000014878000000e8009041880034c8bf002b
:100810000040e90034e8b70034c8bf000004e0003d
:10082000040032009aa4a900600020004041880022
:10083000020037009aa4a800c72e07009a84a800d7
:100840000d00370020002000d42e07000a003700da
:1008500010be2000104078008040e80010be20004c
:100860000148780060002000cc2e07000000000046
:1008700001003700000000000080fa004f03be00b6
:100880004f02be004f01be004f00be003600f9000f
:10089000004006003600f800809fbe00829fbe0028
:1008a000849fbe00869fbe000000fa008020a90041
:1008b0000000eb00673d07000080fa004f03be0018
:1008c0004f02be004f01be004f00be003600f900cf
:1008d000004006003600f800809fbe00829fbe00e8
:1008e000849fbe00869fbe000000fa00603d0700a6
:1008f0008040a90010002000563d07000080fa004b
:100900004f03be004f02be004f01be004f00be00ad
:100910003600f900004006003600f800809fbe0057
:10092000829fbe00849fbe00869fbe000000fa002a
:100930008060a90020002000463d07000080fa00ea
:100940004f03be004f02be004f01be004f00be006d
:100950003600f900004006003600f800809fbe0017
:10096000829fbe00849fbe00869fbe000000fa00ea
:100970008080a90030002000363d07000080fa008a
:100980004f03be004f02be004f01be004f00be002d
:100990003600f900004006003600f800809fbe00d7
:1009a000829fbe00849fbe00869fbe000000fa00aa
:1009b0008600a90070002000263d07000080fa0094
:1009c0004f03be004f02be004f01be004f00be00ed
:1009d0003600f90000400600809fbe000000fa00cb
:1009e000e0428000f142800061004000e080480069
:1009f000e0428800f14288008860a9000080fa0087
:100a00004f00be0000400600809fbe000000fa00bc
:100a1000004380001143800061004000e0804800f6
:100a2000004388001143880088e0a9000080fa0094
:100a30004f00be00004006000040da000000fe004b
:100a4000000005006011b800920137006022b80074
:100a5000060220000000d0008180d2000482d20073
:100a60008582d2000000a0000202520083825a0058
:100a7000030031000202420083824a000000a1000c
:100a80000603e900f3ff3a0000000600efff07004d
:100a90000400be0000000600889fbe008a9fbe00c2
:100aa0008c9fbe001b0020000202be00058668006d
:100ab00006002800060666004709de00f20fb200b5
:100ac000820032000243e80080003200c729de00c5
:100ad000f30fb2007d0032000343e8007b003200d8
:100ae000f107b2000170a000f507b2000570a00088
:100af000c708dd004903de00868070004700dd0086
:100b0000c72add004923de00868272004722dd000d
:100b10000305510004035000858358000300310091
:100b200000004000818048000a05e9008c1f780021
:100b30008a9fbe00040050008580580004024200d5
:100b400085824a0000004000818048000005eb00db
:100b50000004be006033b8000406be000d48e1008a
:100b600056003100110009004dccd8000c01b8002e
:100b70000d02b8008481410060824a0082835300e4
:100b800003045c0084845c0060055d000a00e000f2
:100b900025003a00800578000d40e1004900310051
:100ba0008800780007007800110009004d88d800ff
:100bb0000c01b8000d02b8008481410060824a0037
:100bc0006003110083835b0004045c00e0845c002c
:100bd0000900e00021003a004f01be000300e000e0
:100be0002b003200e3016000070673008c81710066
:100bf00001003200640070004200de004e5edd0045
:100c00000c007000c258de0001e0a0009b0007004d
:100c1000cf017800818071004f06be004f05be00f5
:100c20004f04be00000006008c8343000d044c00fe
:100c3000e0844c0060054d000000e9000a00e0007f
:100c4000d4ff32008c8343000d044c00e0844c0040
:100c500060054d000000e900ceff37000c034300a3
:100c60008d834b0060044c00e0844c000000e900e0
:100c70000900e000d8ff32000c0343008d834b00d5
:100c800060044c00e0844c000000e900d2ff370013
:100c90004200de004e5edd000c007000c258de0037
:100ca00001e0a000cf0178000300e000daff32008d
:100cb00060001000e0801800d7ff3700f0ff2f0021
:100cc000aaff3700f0ff2f00b9ff37000404be0071
:100cd00050000700870678000004fd008104fd0035
:100ce0004c000700078366000678a300030032006b
:100cf0000960a7000800be002c0037000d78a30093
:100d0000020032000800be00280037000778a30068
:100d100026003a0001f0a10009f0a1000668a30036
:100d200003003200f1ff2700f0ff2f00baff370069
:100d30000d68a300030032000800be008c80700024
:100d4000b5ff37000768a30007003a000648a30074
:100d500003003200f1ff2700f0ff2f00aeff370045
:100d60000d48a300030032006000b8008c807000c2
:100d7000a9ff37000748a3000400320001f827004c
:100d8000000020008c807000a3ff37008e00070059
:100d90000004fd008104fd00020578008a000700c0
:100da0000802be008a01780059ff37000160a000e8
:100db000120220007245880097ff37000100e00012
:100dc000120032000500e00010003200889fbe00d3
:100dd0008a9fbe008c9fbe000006eb0001f8a300b6
:100de0000300320060001000e08018000cf0a0004a
:100df00005f8a3000300320060021200e0821a002e
:100e00000cf0a2008005eb0041ff37006000b80045
:100e1000020005002700200001f0a70017002000b5
:100e2000470bde00f60fb200040032000643e80074
:100e30000a0032004702b3000000060001037800f8
:100e4000f607b2000603700002003a000703b30081
:100e5000000006008702b3000000060001037800ce
:100e6000f607b20006037000020032000770a0000f
:100e7000000006000760a00000000600810170006d
:100e8000270032008002eb0001f8a30003003200cb
:100e900060001000e080180015002000f40720001a
:100ea0000202420020003400f703200087036000a4
:100eb0000604200000036300020820000001610016
:100ec0004700de00c909dd0000807100c708de00b0
:100ed0000600e000080032008703710006003200bf
:100ee0001000b0000180b0000188a30002003200b1
:100ef000c108de000402e800f107b200f30f200091
:100f00000320e10003003d004722dd008100720064
:100f10002900370001f827000000eb002600370009
:100f20006000b80000000600680212007f20e100a7
:100f3000020034006000b8001f0037006011b800e4
:100f40007020e10004003500800178000100780085
:100f50008000eb00700252000400e0000900340041
:100f6000f00312000719dd008419de000703dd001d
:100f7000868171000400de00070bdd0006007000b2
:100f80008408de00f7ff2700838363008703710076
:100f90000600280003036300070032000700e0009a
:100fa00003003a0061016000028173000200320018
:100fb0001000b0000180b0000500a600000006008f
:100fc00001f0a000000006004f0ade004709de0025
:100fd000f107b200f20fb2000b003200f207b100cd
:100fe0000170a000c708dd00c901de008380700029
:100ff0004700dd000400a6000000060060001000ad
:10100000e080180000000600810f700001003a0027
:10101000000006008182cf000500e00010003e00c5
:101020008082cf00ee8242007028e1000400390087
:1010300007003e00800078000000eb000e00370043
:10104000708312008600de000500dd000a00370014
:10105000708352008600dd000000eb0006003700c0
:10106000e28252008508dd00708312000603de0074
:10107000868070000500dd007507b0000501ea00fc
:101080000400a6000000060060001000e0801800c8
:1010900000000600889fbe008a9fbe00008270008c
:1010a0000402710004827100260032000004be00b8
:1010b0000200be006011b8006b09200095022000fc
:1010c0000182cf000a0039000541b1000082cf0043
:1010d000070039000541b1000982cf000400390042
:1010e0000541b1000882cf00010039000541b1007f
:1010f00005425200120032000a003b00828171005a
:10110000610164008100d1000080d3008984d30094
:101110000884d3008b05e8000442e800f7ff3a009a
:10112000070037000804440089844c000000480090
:10113000818048008b05e9000442e900f9ff3a008c
:10114000030007004f05be004f04be00000006006c
:1011500081002000618055000b003d000b00200045
:1011600061fe2f000100e1001d003400828171004a
:10117000610164008904d1000884d3000000e80004
:10118000faff3a0071002000610064000300700063
:10119000020060000900320061044400e0844c0059
:1011a0000988a500050032008b05e8006808e10009
:1011b00002003a008904d1000884d300f20f200015
:1011c0000258e10005003d00c75ddd00f907b200ef
:1011d0008980750008007800000006000bf82700e1
:1011e0008b007800000005000000fa0068815700bd
:1011f000cfb89700720207000080fa0000000600d6
:1012000096000700ee000700220107009e0107007c
:10121000c6010700c20207006d0237000000fa0095
:1012200068815700cfb89700650207000080fa0078
:101230000000060089000700e10007009201070096
:10124000ba01070013010700b5020700600237006a
:10125000889fbe008a9fbe00800478000200e000e4
:101260005b00320001407800814c780082814400ac
:10127000f1f99f00e20f51005500360091449800ab
:10128000a1449800e1f99f00d1f99f00e60f5100b9
:101290004f003600b1449800c1f99f00e80f51009b
:1012a0004b0036000905ea00630565000a84440026
:1012b0000a055100c1ff2f00010565000080fb00f9
:1012c0008000eb001210200013102000be05070064
:1012d000008cbe000a01440060b99f0071b99f00f4
:1012e000e80f55003a0036002004980031049800b9
:1012f000400498005104980020b99f0031b99f0024
:1013000040b99f0051b99f00f80f550030003600da
:101310006004980071049800000c9800110c98006b
:10132000200c9800310c9800400c9800510c98004b
:1013300020b19f0031b19f0040b19f0051b19f008b
:1013400060b19f0071b19f0000b99f0011b99f006b
:101350006401640078014100020444000205550064
:101360006011b8000203be000002be000403be000c
:101370006022b800000072008180720002017300d8
:101380008381730010003700009cbe000294be00f1
:101390004004980051049800620498007304980077
:1013a000000c9800110c9800220c9800330c980047
:1013b000400c9800510c9800620c9800730c980037
:1013c0000a02b1000802b000ff0f5500eeff3e0018
:1013d000090078004f05be004f04be000000060063
:1013e00080007800040037003104e00002003a0079
:1013f0000000510000000600010178000108a30070
:10140000f9ff3a008101780031017800f4ef2f00f4
:10141000020242000281ea00020162000408280080
:1014200004016100f7ff32008300780001017800b9
:101430003104e000fdff3a0000005100000006000a
:10144000881f7800000478000800780095040700e1
:10145000080078004f04780000000600ec87470081
:10146000889fbe008a9fbe008c9fbe008e1f7800a2
:101470000006780001047800180790002805900005
:1014800098067800cdb79f00b80590003202be00e4
:101490002203be000400be000601be004f18de009d
:1014a0006011b8008000eb00d0b79f00e1b79f004b
:1014b000f2b79f0083bf9f00800478000900e0001e
:1014c000060032006000b8006011b800040250004d
:1014d0008582580006035900878359000e00e000fa
:1014e000020035000d10a100cdb79f000900e000fb
:1014f00005003a004fb097000028a30002003a0010
:101500000038a300020032008a00e9000100370021
:101510008a007800f8815700a200200008007800b7
:10152000860007000900e00003003a00cfb09700f2
:101530000128a300080032000000e90000814500f6
:10154000b1c2b3000900e00001003200d1c2b30013
:1015500001497800050037000138a300030032007c
:101560000000e90001c2b3008175780048019000d5
:101570000201e90000015100808045004fb2970050
:101580008a0178000c007800300207009c0090006f
:101590000188a3000400320098009000810f5000e1
:1015a00001003d00010078004f0778004f06be00a3
:1015b0004f05be004f04be00cf00b1000000060082
:1015c0000200fa00889fbe008a9fbe008005780056
:1015d00001047800020078001801900028059000ae
:1015e00098007800b1bf9f00b80490000200e000ae
:1015f000020035000110a100b1bf9f00ea81570031
:10160000820020008a0078003002be002003be0065
:1016100008007800490007003fb99700f00061001a
:10162000030032000000e90001c3b30081747800b8
:101630003fb99700e8006100030032000000e900b4
:1016400001c2b30081747800480190000201e900f2
:1016500000015100808044003fba97008a01780061
:101660000b007800f90107009b0090000188a3009f
:101670000400320098009000810f500001003d00ee
:10168000010078004f05be004f04be000080fa0044
:1016900000000600ea874700889fbe008a9fbe00c0
:1016a0008e1f7800000478000300780072875700ce
:1016b00084e2260055c72600049fbe00c396220080
:1016c000030f78006c875700004feb001105900066
:1016d000a1049000910578000200e00002003200b1
:1016e0000207780001003700728757000000e00011
:1016f00002003a000e00780039ff07000a00e000ff
:10170000030035008a0f5000010036000a007800ff
:101710000b02780089017800000178008e007800c3
:1017200008007800c90107004f0778004f05be0088
:101730004f04be00af00b10000000600f487470070
:10174000889fbe008a9fbe008c9fbe008e1f7800bf
:101750000605be000404be0081bf9f0082b79f0043
:10176000f3b79f00b0009000e1b79f00130178002d
:1017700092b79f0090069000400090000000e900a2
:10178000000678000d00e00001003d001d00200073
:101790008040eb00efb19700817178001e002000bf
:1017a0001f0037000c06e9000fb09700cf80de0065
:1017b0006109b900a0b79f00b1b79f00c2b79f00f1
:1017c000d3b79f000203be000002be000800be00a7
:1017d0000a01be0022050700000778000e407800cd
:1017e0000043b000efb0970080707e008d06e900e6
:1017f0000fb997000201e90082bf9f002fb2970046
:10180000bfb297004fb39700dfb397000800be0048
:101810000a01be000b0507000205be000004be0061
:101820000c00e0000d003400e00f5400e08f5c007d
:10183000e00f5d00e08f5d00daff3a000d00e00090
:10184000d8ff3c008fb997000300e000030034008c
:101850001fb097000018a300d2ff3a000e00e0006e
:1018600002003a00ffb097001140a1000c00780080
:101870004f0778004f06be004f05be004f04be0064
:101880004f01b100000006000200fa00889fbe0070
:101890008a9fbe00000578000104780002007800ed
:1018a00018019000a804900098007800b1bf9f0034
:1018b000b80590000200e000020035000110a10010
:1018c000b1bf9f00ea815700a20020008900780084
:1018d0003002be002003be000800780097ff07001a
:1018e000480190000201e90000015100808045009c
:1018f0003fba9700890178000a0078005301070079
:101900009a0090000188a300040032009800900023
:10191000810f500001003d00010078004f05be001e
:101920004f04be000080fa0000000600fa8747005e
:10193000889fbe008a9fbe008c9fbe008e1f7800cd
:101940008004780001047800820578001801900076
:101950002805900018077800b80090000200e00009
:10196000020035000e10a100010037001200200017
:1019700070006700e0b79f00090032003b02be0024
:101980002b03be00e00f5200e08f5a00e00f5b0017
:10199000e08f5b00020032008a86e9000100370018
:1019a0008a067800e8026700f5b79f000100320060
:1019b0008d06e9003b02be002b03be00e4af9f0092
:1019c000f5af9f0086b79f0097b79f00480690002d
:1019d0000c06e9000040eb0080707e00efb297003b
:1019e0007fb297008903780081047800d8af9f0008
:1019f000020478008bbf9f008a05780003457800b9
:101a00002a0037000c06e9006fab97006f006300f7
:101a1000e90f500002003c000003b0000100370055
:101a20007005b0000a03fb001604b100f90f530063
:101a30000c003e00000378000650a0001606b1001e
:101a4000f90f530007003e00b4b79f00a5b79f00f1
:101a5000c7b79f004f030700cfb39700afb29700ff
:101a60003fb2970080747e000804e9008d06e9000b
:101a70006fa89700ffa897000fb197009fb197003c
:101a8000460020008301d1000281d3008180d30071
:101a90000080d3000603e900faff3a00e0af9f00a0
:101aa000f1af9f0082b79f0093b79f00e10f5600f0
:101ab0000f0034006fa89700ffa897000fb19700a0
:101ac0009fb19700e00f5000e08f5800e00f5900e1
:101ad000e08f5900cbff3a000800e000c9ff3c004e
:101ae0000d00e000020034000e18a300c5ff3a000c
:101af00089007800f4b79f00870478005fac9700f6
:101b00008a4178000b0578008fbd97000500e00042
:101b1000100032003b02be002b03be00e4af9f006a
:101b2000f5af9f0086b79f0097b79f00e00f520068
:101b3000e08f5a00e00f5b00e08f5b000500320091
:101b40000c06e90083707e000c06e90000c3b300b8
:101b500080707e00ffb297000500e00003003200b5
:101b60000c06e90000c2b30080707e0048019000be
:101b70000201e9000c0151008c8040000e02780047
:101b80008a01780009007800b000070099009000f1
:101b90000188a3000400320098009000810f5000db
:101ba00001003d00010078004f0778004f06be009d
:101bb0004f05be004f04be00af01b100000006009b
:101bc0008201780001017800f1ff2700f802370058
:101bd00084082000848f50001d0032000d003c005e
:101be00014082000848f50002700320002003c00bf
:101bf000040820000400370024082000848f5000cf
:101c00003400320044082000848f500043003a0022
:101c100036003700040a2000848f5000270032006d
:101c200004003c0004092000848f50003b003a006f
:101c300028003700020c2000828f50002f00320055
:101c4000020f2000828f500034003a002b00370032
:101c50009380e9000200e00005003200810978006d
:101c60001102fb00cfa2de00612bb9002800370073
:101c700081097800114278000482fb008002eb00a9
:101c80006033b8002200370013027800e4005200ed
:101c90000200e00005003200810978001102be0058
:101ca0004fabde0086037800190037008109780009
:101cb0001102be006033b800150037009380e900c0
:101cc0008109780011027800cfa2de00612bb900f3
:101cd0000f00370093027800e880520081097800f5
:101ce0003102be002103be00090037009380e900e5
:101cf0000200e00002003200f1ff37009380e900ab
:101d000081097800110278008002eb006033b8008e
:101d10000498be000690be001000050000000500fb
:101d200044082000848f50002500320008003c0049
:101d300014082000848f5000140032002408200072
:101d4000848f500024003200040820000c0037006b
:101d500004092000848f50001f00320004003c0062
:101d600084082000848f500024003a000e003700c1
:101d7000040a2000848f500011003200040c20005f
:101d8000848f50001d003a000d0037009380e90059
:101d9000810978009100780001087800cf91de0079
:101da0008288be00140037009380e9008109780022
:101db0009100780001087800824878000e00370012
:101dc0009380e9008109780091007800010878008b
:101dd00082087800080037009380e90081097800c4
:101de00091007800010878006112b900612bb900f8
:101df0008498be008690be0010000500000005001b
:101e0000889fbe000004780048009000820478009b
:101e1000808f5400010036008004780009017800aa
:101e20005800900018020700580090000900400078
:101e300050049800c800900089845000490498001c
:101e40000048eb004f04be0000000600f287470088
:101e5000889fbe008a9fbe008c9fbe008e1f7800a8
:101e6000800478000105780002047800830578007a
:101e70006107620002003a008b0f5400080039002d
:101e8000080178008a00780009007800dcff07006c
:101e90008b0f540002003900880578001e003700bf
:101ea000088655000c017800f00f5600010036003e
:101eb00002012000010220007e805700e4fc0700a0
:101ec0008c0678000500370002012000fe805700d4
:101ed00009007800caff0700f0865600ef8f560011
:101ee000f9ff3e004461de0000ff2f000091b900c1
:101ef00002014600fe80570009007800c0ff07007d
:101f00000e00e00004003a00080178008a00780022
:101f100009007800baff07000b0078004f0778002f
:101f20004f06be004f05be004f04be002f01b1009a
:101f3000000006000000050000000500000005008c
:101f4000000178000040eb008080fb0081804000b1
:101f5000a3bb200063c278000404e00003003a0041
:101f6000b0bb200060c0780000000600920178003d
:101f7000934f520004003a00b0bb200060c07800cc
:101f80000309e800010037000040e800ea4f500074
:101f9000edff360000000600f6874700889fbe0070
:101fa0008a9fbe008c9fbe008e1f780000057800bf
:101fb0000104780083057800040678000000eb0037
:101fc000c0b79f008080eb00d1b79f00e0b79f00b3
:101fd000f2b79f000008200080bf9f0098007800a3
:101fe000010078008004eb00010037008904e8005c
:101ff000304178000204e0000300320053c2b30015
:10200000834f5100f9ff3a000900e000040032005c
:10201000090178000a00780079ff0700188c440055
:102020001807780050c2b3009e4f10003f013a00dd
:102030000e07e8000e0c780010003700cfb09700b4
:102040000100a0000b003700cfb097000110a000e6
:1020500008003700cfb097000120a000050037002e
:10206000cfb097000130a00002003700cfb097003a
:102070000140a000c1b79f00000ce80018007800e4
:1020800090407800b2c2b30082cf5000f1ff32001e
:1020900007003c0002c2b30082cf5000f0ff3200c4
:1020a00032c2b30082cf500007003a00efff370082
:1020b000d2c2b30082cf5000e0ff320002c3b300af
:1020c00082cf5000e0ff3200a2c2b30082cf5000a6
:1020d0000d003a00000ce8001c80e900000e7800ba
:1020e00010007800e0b79f000000e0000f003d0006
:1020f000cfb097000100a200c1b79f000000ea0026
:10210000e0b79f000900370039010700e0b79f00e2
:1021100001003700000ce800180078009000fb0078
:102120000103b100e98f5000faff36004fb097006d
:102130000008a300020032000010a100c0b79f00f9
:1021400018007800e1c2b30090cf100016003a00ea
:102150008000eb00d1b79f000000e800000c780081
:10216000a1c2b30090cf100006003a00000ce800b6
:102170001c80e900000e780010007800d0b79f00a6
:10218000090037001a010700d0b79f00010037008f
:10219000000ce800180078009000fb000103b1007b
:1021a000e98f5000faff36000800780064ff07004e
:1021b00080467800180078001000fb006e010700d0
:1021c00091062000810f50003800320012003c00c0
:1021d00041062000810f5000340032000a003c000c
:1021e00011062000810f500020003200310620002f
:1021f000810f5000a000320051022000810f5000da
:10220000bc003a00b400370071062000810f500076
:10221000b8003c008800370001072000810f500003
:102220005c00320007003c00e1062000810f5000f6
:102230007a003200f1062000810f5000ad003a0014
:102240003900370051072000810f5000270032006d
:1022500081072000810f500042003200310720002a
:10226000810f5000a3003a008f0037008d80fb00e3
:102270000c01780000fe2f000f00400071010700e4
:102280000000e000a800320018007800000ce80010
:102290009041780002fe2f000f014100f8805700a6
:1022a0000a00780024ff07000e0037008d80fb0035
:1022b0008c0178001200200000fe2f000f0040006b
:1022c00043fe07000000e00097003200180ce80011
:1022d00002fe2f000f014100f88057000a0078002d
:1022e0005efc070080844400900037008d80fb0076
:1022f0008c0178000001eb0000fe2f000f00400071
:1023000033fe07000000e00087003200180ce800f0
:1023100002fe2f000f014100f88057000a007800ec
:1023200059fd0700efff37008d80fb008c0178001e
:102330000001eb0000fe2f000f00400024fe07000c
:102340000000e00078003200180ce80002fe2f00c8
:102350000f014100f88057000a00780098fc070040
:10236000e0ff37008d80fb008c0178000001eb005e
:1023700000fe2f000f00400015fe07000000e000e7
:102380006900320018007800000ce80090417800e5
:102390001c0037008c0178000001eb00010f2000c9
:1023a00000fe2f000f00400009fe07000000e000c3
:1023b0005d003200180ce8000fb097009fb0970046
:1023c0002fb19700bfb19700e00f5000e08f580089
:1023d000e00f5900e08f590009003a00cfb597008f
:1023e0006fb4970020bb2000fdfb07000b027800b4
:1023f000880178000001780021bb200047003700e9
:1024000083c7b30002fe2f000f014100f880570080
:102410000a00780045fd0700b2ff37000b81440039
:102420008d80fb008c01780000fe2f000f00400023
:102430003bfe07003c0037008d80fb000c0178005c
:1024400000fe2f000f004000fe0007000000e0002b
:102450003500320018007800000ce8009041780048
:1024600002fe2f000f014100f88057000a0078009b
:10247000b1fe07009bff370000c8b30080cf5600b5
:1024800029003a00180ce8001c80e900000e7800d2
:1024900010407800e0df9f0013002000e2fd2f00d5
:1024a0000f0141000800370000c8b30080cf56007c
:1024b0001d003a00180ce8001c80e900000e7800ae
:1024c0008001eb0010017800f88057000a007800c6
:1024d00070fc070083ff370000c8b30080cf5600b0
:1024e00011003a00180ce8004fb29700efb19700c6
:1024f000080037000e0c78000000eb00c0b79f000a
:10250000e0b79f000080eb00d0b79f000002eb0017
:10251000840178001200200081bb20000a007800ae
:102520004afe07006fff3700180ce800090078002a
:102530004f0778004f06be004f05be004f04be0097
:102540006f01b100000006008200fa00889fbe0003
:102550008a1f78000005780082047800c13f9f0040
:102560000004eb00100037000902780088017800b1
:10257000a2f72f000f01410081f72f008f8040004c
:102580000a00780084fe070008004000880f500011
:1025900004003d00b0042000506088000084eb007f
:1025a00004003700000478004f3897001004e00062
:1025b000edff3a00080078004f0578004f04be0098
:1025c0000080fa0000000600800078001000200063
:1025d00002022000828f500004003200e980500087
:1025e000e48f5000010036000000eb000000060000
:1025f000889fbe008a1f7800000578000a047800d2
:10260000984478000805e8000900fb00eeff070089
:102610000000e000f9ff3a00b0c2b30080cf5400e0
:1026200005003200d0c2b3008000eb0080cf540020
:1026300005003a00020037008000eb00010037007f
:10264000110020000804e8000000eb000300370040
:102650006a02b900020052000003b0003801fb001a
:1026600003fd2f0082814100e98f5100f8ff360001
:102670000100e00001003a000000ea004f05780088
:102680004f04be0000000600800178000200370001
:10269000b15978000201e9000200e000fcff3a00b5
:1026a00000000600881f7800810178000002780091
:1026b000808268000508a300020032002100370074
:1026c0000201e90003007800040478000308a30075
:1026d000070032000200e00021003200b340780021
:1026e000015a78000104e000f5ff3a0002003700cb
:1026f0000200e0001a0032001004e00003003a007b
:1027000017003700031c78000281e9008000780080
:10271000e10f510008003600b0017800f5ef2f00fe
:10272000838242000382ea000482620005082800d6
:1027300005026200f3ff3200080078000100370054
:102740000201e900000478000200e0000400320009
:10275000b1417800035878000304e000f8ff3a0024
:102760008000eb0008007800b9fa07000800780044
:102770004f04780000000600f1fb2f00808040002d
:10278000f98f500001003e000050a000000006003c
:10279000f9ff3700f1f92f0080804000f98f5000d9
:1027a00001003e00f005b20000000600f9ff37000e
:1027b000f28747008e1f780002027800030178003c
:1027c0000000e0000200320000077800010037003e
:1027d000728757008002eb000100e0000100320028
:1027e0008102e90070805700060009000018eb0024
:1027f0000080eb0080bf9f002310200093bf9f004c
:10280000aebf9f00b1bf9f00c5bf9f000100e000a9
:1028100003003d00b104200051608800060037002d
:10282000004feb00eebf9f00debf9f0084007800ea
:1028300070805700220007004f0778002f01b10079
:1028400000000600881f78000004780000082000bf
:10285000808f50001700350010082000808f500036
:102860000b00340030082000808f500011003a0027
:102870009200780068805000000978003002be00a5
:102880002003be00049cbe000694be000700370073
:102890009202780064805200000978001000be00a7
:1028a00015000700009cbe000294be00100020002e
:1028b000010037000000eb004f0478000000060024
:1028c0000200fa00881f780000047800e2bf9f0031
:1028d00064815700080078001bff070098009000f3
:1028e0000148a300010032000080eb004f04780093
:1028f0000080fa0000000600810378001d00070038
:102900000001be006000b8000478a30013003a0084
:102910006220e10015003e000d0039008301d10066
:102920000281d3008180d3008301d1000281d300d2
:102930008180d3008301d1000281d3008180d30044
:102940000538b000c42add00f300b20083817200b4
:1029500007f0a70003f0a0000000060083ff270097
:10296000020020006110b900f9ff370003ff2700c3
:10297000f7ff3700c70ade00f107b200f50fb2001b
:1029800008003200e1cf4200020032000170a000d6
:1029900024000500810f70000100320004080500ca
:1029a00044000500810f700002003a001400050089
:1029b0008502e9000000400081c04800fcff3b00a8
:1029c0000170a00024000500020ab900001bb90034
:1029d0000200b800810042008100430000000600b0
:1029e000889fbe008a9fbe0030044200b0844a0027
:1029f00030054b0090854b006000b1000898be0088
:102a00000a90be000440e10005c8e10006d0e100e4
:102a100007d8e10002003100680040001008e8001b
:102a20004f05be004f04be0000000600889fbe0098
:102a30008a9fbe003004be002005be00041854006a
:102a400005985c0006185d0007985d0011002000e5
:102a50000440e10005c8e10006d0e10007d8e1002c
:102a6000010039008000eb00108810004f05be0007
:102a70004f04be00000006001200fa00889fbe004e
:102a80008a9fbe008c9fbe00e0b79f00f1b79f00f9
:102a900082bf9f0093bf9f000605be000404be00d6
:102aa0000000eb00d0b79f00c0b79f00b0b79f00f9
:102ab000a0b79f0090b79f00000678005fb1970015
:102ac000cfb09700820141003fb097000200e000c4
:102ad00004003d00370007007e805700c0ff07005c
:102ae00003003700330007007e805700cfff070048
:102af000dfb697000d00e0000c0035006fb29700c4
:102b0000ffb297000fbb97009fbb970010002000fb
:102b1000010020006011b800000272008182720082
:102b200002037300838373001b0007000c06e80098
:102b300001042000810f5600e0ff3a000d00e00084
:102b400004003d000802be000a03be007e8057005c
:102b5000a3ff07005fa897000000e00005003a000f
:102b60001fb29700afb297003fb39700cfb3970063
:102b7000090007006fb09700ffb097000fb99700ea
:102b80009fb997004f06be004f05be004f04be0020
:102b90000080fa00000006000100070000000600a7
:102ba000a4b79f00b5b79f00c6b79f00d7b79f00d7
:102bb000000006004f09de0082817100b3b79f005c
:102bc0004f01de008180400082807000a1b79f002d
:102bd0008fb097004f09de00000040000200700037
:102be00090b79f007fa897004f01de0081804000d2
:102bf0008280700081b79f000d0007004f3ade0011
:102c00000000400004007000f0af9f0008000700c3
:102c10000402420085824a0006034b0087834b0072
:102c2000dfff07000802be000a03be000000060026
:102c30002fb29700bfb297004fb39700dfb3970052
:102c400000000600881f780018002000881f780008
:102c500089ff07008f87e9004f0478000000060015
:102c6000801feb0084ff07008f87e900000006004b
:102c7000889fbe008a9fbe00e00f5000e08f580082
:102c8000e00f5900e08f59000c003d006044b8008f
:102c90006055b8000000540081805c0002015d00b6
:102ca00083815d00180020001500070008003d002a
:102cb000180007000004eb00050037000004eb00db
:102cc0000f00070002003d0012000700180020005e
:102cd000dcff07000800e000060032006022b800b8
:102ce0006033b8000000520081805a0002015b008e
:102cf00083815b004f05be004f04be00000006004c
:102d0000e00f5200e08f5a00e00f5b00e08f5b00a5
:102d1000000006006044b8006055b800040254008a
:102d200085825c0006035d0087835d00000006006d
:102d3000889fbe008a9fbe008c1f7800e00f500065
:102d4000e08f5800e00f5900e08f59000d003d0062
:102d50006044b8006055b8000000540081805c00f9
:102d600002015d0083815d001c0020000820e1005d
:102d700009a8e1000ab0e1000bb8e1000d003d0038
:102d8000080037000006eb00e00f5200e08f5a0009
:102d9000e00f5b00e08f5b0006003d006044b80080
:102da0006055b8000402540085825c0006035d0093
:102db00087835d00aaff07000c00e00006003200d8
:102dc0006022b8006033b8000000520081805a00d1
:102dd00002015b0083815b004f0678004f05be0057
:082de0004f04be0000000600d4
:020000040000fa
:102de800ffff0000ffff0000ffff0000ffff0000e3
:102df800ff030000c0ff0000fffb0000dfff000032
:102e0800ff1b0000d8ff0000ffdb0000dbff000015
:102e1800ff1b0000d8ff0000fffb0000dfff0000e1
:102e2800ff030000c0ff0000ff3f0000fcff0000a0
:102e3800ff3f0000fcff0000ff0f0000f0ff000054
:102e4800ffff0000ffff0000ffff0000ffff000082
:102e5800ffff0000ffff0000ffff0000ffff000072
:102e6800ffff0000ffff0000ff1f0000f8ff000049
:102e7800ffef0000f7ff0000ff370000ecff000045
:102e8800ffdb0000dbff0000ffdb0000dbff0000d2
:102e9800ffdb0000dbff0000ffdb0000dbff0000c2
:102ea800ff5b0000dbff0000ff370000ecff0000c5
:102eb800ffef0000f7ff0000ff1f0000f8ff000011
:102ec800ffff0000ffff0000ffff0000ffff000002
:102ed800ffff0000ffff0000ffff0000ffff0000f2
:102ee800ffff0000ffff0000ff030000c0ff00001d
:102ef800ff9b0000d9ff0000fffb0000dfff000080
:102f0800ff030000c0ff0000ff9b0000d9ff000086
:102f1800ff9b0000d9ff0000fffb0000dfff00005f
:102f2800ff9b0000d9ff0000ff9b0000d9ff0000b5
:102f3800fffb0000dfff0000ff030000c0ff0000f0
:102f4800ffff0000ffff0000ffff0000ffff000081
:102f5800ffff0000ffff0000ffff0000ffff000071
:102f6800ffff0000ffff0000ffe70000e7ff000091
:102f7800ffc30000c3ff0000ffdb0000dbff000011
:102f8800fff70000efff0000ff1b0000d8ff000064
:102f9800ffdb0000dbff0000ffdb0000dbff0000c1
:102fa800ff1b0000d8ff0000fff70000efff000044
:102fb800ffcf0000f3ff0000ff1f0000f8ff000034
:102fc800ffbf0000fdff0000ffdf0000fbff000067
:102fd800ffff0000ffff0000ffff0000ffff0000f1
:102fe800fffd0000ffff0000ffe50000e7ff000015
:102ff800ffc30000c3ff0000ffdb0000dbff000091
:10300800fff70000efff0000ff1b0000d8ff0000e3
:10301800ffdb0000dbff0000ffdb0000dbff000040
:10302800ff1b0000d8ff0000fff70000efff0000c3
:10303800ffcf0000f3ff0000ff1f0000f8ff0000b3
:10304800ffbf0000fdff0000ffdf0000fbff0000e6
:10305800ffef0000f7ff0000ffff0000ffff000088
:10306800ffff0000ffff0000ff7f0000feff0000e1
:10307800ff3f0000fcff0000ff1f0000f8ff0000fa
:10308800ff070000e0ff0000ff030000c0ff000092
:10309800ff030000c0ff0000ff030000c0ff0000a6
:1030a800ff030000c0ff0000ff030000c0ff000096
:1030b800ff070000e0ff0000ff0f0000f0ff000026
:1030c800ff3f0000fcff0000ffff0000ffff0000c3
:1030d800ffff0000ffff0000ffff0000ffff0000f0
:1030e800ffff0000ffff0000ffc30000c3ff000058
:1030f800ffdb0000dbff0000ffdb0000dbff000060
:10310800ffc30000c3ff0000ffdb0000dfff00007b
:10311800ffdb0000dfff0000ffc30000c3ff00006b
:10312800ffff0000ffff0000ffcf0000f3ff0000db
:10313800ffcf0000f3ff0000ffcf0000f3ff000007
:10314800ffcf0000f3ff0000ffff0000ffff0000bb
:10315800ffff0000ffff0000ffff0000ffff00006f
:10316800ffff0000ffff0000ff830000c3ff000017
:10317800ffb70000dbff0000ffb70000dbff000027
:10318800ff830000c3ff0000ffdb0000dfff00003b
:10319800ffdb0000dfff0000ffc30000c3ff0000eb
:1031a800ffff0000ffff0000ffcf0000f3ff00005b
:1031b800ffcf0000f3ff0000ffcf0000f3ff000087
:1031c800ffcf0000f3ff0000ffff0000ffff00003b
:1031d800ffff0000ffff0000ffff0000ffff0000ef
:1031e800ffff0000ffff0000ff3f0000f0ff0000ae
:1031f800ffdf0000efff0000ffdf0000ecff000032
:10320800ffdf0000ecff0000ffdf0000efff000021
:10321800ff3f0000f0ff0000ffff0000ffff00007d
:10322800ff0f0000fcff0000fff70000fbff00009d
:10323800ff370000fbff0000ff370000fbff000026
:10324800fff70000fbff0000ff0f0000fcff00007d
:10325800ffff0000ffff0000ffff0000ffff00006e
:10326800ffff0000ffff0000ff1f0000f8ff000045
:10327800ffef0000f7ff0000ff370000ecff000041
:10328800ffdb0000dbff0000ff5b0000dbff00004e
:10329800ffdb0000dbff0000ffdb0000dbff0000be
:1032a800ff1b0000d8ff0000fff70000efff000041
:1032b800ffef0000f7ff0000ff1f0000f8ff00000d
:1032c800ffff0000ffff0000ffff0000ffff0000fe
:1032d800ffff0000ffff0000ffff0000ffff0000ee
:1032e800ffff0000ffff0000ff330000f3ff0000b6
:1032f800ff330000f3ff0000ffff0000ffff0000a6
:10330800ff330000f3ff0000ff330000f3ff00006d
:10331800ffff0000ffff0000ff330000f3ff000085
:10332800ff330000f3ff0000ffff0000ffff000075
:10333800ff330000f3ff0000ff330000f3ff00003d
:10334800ffff0000ffff0000ffff0000ffff00007d
:10335800ffff0000ffff0000ffff0000ffff00006d
:1033680044690000737000006c610000792000005f
:103378004d6f00006465000000540000696d000096
:1033880065200000466f0000726d00006174000047
:10339800005300006574000020540000696d0000af
:1033a80065000000536500007420000044610000bf
:1033b800746500000053000065740000204100009f
:1033c8006c610000726d0000004100006c6100003b
:1033d800726d0000204f00006e2f00004f66000045
:1033e80066000000504f00004d4f000020440000d0
:1033f8004f5200004f000000b49900000100000087
:10340800c199000002000000cd99000003000000ef
:10341800d699000004000000df99000005000000b4
:10342800e999000006000000f69900000700000076
:103438004469000067690000746100006c000000c6
:10344800416e0000616c00006f67000000420000e0
:10345800696e000061720000790000001c9a00008b
:10346800249a00002b9a0000313200002048000006
:103478006f75000072000000323400002048000020
:103488006f75000072000000389a0000409a000032
:10349800f4980000349900007499000074980000b2
:1034a800b4980000f4970000b49700004f4e000055
:1034b800004f000046460000004d0000454e000049
:1034c80055000000619a000020000000b00a0000ca
:1034d800000000002e69000072690000be0a0000aa
:1034e80044490000535000004c41000059000000be
:1034f800749a00001a0100004c9a0000329a0000e9
:103508000000000000000000ce0a0000464f000046
:10351800524d000041540000000000008a9a00004b
:103528001a010000529a0000489a000000000000aa
:1035380000000000de0a0000414c0000415200007b
:103548004d000000a09a00001a010000569a0000e1
:10355800000000000000000084690000ee0a00007e
:103568005f5f000005080000000000000000000088
:103578000000000000fa00000000000000e0000069
:1035880000e0000000280000fe280000fe280000df
:1035980024540000fe54000048c40000c810000075
:1035a800264600006c9200006a0400000a00000031
:1035b80010e00000c0000000003800004482000055
:1035c8000000000082440000380000005438000069
:1035d800fe38000054100000107c0000101000009d
:1035e800000000000e0c0000001000001010000089
:1035f8001010000000000000060600000004000093
:1036080008100000204000007c8a000092a2000000
:103618007c00000042fe0000020000004e92000004
:10362800929200006284000082920000b2cc0000f6
:103638001828000048fe000008e40000a2a20000cc
:10364800a29c00003c520000929200008c82000074
:103658008488000090e000006c92000092920000c4
:103668006c62000092920000947800000000000054
:103678002800000000000000022c000000000000ec
:1036880000100000284400008228000028280000bc
:103698002828000000820000442800001040000094
:1036a800809a0000906000007c820000ba9a0000b6
:1036b800723e000048880000483e0000fe9200006c
:1036c800929200006c7c000082820000824400001c
:1036d800fe820000828200007cfe000092920000c0
:1036e80092820000fe90000090900000807c000014
:1036f800828200008ace0000fe1000001010000038
:10370800fe00000082fe00008200000004020000ab
:1037180082fc000080fe00001028000044820000a7
:10372800fe0200000202000002fe00004038000015
:1037380040fe0000fe20000010080000fe7c000093
:1037480082820000827c0000fe90000090900000c1
:10375800607c0000828a0000847a0000fe900000ed
:10376800989400006264000092920000924c00005d
:10377800c0800000fe800000c0fc000002020000c3
:1037880002fc0000f804000002040000f8fc00003d
:10379800021c000002fc0000c628000010280000df
:1037a800c6c00000201e000020c00000869a00004d
:1037b80092b20000c2000000fe8200008282000077
:1037c8004020000010080000040000008282000071
:1037d80082fe00002040000080400000200200001f
:1037e800020200000202000000c00000e010000019
:1037f800000400002a2a00001c020000fe14000039
:10380800222200001c1c00002222000022140000ba
:103818001c22000022140000fe1c00002a2a0000be
:103828002a180000001000007e90000040300000c0
:103838004a4a0000523c0000fe1000002020000010
:103848001e00000022be000002000000040200006a
:1038580002bc000000fe0000081400002200000066
:1038680000820000fe020000003e0000201e000052
:10387800201e00003e100000202000001e1c00003a
:1038880022220000221c00003e1800002424000010
:103898001818000024240000183e00003e10000004
:1038a80020200000101200002a2a00002a2400000c
:1038b80020200000fc220000243c0000020200003e
:1038c800043e00003804000002040000383c0000f8
:1038d800020c0000023c0000221400000814000042
:1038e800223200000a0a00000a3c000022260000da
:1038f8002a32000022000000106c00008200000044
:1039080000000000fe00000000000000826c0000c3
:10391800100000004080000040200000400000002f
:103928002f1b0000311b0000331b0000351c00005a
:10393800371d0000391e00003b1f00003c2000001e
:103948003e2200003f2300004025000041270000e0
:1039580042290000432b0000432d0000432f0000a4
:103968004331000043330000423500004137000076
:10397800403900003f3b00003e3c00003c3e000058
:103988003b3f00003940000037410000354200004d
:1039980033430000314300002f4300002d43000053
:1039a8002b43000029420000274100002540000069
:1039b800233f0000223e0000203c00001f3b000087
:1039c8001e3900001d3700001c3500001b330000a5
:1039d8001b3100001b2f00001b2d00001b2b0000bb
:1039e8001c2900001d2700001e2500001f230000c1
:1039f8002022000022200000231f0000251e0000b6
:103a0800271d0000291c00002b1b00002d1b000097
:103a18002f0f0000320f000036100000391100008f
:103a28003c1200003f13000042150000441700003c
:103a3800471a0000491c00004b1f00004c220000e0
:103a48004d2500004e2800004f2c00004f2f00008d
:103a58004f3200004e3600004d3900004c3c00004b
:103a68004b3f000049420000474400004447000023
:103a7800424900003f4b00003c4c0000394d00001b
:103a8800364e0000324f00002f4f00002c4f000030
:103a9800284e0000254d0000224c00001f4b00005e
:103aa8001c4900001a470000174400001542000096
:103ab800133f0000123c00001139000010360000ce
:103ac8000f3200000f2f00000f2c000010280000fc
:103ad8001125000012220000131f0000151c000011
:103ae800171a00001a1700001c1500001f13000009
:103af8002212000025110000281000002c0f0000e1
:103b08002f09000033090000370a00003b0b0000b2
:103b18003e0c0000420e0000451000004813000053
:103b28004b1600004e190000501c000052200000e7
:103b38005323000054270000552b0000552f000088
:103b48005533000054370000533b0000523e00003c
:103b5800504200004e4500004b480000484b000012
:103b6800454e0000425000003e5200003b5300000a
:103b780037540000335500002f5500002b55000026
:103b88002754000023530000205200001c5000005e
:103b9800194e0000164b00001348000010450000a5
:103ba8000e4200000c3e00000b3b00000a370000ec
:103bb80009330000092f0000092b00000a27000024
:103bc8000b2300000c2000000e1c00001019000040
:103bd8001316000016130000191000001c0e000038
:103be800200c0000230b0000270a00002b0900000e
:103bf80025300000326400003a2500003032000011
:103c0800643a0000253000003264000000440000df
:103c18004542000055470000005000004f54000086
:103c280020250000347500002025000033750000b1
:103c380025250000004100005825000034640000dc
:103c480020410000592500003464000000410000b4
:103c58005a2500003464000000410000434300007e
:103c6800454c0000204500005252000000000000b2
:103c78004f4e0000004f0000464600000041000083
:103c88004c20000025300000326400003a25000076
:103c9800303200006420000025730000005300004b
:103ca800323d0000414c0000415200004d00000030
:103cb80025300000326400003a2500003032000050
:103cc800643a00002530000032640000005400000f
:103cd800494d000045000000253000003264000016
:103ce8003a25000030320000640000004441000022
:103cf800544500000025000030320000642f000009
:103d08002530000032640000005000004f4d0000d4
:103d18004f000000572500003032000064200000ea
:103d2800422500003032000064000000414c0000d1
:103d3800415200004d0000002530000032640000b0
:103d4800004300006f6d0000696e000067200000ee
:103d5800536f00006f6e00000000000000000000bc
:103d6800ff00000000450000ff00000000a5000063
:103d7800ff00000000d70000ff00000000ff000067
:103d8800ff0000002fff0000ad00000000ff000052
:103d9800000000007fff000000000000ffbf0000df
:103da80000000000ff00000000000000e22b0000ff
:103db8008a000000800000008000000093140000ca
:103dc800ff000000574f0000524b00000042000067
:103dd80052450000414b0000004c00004f4e0000cf
:103de800470000005245000041440000590000000f
:103df8002530000032640000003a00000050000046
:103e080041550000534500004400000038340000cc
:103e180032310000000000009e8d00009e8d0000e1
:103e28003ecd00003ecd0000ffb50000ffb500000c
:103e38004d0000005300000048000000253000003d
:103e480032640000005000004d000000414d0000a9
:103e5800003a0000000000002001000000000000ff
:103e680000000000200100000f000000000000001a
:103e78001f1c00001f1e00001f1e00001f1f000047
:103e88001e1f00001e1f00002530000032640000c5
:0c3e98002f250000303200006400000004
:020000040000fa
:103ea4000200fa00004f7800114798009e80fb0042
:103eb400c00320000088b900800078001e409000f4
:103ec4000080fb0000017800110009008200d80086
:103ed400004078000080fa00000006001200fa009a
:103ee400204f9800314f9800424f98007307980074
:103ef400040f9800be4890002e489000e8ff070089
:103f0400004f78001e80fb000000400041d82900cb
:103f1400614078000000fb00f002b1001007980037
:103f24001e80fb00000040000000e80041d829008a
:103f3400614078000000fb00f002b1002007980007
:103f44004e4890008080fb001e0090000088b9005d
:103f54008000780060022000000178001100090050
:103f64008200d800300798004e4890008080fb0003
:103f74002e0090000088b9008000780060022000c4
:103f840000017800110009008200d8004007980061
:103f94003e009000f1022000808040007e009000ee
:103fa400010878004e00900041032000808040000a
:103fb4000e089000010878000080fa000000060056
:103fc4002a00fa00401798004e10900003f50700ed
:103fd4003007980070c0b300004f78001e4078008e
:103fe400eb4f500002003600b0c0b300004f780021
:103ff4000040eb00005798000040eb00405f980041
:104004009e80fb003e009000808f50000700390026
:1040140070004700b2002000ce10900007f50700a2
:104024000040eb00305f98003e0037000000eb00da
:10403400100798000000eb00200798000c003700e0
:10404400ce1090002e009000008040009040780038
:1040540000c2b30080cf500002003a00ae009000ce
:10406400110798002e0090000000e8002007980037
:10407400ae0090003e009000808f5000040031009c
:104084009e80fb002e009000808f5000ecff3e00cd
:104094001e0090000000e000040032009e80fb003f
:1040a4001e009000808f500002003e001e80fb0026
:1040b40010079800700047001e019000ce10900079
:1040c400def40700f00047001e009000008040006e
:1040d4008040eb0001487800030037001e00900088
:1040e4000000e80010079800ce1090001e00900019
:1040f400008040009040780000c2b30080cf5000a0
:10410400f6ff3200ce1090001e0090008080400028
:104114007c004700b2002000c8f407000040eb0018
:104124007067980070004700acf407000040780006
:104134006600b90000007800004f98007c0047003a
:10414400a6f40700004078006600b900000078007b
:10415400104f98008e4890001e489000814f5000e8
:10416400010031000140780068404000204f980071
:104174004e5890000004e0000200320020c1b30059
:1041840001003700c0c0b300304f98002e489000a3
:104194000080fb000000d10000407800f1c2b300b1
:1041a40000c05000404f98003e4890000080fb0043
:1041b4000000d1000040780041c3b30000c05000ab
:1041c400504f98002e4890000080fb000000d10062
:1041d40000407800f042b000604f98003e489000e4
:1041e4000080fb000000d100004078004043b00094
:1041f400704f9800640e2200fe4990006e499000b2
:10420400de4890004e4890009f0707004e589000eb
:104214000004e0000e003a00f00047000e48900051
:104224000080fb000000d10000407800f2c2b3001f
:1042340000405100e5d928000102780013c0b30002
:1042440012c0b30011c3b300150807001a003700e9
:10425400f00047000e4890000080fb000000d100f1
:1042640000407800f2c2b30000405100e5d92800b4
:104274000102780013c0b30012c0b300d1c2b3006e
:1042840007080700fc0047001e4890000080fb0060
:104294000000d10000407800f2c2b3000040510099
:1042a400e5d928000102780013c0b30012c0b3009e
:1042b40051c3b300fa0707000080fa0000000600ab
:1042c4000200fa00000f7800640e2200b3c0b300ad
:1042d400f2c5b30011c0b3000040eb006a07070049
:1042e4001e007800f55f2b000002780013c0b300b5
:1042f40012c0b30011c0b30020c0b300e807070028
:104304000080fa00000006000c00fa008e2d070061
:10431400000f78001e007800a040900080b42000b8
:104324001040780080cf50002a003200640e220032
:10433400b3c0b300f2c5b30011c0b300f0c2b30000
:10434400510707001e007800204090008081fb0088
:104354001e007800104090000081fb001e007800d1
:10436400104078008080fb000e80e800831f7800f6
:10437400821f7800811f7800c1e52900811f780021
:10438400a5f30700e88757000e80e80005b926006a
:104394000002780013c0b30012c0b30011c0b30010
:1043a40000c3b300be0707001e00780061b42000fc
:1043b400904878008100e8000000e8009048780008
:1043c4008100e8000000e800904878008100e800df
:1043d4000000e8000080fa00000006000c00fa006b
:1043e400592d0700000f7800640e2200b3c0b300fb
:1043f400f2c5b30011c0b300f0c2b3002207070036
:104404001e007800204090008081fb001e00780090
:10441400104090000081fb001e00780010407800de
:104424008080fb000e80e800831f7800821f7800e4
:10443400811f7800c1e52900811f780076f3070009
:10444400e88757000e80e80005b9260000027800ce
:1044540013c0b30012c0b30011c0b30000c3b30053
:104464008f0707001e00780061b420009048780090
:104474008100e8000000e800904878008100e8002e
:104484000000e800904878008100e8000000e8009f
:104494000080fa00000006000800fa006047980057
:1044a40071479800604580000000e0004900320038
:1044b40060458000a040900060458000600090004e
:1044c40010407800e40147000e81e8000302780000
:1044d4008201780001417800804078006e409000ad
:1044e4007efe070060458000400090000000e00070
:1044f4000500320060458000c00090006e409000ce
:10450400010001000700370060458000a000900012
:104514006e4090000080fb000000400000804000de
:1045240010007800000f78007e4090000004e00046
:10453400140032002e009000804078001e0090008d
:1045440000407800e3d92800b2c0b3003e0507005c
:104554002e00900000407800e84050001e009000bb
:10456400004078007040500006c1b3009e027800fd
:1045740014c0b30013c0b300620e22006b0707001f
:10458400150037002e009000804078001e00900037
:1045940000407800630e2200b2c0b3002a05070071
:1045a4002e00900000407800e84050001e0090006b
:1045b400004078007040500006c1b3009e027800ad
:1045c40014c0b30013c0b30002b926005707070094
:1045d40001003700000000000080fa00000006001f
:1045e4000400fa0020479800604580000000e000c5
:1045f4001400320060458000500090000000e0008c
:104604000500320060458000d00090002e409000ec
:10461400010001000700370060458000b0009000f1
:104624002e4090000080fb0000004000008040000d
:1046340010007800000f78001e00780060fe07006c
:1046440001003700000000000080fa0000000600ae
:104654000200fa00000f78009e007800614588008f
:104664001e00780060009000e124220011009800f0
:104674001e00780060009000212f22002100980085
:10468400640e2200f3c5b300f2c5b300c1c0b30089
:104694000040eb007c0607001e0078001000780044
:1046a40007ff07004dff07001e0078003040900010
:1046b4000004e00005003200630e220062c1b30072
:1046c40041c3b300f0c2b300df0407001e0078004a
:1046d40060009000021b07000080fa000000060042
:1046e4000200fa00000f78009e00780061458800ff
:1046f4001e00780060009000e12422001100980060
:104704001e00780060009000212f220021009800f4
:104714001e007800600090002d1b07000080fa0046
:10472400000006000a00fa00000f780021479800f4
:104734002207980033079800440798001e00780069
:10474400e30f5000030032001e007800e50f500014
:1047540017003a002e4090000004e0000a003a00de
:104764002e00900081c1b300014878003e00900003
:1047740021c0b300014878004e0090008040eb0057
:10478400014878003a0037002e009000c1c3b300fe
:10479400014878003e00900051c0b3000148780001
:1047a4004e0090008040eb00014878003000370054
:1047b4001e007800e40f500017003a002e409000cd
:1047c4000004e0000a003a002e009000f1c1b3009a
:1047d400014878003e00900051c0b30001487800c1
:1047e4004e00900011c0b30001487800200037004b
:1047f4002e009000c1c0b300014878003e00900034
:1048040011c0b300014878004e00900011c0b300fd
:1048140001487800160037002e4090000004e000a4
:104824000a003a002e009000c1c3b300014878008a
:104834003e00900051c0b300014878004e00900043
:1048440011c0b30001487800090037002e00900021
:10485400e1c1b300014878003e00900051c0b300ac
:10486400014878004e00900011c0b3000148780060
:104874000080fa00000006000600fa00000f78002d
:1048840021479800324798004347980054479800be
:104894003e4090008080fb005e4090000080fb0062
:1048a40000017800110009008280d8008000fd001a
:1048b400004078000004e000020032000040eb00f9
:1048c4000f0037001e007800e40f50000b003a0080
:1048d4002e4090000004e00008003a004e40900092
:1048e400ff4f500005003a003e409000fe4f50003c
:1048f40002003a000040eb000100370010c0b30092
:104904000080fa00000006000a00fa002007980060
:1049140031079800420798000b2c0700000f78001d
:104924001e007800d0509000214798002e0090007f
:10493400e30f50002f003a003e009000b1e629003a
:10494400010878002e4090000004e0000e003a00b8
:104954003e00900081c1b300214098003e009000c9
:1049640021c0b300314098003e0090008040eb002d
:1049740041409800c0b32000904078003e00900071
:10498400514098000d0037003e009000c1c3b300b1
:10499400214098003e00900051c0b300314098007f
:1049a4003e0090008040eb0041409800d0b32000ce
:1049b400904078003e00900051409800d0b3200011
:1049c400104078008080fb00c0b3200010407800c5
:1049d4000080fb00811f7800801f780000e7290019
:1049e400801f78004e0090000bf20700e687570006
:1049f400920037002e009000e40f500031003a007e
:104a04003e009000a1e72900010878002e409000a4
:104a14000004e0000f003a003e009000f1c1b30032
:104a2400214098003e00900051c0b30031409800ee
:104a34003e00900011c0b3004140980000b4200033
:104a4400104078008040e9003e00900051409800fa
:104a54000e0037003e009000c1c0b3002140980012
:104a64003e00900011c0b300314098003e00900019
:104a740011c0b3004140980010b4200010407800e9
:104a84008040e9003e0090005140980010b420009e
:104a9400104078008080fb0000b4200010407800b3
:104aa4000080fb00811f7800801f7800f0e7290058
:104ab400801f78004e009000d7f10700e68757006a
:104ac4005e0037002e009000e70f50002d003a00e2
:104ad4003e00900091e82900010878002e409000e3
:104ae4000004e0000e003a003e009000c1c3b30091
:104af400214098003e00900051c0b300314098001e
:104b04003e00900011c0b3004140980050c8bf005f
:104b14008040e9003e009000514098000d003700ad
:104b24003e009000e1c1b300214098003e00900097
:104b340051c0b300314098003e00900011c0b30052
:104b44004140980051c8bf008040e9003e009000f9
:104b54005140980051c8bf008080fb0050c8bf007e
:104b64000080fb00811f7800801f7800e0e82900a6
:104b7400801f78004e009000a7f10700e6875700d9
:104b84002e0037003e009000a1e9290001087800ba
:104b94002e4090000004e0000e003a003e00900019
:104ba40081c1b300214098003e00900021c0b300b1
:104bb400314098003e0090008040eb004140980056
:104bc40020b42000904078003e00900051409800ae
:104bd4000d0037003e009000c1c3b300214098008f
:104be4003e00900051c0b300314098003e00900058
:104bf4008040eb004140980030b4200090407800a1
:104c04003e0090005140980030b4200010407800dd
:104c14008080fb0020b42000104078000080fb005e
:104c2400811f7800801f780000e72900801f78002a
:104c34004e00900078f10700e68757000080fa00e4
:104c4400000006001000fa0060079800614f980009
:104c54000040eb001047980010c0b30020479800b4
:104c64000040eb0030479800630147008e80e80065
:104c74000e00e8000202780081017800000178004b
:104c8400ee4890006e009000a6fe07000040eb0086
:104c9400004f78002c003700ae4090001e4090007a
:104ca40001427800804178001e417800ee4890006f
:104cb4006e009000f0fe07000004a2000004e00073
:104cc4001f003a001e40900066014700e4004700c0
:104cd4000202780081017800e2c1b30080407800cc
:104ce4001e4078007dfc07003e4090001e404000be
:104cf4008080fb0068004700811f780001ea2900da
:104d0400811f780044f10700e487570068014700d9
:104d14003e00900000407800e34050002e009000d8
:104d2400004078006640500005b926000202780071
:104d340013c0b30012c0b3005905070001003700c7
:104d4400000000001e4fe8001e4090009e407800c6
:104d540080cf5000d0ff39000080fa000000060028
:104d64000400fa0070c1b300004f780050c2b300d1
:104d7400104798009e80fb001e4090000080fb00be
:104d840000804000cf00de00008040000080d100a1
:104d9400204798001e4090001e4050000040e8004c
:104da40030479800640e2200be4190002e419000ce
:104db40041c3b300f0c2b300ac0307000080fa00a3
:104dc400000006001000fa0040079800214f9800e8
:104dd400324f9800434f9800544f9800654f980005
:104de400764f9800be4890004e48900080cf500007
:104df4003b0032000e80e800000278008e0178004b
:104e0400e2c1b300de4890003e48900033fc070046
:104e14001e009000804078001e007800004078005a
:104e2400630e220022c0b300070307006e4a9000fd
:104e3400de4990003e499000ae4890004e0090003c
:104e44008dfe07000004e00016003200be4890000a
:104e54007e48900000c040008080fb006400470052
:104e6400811f780001ea2900811f7800eaf0070019
:104e7400e4875700640147001e009000004078005a
:104e8400e34050001e007800004078006640500067
:104e940005b926000202780013c0b30012c0b300a3
:104ea400ff0407000e80e800000278008e017800fd
:104eb400e2c1b300de4890004e48900007fc0700b2
:104ec4001e009000804078001e00780000407800aa
:104ed400e3d9280022c0b300db0207000100370039
:104ee400000000000080fa00000006001600fa002e
:104ef400200f980066004700000178008e007800bb
:104f04002e08900080fe0700640e2200f3c5b30053
:104f1400f2c5b300c1c0b3000040eb005a0407005f
:104f24001e007800e6fc07002cfd0700862a070017
:104f340050509000804078002e08900041ff0700f8
:104f4400660047001efc0700ae4090005e409000e3
:104f5400f2014700700147000302780082017800e3
:104f6400e2c1b300ddfb07001e089000804078001a
:104f74000e08900000407800e3d9280022c0b30056
:104f8400b10207005e40900013e8b7006e2a0700e4
:104f94005050900014e8b70010c0b30059e8b700af
:104fa4000080fa00000006001600fa00200f9800a6
:104fb40066004700000178008e0078002e089000fb
:104fc40051fe070066ff07005f2a0700505090005b
:104fd400804078002e0890001aff07006600470002
:104fe400f7fb0700ae4090005e409000f2014700de
:104ff400700147000302780082017800e2c1b30027
:10500400b6fb07001e089000804078000e08900050
:1050140000407800e3d9280022c0b3008a020700c8
:105024005e40900013e8b700472a070050509000f4
:1050340014e8b70010c0b30059e8b7000080fa00c4
:10504400000006001600fa00889fbe00200f98009a
:10505400ea004700640047000101780080007800fe
:105064002e08900028fe070059c8bf000004a200c3
:105074000004e00008003a0013c8bf00e14f4000fc
:1050840005003200302a0700d050900014c8bf0039
:1050940080cf5000030032002e089000c2ff0700aa
:1050a40053003700ee409000014f7800fe4090001e
:1050b400114798008e489000214798002e089000d0
:1050c400e30f5000030032002e089000e50f50005b
:1050d40011003a0014c8bf000004e00002003a00c6
:1050e40080c1b30001003700c0c3b300004f780093
:1050f40014c8bf000004e00002003a0020c0b3005e
:105104000100370050c0b300104798000040eb0086
:1051140020479800220037002e089000e40f50002a
:1051240011003a0014c8bf000004e00002003a0075
:10513400f0c1b30001003700c0c0b300004f7800d5
:1051440014c8bf000004e00002003a0050c0b300dd
:105154000100370010c0b3001047980010c0b3001e
:10516400204798000e0037002e089000e70f5000eb
:105174000b003a0014c8bf000004e00002003a002b
:10518400c0c3b30001003700e0c1b300004f780092
:1051940050c0b3001047980010c0b30020479800d7
:1051a4009e4c90003881200018447800e6290700be
:1051b400505090002e4390009e4290001e42780072
:1051c4008941780008417800804078002e089000da
:1051d400fcfe07006a00470079fb07001e489000a8
:1051e40013e8b700d82907005050900014e8b7001e
:1051f4004f04be000080fa00000006000200fa001e
:10520400d1290700000f780010c0b30058e8b70098
:105214001e00780010089000e30f500019003200bf
:10522400e30f500005003e00e10f50000f00320074
:10523400e10f500010003e0009003700e50f500058
:1052440016003200e50f500011003900e60f50003f
:1052540018003200e70f5000130032001800370026
:1052640060a62900fafc070024003700c0a7290023
:10527400f7fc07002100370020a92900f4fc0700ef
:105284001e0037003000200018ff07001b00370005
:105294004000200015ff07001800370050002000d0
:1052a40012ff070015003700700020000fff0700f1
:1052b4001200370060aa2900e5fc07000f00370040
:1052c400640e2200f3c5b300f2c5b300c1c0b3003d
:1052d4000040eb006c03070050ea2900e5d92800e0
:1052e4000002780013c0b30012c0b30081c2b3003f
:1052f400a0c0b300ea030700000000000080fa0029
:10530400000006000800fa0058c8bf000004e000ce
:10531400020032005868ef0079003700fafb0700fa
:1053240089290700100798000040eb00004f78001f
:105334000040eb00104798006300370010c0b30032
:10534400004f78002e009000e20f50003a00320027
:10535400e30f50001a003200e10f500055003a00ec
:105364001e00900010089000e10f50000a00320067
:10537400e10f500005003900e20f5000090032002f
:10538400e60f50000a0032000c00370060a6290026
:10539400d3fc070009003700c0a72900d0fc070090
:1053a4000600370020a92900cdfc070003003700c0
:1053b40060aa2900cafc0700000000004200370070
:1053c4001e00900010089000e30f500003003a0004
:1053d40030002000f4fe0700140037001e00900087
:1053e40010089000e40f500003003a004000200031
:1053f400edfe07000d0037001e009000100890001d
:10540400e50f500003003a0050002000e6fe0700bc
:10541400060037001e00900010089000e70f5000af
:1054240002003a0070002000dffe070010c0b30045
:1054340010479800240037001e4090000004e0004c
:105444001e003a001e00900010089000e30f500068
:1054540003003a0030002000fafe07001a0037006b
:105464001e00900010089000e40f500003003a0062
:1054740040002000f3fe0700130037001e009000d8
:1054840010089000e50f500003003a00500020007f
:10549400ecfe07000c0037001e009000100890007e
:1054a400e70f500007003a0070002000e5fe0700f7
:1054b4000500370000000000030037000000000072
:1054c400010037000000000064004700081f0700c7
:1054d4000004e00099ff3a001e4078000004a20096
:1054e4000004e000060032001e0090001008900046
:1054f400e70f500002003a0070002000d1fe0700c0
:105504000080fa00000006000600fa00000f780090
:1055140011079800220798001e0078008040780048
:105524002e009000014878002e00900011c0b300b6
:10553400614898002e0090009e0090001101be006a
:1055440022009800330098001e007800e30f5000fa
:105554002f003200e30f500005003e00e10f500021
:1055640015003200e10f50001e003e000700370016
:10557400e60f50003e003200e70f500048003200b2
:10558400e50f50002e003200570037002e00900027
:105594009e0090001102be0024009800350098007f
:1055a400a1029000450098002e00900021282300bd
:1055b40011009800500037002e0090009e009000cb
:1055c4001103be002600980037009800a103900044
:1055d400470098002e009000c12923001100980074
:1055e400450037002e0090009e0090001101be007f
:1055f4002200980033009800a10190004300980015
:105604002e009000a12b2300110098003a003700cf
:105614002e0090009e0090003102be002103be00c7
:105624002400980035009800460098005700980020
:105634002e009000812d2300110098002e003700c9
